{
  "_format": "hh-sol-artifact-1",
  "contractName": "KnowledgeGraphBase",
  "sourceName": "src/contracts/KnowledgeGraphBase.sol",
  "abi": [
    {
      "inputs": [
        {
          "internalType": "string",
          "name": "_domain",
          "type": "string"
        },
        {
          "internalType": "string",
          "name": "_description",
          "type": "string"
        }
      ],
      "stateMutability": "nonpayable",
      "type": "constructor"
    },
    {
      "anonymous": false,
      "inputs": [
        {
          "indexed": true,
          "internalType": "uint256",
          "name": "id",
          "type": "uint256"
        },
        {
          "indexed": false,
          "internalType": "string",
          "name": "name",
          "type": "string"
        },
        {
          "indexed": false,
          "internalType": "string",
          "name": "agentType",
          "type": "string"
        }
      ],
      "name": "AgentAdded",
      "type": "event"
    },
    {
      "anonymous": false,
      "inputs": [
        {
          "indexed": true,
          "internalType": "uint256",
          "name": "id",
          "type": "uint256"
        },
        {
          "indexed": false,
          "internalType": "string",
          "name": "name",
          "type": "string"
        }
      ],
      "name": "AgentUpdated",
      "type": "event"
    },
    {
      "anonymous": false,
      "inputs": [
        {
          "indexed": true,
          "internalType": "uint256",
          "name": "id",
          "type": "uint256"
        },
        {
          "indexed": false,
          "internalType": "string",
          "name": "name",
          "type": "string"
        }
      ],
      "name": "ConceptAdded",
      "type": "event"
    },
    {
      "anonymous": false,
      "inputs": [
        {
          "indexed": true,
          "internalType": "uint256",
          "name": "id",
          "type": "uint256"
        },
        {
          "indexed": false,
          "internalType": "string",
          "name": "name",
          "type": "string"
        }
      ],
      "name": "ConceptUpdated",
      "type": "event"
    },
    {
      "anonymous": false,
      "inputs": [
        {
          "indexed": true,
          "internalType": "address",
          "name": "previousOwner",
          "type": "address"
        },
        {
          "indexed": true,
          "internalType": "address",
          "name": "newOwner",
          "type": "address"
        }
      ],
      "name": "OwnershipTransferred",
      "type": "event"
    },
    {
      "anonymous": false,
      "inputs": [
        {
          "indexed": false,
          "internalType": "address",
          "name": "account",
          "type": "address"
        }
      ],
      "name": "Paused",
      "type": "event"
    },
    {
      "anonymous": false,
      "inputs": [
        {
          "indexed": true,
          "internalType": "uint256",
          "name": "id",
          "type": "uint256"
        },
        {
          "indexed": false,
          "internalType": "uint256",
          "name": "source",
          "type": "uint256"
        },
        {
          "indexed": false,
          "internalType": "uint256",
          "name": "target",
          "type": "uint256"
        },
        {
          "indexed": false,
          "internalType": "string",
          "name": "relationType",
          "type": "string"
        }
      ],
      "name": "RelationshipAdded",
      "type": "event"
    },
    {
      "anonymous": false,
      "inputs": [
        {
          "indexed": true,
          "internalType": "uint256",
          "name": "id",
          "type": "uint256"
        }
      ],
      "name": "RelationshipUpdated",
      "type": "event"
    },
    {
      "anonymous": false,
      "inputs": [
        {
          "indexed": false,
          "internalType": "address",
          "name": "account",
          "type": "address"
        }
      ],
      "name": "Unpaused",
      "type": "event"
    },
    {
      "inputs": [
        {
          "internalType": "string",
          "name": "name",
          "type": "string"
        },
        {
          "internalType": "string",
          "name": "category",
          "type": "string"
        },
        {
          "internalType": "string",
          "name": "agentType",
          "type": "string"
        },
        {
          "internalType": "string",
          "name": "metadata",
          "type": "string"
        },
        {
          "internalType": "address",
          "name": "creatorWallet",
          "type": "address"
        },
        {
          "internalType": "uint256",
          "name": "transactionFee",
          "type": "uint256"
        }
      ],
      "name": "addAgent",
      "outputs": [
        {
          "internalType": "uint256",
          "name": "",
          "type": "uint256"
        }
      ],
      "stateMutability": "nonpayable",
      "type": "function"
    },
    {
      "inputs": [
        {
          "internalType": "string",
          "name": "name",
          "type": "string"
        },
        {
          "internalType": "string",
          "name": "conceptDescription",
          "type": "string"
        },
        {
          "internalType": "string[]",
          "name": "tags",
          "type": "string[]"
        },
        {
          "internalType": "string",
          "name": "metadata",
          "type": "string"
        }
      ],
      "name": "addConcept",
      "outputs": [
        {
          "internalType": "uint256",
          "name": "",
          "type": "uint256"
        }
      ],
      "stateMutability": "nonpayable",
      "type": "function"
    },
    {
      "inputs": [
        {
          "internalType": "uint256",
          "name": "source",
          "type": "uint256"
        },
        {
          "internalType": "uint256",
          "name": "target",
          "type": "uint256"
        },
        {
          "internalType": "string",
          "name": "relationType",
          "type": "string"
        },
        {
          "internalType": "uint256",
          "name": "weight",
          "type": "uint256"
        },
        {
          "internalType": "string",
          "name": "metadata",
          "type": "string"
        }
      ],
      "name": "addRelationship",
      "outputs": [
        {
          "internalType": "uint256",
          "name": "",
          "type": "uint256"
        }
      ],
      "stateMutability": "nonpayable",
      "type": "function"
    },
    {
      "inputs": [],
      "name": "description",
      "outputs": [
        {
          "internalType": "string",
          "name": "",
          "type": "string"
        }
      ],
      "stateMutability": "view",
      "type": "function"
    },
    {
      "inputs": [],
      "name": "domain",
      "outputs": [
        {
          "internalType": "string",
          "name": "",
          "type": "string"
        }
      ],
      "stateMutability": "view",
      "type": "function"
    },
    {
      "inputs": [
        {
          "internalType": "uint256",
          "name": "agentId",
          "type": "uint256"
        }
      ],
      "name": "getAgent",
      "outputs": [
        {
          "internalType": "uint256",
          "name": "id",
          "type": "uint256"
        },
        {
          "internalType": "string",
          "name": "name",
          "type": "string"
        },
        {
          "internalType": "string",
          "name": "category",
          "type": "string"
        },
        {
          "internalType": "string",
          "name": "agentType",
          "type": "string"
        },
        {
          "internalType": "uint256",
          "name": "usageCount",
          "type": "uint256"
        },
        {
          "internalType": "uint256",
          "name": "successCount",
          "type": "uint256"
        },
        {
          "internalType": "string",
          "name": "metadata",
          "type": "string"
        },
        {
          "internalType": "address",
          "name": "creatorWallet",
          "type": "address"
        },
        {
          "internalType": "uint256",
          "name": "transactionFee",
          "type": "uint256"
        }
      ],
      "stateMutability": "view",
      "type": "function"
    },
    {
      "inputs": [],
      "name": "getAgentCount",
      "outputs": [
        {
          "internalType": "uint256",
          "name": "",
          "type": "uint256"
        }
      ],
      "stateMutability": "view",
      "type": "function"
    },
    {
      "inputs": [
        {
          "internalType": "string",
          "name": "name",
          "type": "string"
        }
      ],
      "name": "getAgentIdByName",
      "outputs": [
        {
          "internalType": "uint256",
          "name": "",
          "type": "uint256"
        }
      ],
      "stateMutability": "view",
      "type": "function"
    },
    {
      "inputs": [
        {
          "internalType": "uint256",
          "name": "conceptId",
          "type": "uint256"
        }
      ],
      "name": "getConcept",
      "outputs": [
        {
          "internalType": "uint256",
          "name": "id",
          "type": "uint256"
        },
        {
          "internalType": "string",
          "name": "name",
          "type": "string"
        },
        {
          "internalType": "string",
          "name": "description",
          "type": "string"
        },
        {
          "internalType": "string[]",
          "name": "tags",
          "type": "string[]"
        },
        {
          "internalType": "string",
          "name": "metadata",
          "type": "string"
        }
      ],
      "stateMutability": "view",
      "type": "function"
    },
    {
      "inputs": [],
      "name": "getConceptCount",
      "outputs": [
        {
          "internalType": "uint256",
          "name": "",
          "type": "uint256"
        }
      ],
      "stateMutability": "view",
      "type": "function"
    },
    {
      "inputs": [
        {
          "internalType": "string",
          "name": "name",
          "type": "string"
        }
      ],
      "name": "getConceptIdByName",
      "outputs": [
        {
          "internalType": "uint256",
          "name": "",
          "type": "uint256"
        }
      ],
      "stateMutability": "view",
      "type": "function"
    },
    {
      "inputs": [
        {
          "internalType": "uint256",
          "name": "conceptId",
          "type": "uint256"
        }
      ],
      "name": "getConceptTags",
      "outputs": [
        {
          "internalType": "string[]",
          "name": "",
          "type": "string[]"
        }
      ],
      "stateMutability": "view",
      "type": "function"
    },
    {
      "inputs": [
        {
          "internalType": "uint256",
          "name": "relationshipId",
          "type": "uint256"
        }
      ],
      "name": "getRelationship",
      "outputs": [
        {
          "internalType": "uint256",
          "name": "id",
          "type": "uint256"
        },
        {
          "internalType": "uint256",
          "name": "source",
          "type": "uint256"
        },
        {
          "internalType": "uint256",
          "name": "target",
          "type": "uint256"
        },
        {
          "internalType": "string",
          "name": "relationType",
          "type": "string"
        },
        {
          "internalType": "uint256",
          "name": "weight",
          "type": "uint256"
        },
        {
          "internalType": "string",
          "name": "metadata",
          "type": "string"
        }
      ],
      "stateMutability": "view",
      "type": "function"
    },
    {
      "inputs": [],
      "name": "getRelationshipCount",
      "outputs": [
        {
          "internalType": "uint256",
          "name": "",
          "type": "uint256"
        }
      ],
      "stateMutability": "view",
      "type": "function"
    },
    {
      "inputs": [],
      "name": "owner",
      "outputs": [
        {
          "internalType": "address",
          "name": "",
          "type": "address"
        }
      ],
      "stateMutability": "view",
      "type": "function"
    },
    {
      "inputs": [],
      "name": "pause",
      "outputs": [],
      "stateMutability": "nonpayable",
      "type": "function"
    },
    {
      "inputs": [],
      "name": "paused",
      "outputs": [
        {
          "internalType": "bool",
          "name": "",
          "type": "bool"
        }
      ],
      "stateMutability": "view",
      "type": "function"
    },
    {
      "inputs": [
        {
          "internalType": "uint256",
          "name": "agentId",
          "type": "uint256"
        },
        {
          "internalType": "bool",
          "name": "success",
          "type": "bool"
        }
      ],
      "name": "recordAgentUsage",
      "outputs": [],
      "stateMutability": "nonpayable",
      "type": "function"
    },
    {
      "inputs": [],
      "name": "renounceOwnership",
      "outputs": [],
      "stateMutability": "nonpayable",
      "type": "function"
    },
    {
      "inputs": [
        {
          "internalType": "address",
          "name": "newOwner",
          "type": "address"
        }
      ],
      "name": "transferOwnership",
      "outputs": [],
      "stateMutability": "nonpayable",
      "type": "function"
    },
    {
      "inputs": [],
      "name": "unpause",
      "outputs": [],
      "stateMutability": "nonpayable",
      "type": "function"
    },
    {
      "inputs": [
        {
          "internalType": "uint256",
          "name": "agentId",
          "type": "uint256"
        },
        {
          "internalType": "string",
          "name": "metadata",
          "type": "string"
        }
      ],
      "name": "updateAgentMetadata",
      "outputs": [],
      "stateMutability": "nonpayable",
      "type": "function"
    },
    {
      "inputs": [
        {
          "internalType": "uint256",
          "name": "conceptId",
          "type": "uint256"
        },
        {
          "internalType": "string",
          "name": "name",
          "type": "string"
        },
        {
          "internalType": "string",
          "name": "conceptDescription",
          "type": "string"
        },
        {
          "internalType": "string[]",
          "name": "tags",
          "type": "string[]"
        },
        {
          "internalType": "string",
          "name": "metadata",
          "type": "string"
        }
      ],
      "name": "updateConcept",
      "outputs": [],
      "stateMutability": "nonpayable",
      "type": "function"
    },
    {
      "inputs": [
        {
          "internalType": "uint256",
          "name": "relationshipId",
          "type": "uint256"
        },
        {
          "internalType": "string",
          "name": "metadata",
          "type": "string"
        }
      ],
      "name": "updateRelationshipMetadata",
      "outputs": [],
      "stateMutability": "nonpayable",
      "type": "function"
    },
    {
      "inputs": [
        {
          "internalType": "uint256",
          "name": "relationshipId",
          "type": "uint256"
        },
        {
          "internalType": "uint256",
          "name": "weight",
          "type": "uint256"
        }
      ],
      "name": "updateRelationshipWeight",
      "outputs": [],
      "stateMutability": "nonpayable",
      "type": "function"
    }
  ],
  "bytecode": "0x60806040523480156200001157600080fd5b5060405162002952380380620029528339810160408190526200003491620001b4565b6200003f336200009f565b6000805460ff60a01b1916905560046200005a8382620002ad565b506005620000698282620002ad565b5062000079600180546001019055565b62000088600280546001019055565b62000097600380546001019055565b505062000379565b600080546001600160a01b038381166001600160a01b0319831681178455604051919092169283917f8be0079c531659141344cd1fd0a4f28419497f9722a3daafe3b4186f6b6457e09190a35050565b634e487b7160e01b600052604160045260246000fd5b600082601f8301126200011757600080fd5b81516001600160401b0380821115620001345762000134620000ef565b604051601f8301601f19908116603f011681019082821181831017156200015f576200015f620000ef565b816040528381526020925086838588010111156200017c57600080fd5b600091505b83821015620001a0578582018301518183018401529082019062000181565b600093810190920192909252949350505050565b60008060408385031215620001c857600080fd5b82516001600160401b0380821115620001e057600080fd5b620001ee8683870162000105565b935060208501519150808211156200020557600080fd5b50620002148582860162000105565b9150509250929050565b600181811c908216806200023357607f821691505b6020821081036200025457634e487b7160e01b600052602260045260246000fd5b50919050565b601f821115620002a857600081815260208120601f850160051c81016020861015620002835750805b601f850160051c820191505b81811015620002a4578281556001016200028f565b5050505b505050565b81516001600160401b03811115620002c957620002c9620000ef565b620002e181620002da84546200021e565b846200025a565b602080601f831160018114620003195760008415620003005750858301515b600019600386901b1c1916600185901b178555620002a4565b600085815260208120601f198616915b828110156200034a5788860151825594840194600190910190840162000329565b5085821015620003695787850151600019600388901b60f8161c191681555b5050505050600190811b01905550565b6125c980620003896000396000f3fe608060405234801561001057600080fd5b50600436106101735760003560e01c80637f3f26af116100de57806391cab63e11610097578063da76f8e611610071578063da76f8e614610333578063e3eb77431461033b578063ed72e9991461034e578063f2fde38b1461036157600080fd5b806391cab63e146103105780639b386ffa14610318578063c2fb26a61461032b57600080fd5b80637f3f26af1461029b57806383821616146102ae5780638456cb59146102c1578063851c8250146102c95780638b7f2483146102d15780638da5cb5b146102f557600080fd5b80633f4ba83a116101305780633f4ba83a1461023157806350db8da41461023b5780635c975abb1461024e5780636cfa05f11461026b578063715018a61461027e5780637284e4161461028657600080fd5b8063105203eb146101785780632c9a1cf21461019e5780632d5c1544146101b15780632de5aaf7146101c45780632f90a287146101ec578063322e41b51461020c575b600080fd5b61018b610186366004611c2a565b610374565b6040519081526020015b60405180910390f35b61018b6101ac366004611cf3565b610508565b61018b6101bf366004611db9565b61073d565b6101d76101d2366004611df6565b6107a9565b60405161019599989796959493929190611e5f565b6101ff6101fa366004611df6565b610b19565b6040516101959190611f39565b61021f61021a366004611df6565b610c34565b60405161019596959493929190611f53565b610239610e20565b005b610239610249366004611f9d565b610e32565b600054600160a01b900460ff166040519015158152602001610195565b610239610279366004611fd2565b610ecf565b610239610f5e565b61028e610f70565b6040516101959190612019565b6102396102a936600461202c565b610ffe565b61018b6102bc366004611db9565b611183565b6102396111eb565b61018b6111fb565b6102e46102df366004611df6565b611217565b6040516101959594939291906120e3565b6000546040516001600160a01b039091168152602001610195565b61018b611546565b610239610326366004612136565b611553565b61028e6115d6565b61018b6115e3565b61018b610349366004612158565b6115f0565b61023961035c366004611fd2565b61170d565b61023961036f3660046121bf565b6117bf565b600061037e611838565b610386611892565b600a8560405161039691906121da565b9081526020016040518091039020546000146103cd5760405162461bcd60e51b81526004016103c4906121f6565b60405180910390fd5b60006103d860025490565b6040805160c08101825282815260208082018a81528284018a90526060830189905260808301889052600160a0840181905260008681526007909352939091208251815590519394509092909182019061043290826122bd565b506040820151600282019061044790826122bd565b5060608201518051610463916003840191602090910190611a17565b506080820151600482019061047890826122bd565b5060a091909101516005909101805460ff19169115159190911790556040518190600a906104a79089906121da565b908152602001604051809103902081905550807f8192dd8726ce15ed826e6710fb69cf4c312432afdac621208089faefaf341605876040516104e99190612019565b60405180910390a26104ff600280546001019055565b95945050505050565b6000610512611838565b61051a611892565b60098760405161052a91906121da565b9081526020016040518091039020546000146105945760405162461bcd60e51b815260206004820152602360248201527f4167656e7420776974682074686973206e616d6520616c72656164792065786960448201526273747360e81b60648201526084016103c4565b600061059f60015490565b90506040518061014001604052808281526020018981526020018881526020018781526020016000815260200160008152602001868152602001856001600160a01b03168152602001848152602001600115158152506006600083815260200190815260200160002060008201518160000155602082015181600101908161062791906122bd565b506040820151600282019061063c90826122bd565b506060820151600382019061065190826122bd565b506080820151600482015560a0820151600582015560c0820151600682019061067a90826122bd565b5060e08201516007820180546001600160a01b0319166001600160a01b039092169190911790556101008201516008820155610120909101516009918201805460ff19169115159190911790556040518291906106d8908b906121da565b908152602001604051809103902081905550807f1905603be3d1c5a2793c4c68121204e9e7849a9d9a7d0a0a988f7177bb5e7f5f898860405161071c92919061237d565b60405180910390a2610732600180546001019055565b979650505050505050565b60008060098360405161075091906121da565b9081526020016040518091039020549050806000036107a35760405162461bcd60e51b815260206004820152600f60248201526e1059d95b9d081b9bdd08199bdd5b99608a1b60448201526064016103c4565b92915050565b60008181526006602052604081206009015460609081908190849081908390829081908a9060ff166107ed5760405162461bcd60e51b81526004016103c4906123a2565b6000600660008d815260200190815260200160002060405180610140016040529081600082015481526020016001820180546108289061223b565b80601f01602080910402602001604051908101604052809291908181526020018280546108549061223b565b80156108a15780601f10610876576101008083540402835291602001916108a1565b820191906000526020600020905b81548152906001019060200180831161088457829003601f168201915b505050505081526020016002820180546108ba9061223b565b80601f01602080910402602001604051908101604052809291908181526020018280546108e69061223b565b80156109335780601f1061090857610100808354040283529160200191610933565b820191906000526020600020905b81548152906001019060200180831161091657829003601f168201915b5050505050815260200160038201805461094c9061223b565b80601f01602080910402602001604051908101604052809291908181526020018280546109789061223b565b80156109c55780601f1061099a576101008083540402835291602001916109c5565b820191906000526020600020905b8154815290600101906020018083116109a857829003601f168201915b5050505050815260200160048201548152602001600582015481526020016006820180546109f29061223b565b80601f0160208091040260200160405190810160405280929190818152602001828054610a1e9061223b565b8015610a6b5780601f10610a4057610100808354040283529160200191610a6b565b820191906000526020600020905b815481529060010190602001808311610a4e57829003601f168201915b505050505081526020016007820160009054906101000a90046001600160a01b03166001600160a01b03166001600160a01b03168152602001600882015481526020016009820160009054906101000a900460ff1615151515815250509050806000015181602001518260400151836060015184608001518560a001518660c001518760e001518861010001519a509a509a509a509a509a509a509a509a5050509193959799909294969850565b600081815260076020526040902060050154606090829060ff16610b4f5760405162461bcd60e51b81526004016103c4906123d0565b600083815260076020908152604080832060030180548251818502810185019093528083529193909284015b82821015610c27578382906000526020600020018054610b9a9061223b565b80601f0160208091040260200160405190810160405280929190818152602001828054610bc69061223b565b8015610c135780601f10610be857610100808354040283529160200191610c13565b820191906000526020600020905b815481529060010190602001808311610bf657829003601f168201915b505050505081526020019060010190610b7b565b5050505091505b50919050565b6000818152600860205260408120600601548190819060609082908290879060ff16610c725760405162461bcd60e51b81526004016103c490612400565b6000600860008a81526020019081526020016000206040518060e0016040529081600082015481526020016001820154815260200160028201548152602001600382018054610cc09061223b565b80601f0160208091040260200160405190810160405280929190818152602001828054610cec9061223b565b8015610d395780601f10610d0e57610100808354040283529160200191610d39565b820191906000526020600020905b815481529060010190602001808311610d1c57829003601f168201915b5050505050815260200160048201548152602001600582018054610d5c9061223b565b80601f0160208091040260200160405190810160405280929190818152602001828054610d889061223b565b8015610dd55780601f10610daa57610100808354040283529160200191610dd5565b820191906000526020600020905b815481529060010190602001808311610db857829003601f168201915b50505091835250506006919091015460ff16151560209182015281519082015160408301516060840151608085015160a090950151939e929d50909b50995091975095509350505050565b610e28611838565b610e306118df565b565b610e3a611838565b610e42611892565b600082815260066020526040902060090154829060ff16610e755760405162461bcd60e51b81526004016103c4906123a2565b6000838152600660205260408120600401805460019290610e9790849061244d565b90915550508115610eca576000838152600660205260408120600501805460019290610ec490849061244d565b90915550505b505050565b610ed7611838565b610edf611892565b600082815260086020526040902060060154829060ff16610f125760405162461bcd60e51b81526004016103c490612400565b6000838152600860205260409020600501610f2d83826122bd565b5060405183907fbdd41a4bc7e629ea27b37486874394ab751fa1e56bd30e0aaa87fa5cae46e68f90600090a2505050565b610f66611838565b610e306000611934565b60058054610f7d9061223b565b80601f0160208091040260200160405190810160405280929190818152602001828054610fa99061223b565b8015610ff65780601f10610fcb57610100808354040283529160200191610ff6565b820191906000526020600020905b815481529060010190602001808311610fd957829003601f168201915b505050505081565b611006611838565b61100e611892565b600085815260076020526040902060050154859060ff166110415760405162461bcd60e51b81526004016103c4906123d0565b600a8560405161105191906121da565b9081526020016040518091039020546000148061108b575085600a8660405161107a91906121da565b908152602001604051809103902054145b6110a75760405162461bcd60e51b81526004016103c4906121f6565b6000868152600760205260408082209051909190600a906110cc906001850190612460565b90815260405190819003602001902055600181016110ea87826122bd565b50600281016110f986826122bd565b50835161110f9060038301906020870190611a17565b506004810161111e84826122bd565b5086600a8760405161113091906121da565b908152602001604051809103902081905550867f197a60c3198aee82cf7936c79248a7c6ba21e2ec319b274aed0a4cce0a3c0ce9876040516111729190612019565b60405180910390a250505050505050565b600080600a8360405161119691906121da565b9081526020016040518091039020549050806000036107a35760405162461bcd60e51b815260206004820152601160248201527010dbdb98d95c1d081b9bdd08199bdd5b99607a1b60448201526064016103c4565b6111f3611838565b610e30611984565b6000600161120860035490565b61121291906124d6565b905090565b600081815260076020526040812060050154606090819081908190869060ff166112535760405162461bcd60e51b81526004016103c4906123d0565b6000600760008981526020019081526020016000206040518060c00160405290816000820154815260200160018201805461128d9061223b565b80601f01602080910402602001604051908101604052809291908181526020018280546112b99061223b565b80156113065780601f106112db57610100808354040283529160200191611306565b820191906000526020600020905b8154815290600101906020018083116112e957829003601f168201915b5050505050815260200160028201805461131f9061223b565b80601f016020809104026020016040519081016040528092919081815260200182805461134b9061223b565b80156113985780601f1061136d57610100808354040283529160200191611398565b820191906000526020600020905b81548152906001019060200180831161137b57829003601f168201915b5050505050815260200160038201805480602002602001604051908101604052809291908181526020016000905b828210156114725783829060005260206000200180546113e59061223b565b80601f01602080910402602001604051908101604052809291908181526020018280546114119061223b565b801561145e5780601f106114335761010080835404028352916020019161145e565b820191906000526020600020905b81548152906001019060200180831161144157829003601f168201915b5050505050815260200190600101906113c6565b50505050815260200160048201805461148a9061223b565b80601f01602080910402602001604051908101604052809291908181526020018280546114b69061223b565b80156115035780601f106114d857610100808354040283529160200191611503565b820191906000526020600020905b8154815290600101906020018083116114e657829003601f168201915b50505091835250506005919091015460ff16151560209182015281519082015160408301516060840151608090940151929c919b50995091975095509350505050565b6000600161120860015490565b61155b611838565b611563611892565b600082815260086020526040902060060154829060ff166115965760405162461bcd60e51b81526004016103c490612400565b6000838152600860205260408082206004018490555184917fbdd41a4bc7e629ea27b37486874394ab751fa1e56bd30e0aaa87fa5cae46e68f91a2505050565b60048054610f7d9061223b565b6000600161120860025490565b60006115fa611838565b611602611892565b600061160d60035490565b6040805160e08101825282815260208082018b81528284018b8152606084018b8152608085018b905260a085018a9052600160c08601819052600088815260089095529590932084518155915194820194909455925160028401555192935091600382019061167c90826122bd565b506080820151600482015560a0820151600582019061169b90826122bd565b5060c091909101516006909101805460ff191691151591909117905560405181907fb4d3ad7b31086d37c555aa4811459ae61647558d8d61c79b622355541112b3ba906116ed908a908a908a906124e9565b60405180910390a2611703600380546001019055565b9695505050505050565b611715611838565b61171d611892565b600082815260066020526040902060090154829060ff166117505760405162461bcd60e51b81526004016103c4906123a2565b60008381526006602081905260409091200161176c83826122bd565b50827ff0677ec077e6eec8e31d4e8be0cb20b797f3a9dc243e2ddc641532c0ff412036600660008681526020019081526020016000206001016040516117b29190612508565b60405180910390a2505050565b6117c7611838565b6001600160a01b03811661182c5760405162461bcd60e51b815260206004820152602660248201527f4f776e61626c653a206e6577206f776e657220697320746865207a65726f206160448201526564647265737360d01b60648201526084016103c4565b61183581611934565b50565b6000546001600160a01b03163314610e305760405162461bcd60e51b815260206004820181905260248201527f4f776e61626c653a2063616c6c6572206973206e6f7420746865206f776e657260448201526064016103c4565b600054600160a01b900460ff1615610e305760405162461bcd60e51b815260206004820152601060248201526f14185d5cd8589b194e881c185d5cd95960821b60448201526064016103c4565b6118e76119c7565b6000805460ff60a01b191690557f5db9ee0a495bf2e6ff9c91a7834c1ba4fdd244a5e8aa4e537bd38aeae4b073aa335b6040516001600160a01b03909116815260200160405180910390a1565b600080546001600160a01b038381166001600160a01b0319831681178455604051919092169283917f8be0079c531659141344cd1fd0a4f28419497f9722a3daafe3b4186f6b6457e09190a35050565b61198c611892565b6000805460ff60a01b1916600160a01b1790557f62e78cea01bee320cd4e420270b5ea74000d11b0c9f74754ebdbfc544b05a2586119173390565b600054600160a01b900460ff16610e305760405162461bcd60e51b815260206004820152601460248201527314185d5cd8589b194e881b9bdd081c185d5cd95960621b60448201526064016103c4565b828054828255906000526020600020908101928215611a5d579160200282015b82811115611a5d5782518290611a4d90826122bd565b5091602001919060010190611a37565b50611a69929150611a6d565b5090565b80821115611a69576000611a818282611a8a565b50600101611a6d565b508054611a969061223b565b6000825580601f10611aa6575050565b601f01602090049060005260206000209081019061183591905b80821115611a695760008155600101611ac0565b634e487b7160e01b600052604160045260246000fd5b604051601f8201601f1916810167ffffffffffffffff81118282101715611b1357611b13611ad4565b604052919050565b600082601f830112611b2c57600080fd5b813567ffffffffffffffff811115611b4657611b46611ad4565b611b59601f8201601f1916602001611aea565b818152846020838601011115611b6e57600080fd5b816020850160208301376000918101602001919091529392505050565b600082601f830112611b9c57600080fd5b8135602067ffffffffffffffff80831115611bb957611bb9611ad4565b8260051b611bc8838201611aea565b9384528581018301938381019088861115611be257600080fd5b84880192505b85831015611c1e57823584811115611c005760008081fd5b611c0e8a87838c0101611b1b565b8352509184019190840190611be8565b98975050505050505050565b60008060008060808587031215611c4057600080fd5b843567ffffffffffffffff80821115611c5857600080fd5b611c6488838901611b1b565b95506020870135915080821115611c7a57600080fd5b611c8688838901611b1b565b94506040870135915080821115611c9c57600080fd5b611ca888838901611b8b565b93506060870135915080821115611cbe57600080fd5b50611ccb87828801611b1b565b91505092959194509250565b80356001600160a01b0381168114611cee57600080fd5b919050565b60008060008060008060c08789031215611d0c57600080fd5b863567ffffffffffffffff80821115611d2457600080fd5b611d308a838b01611b1b565b97506020890135915080821115611d4657600080fd5b611d528a838b01611b1b565b96506040890135915080821115611d6857600080fd5b611d748a838b01611b1b565b95506060890135915080821115611d8a57600080fd5b50611d9789828a01611b1b565b935050611da660808801611cd7565b915060a087013590509295509295509295565b600060208284031215611dcb57600080fd5b813567ffffffffffffffff811115611de257600080fd5b611dee84828501611b1b565b949350505050565b600060208284031215611e0857600080fd5b5035919050565b60005b83811015611e2a578181015183820152602001611e12565b50506000910152565b60008151808452611e4b816020860160208601611e0f565b601f01601f19169290920160200192915050565b60006101208b8352806020840152611e798184018c611e33565b90508281036040840152611e8d818b611e33565b90508281036060840152611ea1818a611e33565b90508760808401528660a084015282810360c0840152611ec18187611e33565b6001600160a01b039590951660e084015250506101000152979650505050505050565b600081518084526020808501808196508360051b8101915082860160005b85811015611f2c578284038952611f1a848351611e33565b98850198935090840190600101611f02565b5091979650505050505050565b602081526000611f4c6020830184611ee4565b9392505050565b86815285602082015284604082015260c060608201526000611f7860c0830186611e33565b84608084015282810360a0840152611f908185611e33565b9998505050505050505050565b60008060408385031215611fb057600080fd5b8235915060208301358015158114611fc757600080fd5b809150509250929050565b60008060408385031215611fe557600080fd5b82359150602083013567ffffffffffffffff81111561200357600080fd5b61200f85828601611b1b565b9150509250929050565b602081526000611f4c6020830184611e33565b600080600080600060a0868803121561204457600080fd5b85359450602086013567ffffffffffffffff8082111561206357600080fd5b61206f89838a01611b1b565b9550604088013591508082111561208557600080fd5b61209189838a01611b1b565b945060608801359150808211156120a757600080fd5b6120b389838a01611b8b565b935060808801359150808211156120c957600080fd5b506120d688828901611b1b565b9150509295509295909350565b85815260a0602082015260006120fc60a0830187611e33565b828103604084015261210e8187611e33565b905082810360608401526121228186611ee4565b90508281036080840152611c1e8185611e33565b6000806040838503121561214957600080fd5b50508035926020909101359150565b600080600080600060a0868803121561217057600080fd5b8535945060208601359350604086013567ffffffffffffffff8082111561219657600080fd5b6121a289838a01611b1b565b94506060880135935060808801359150808211156120c957600080fd5b6000602082840312156121d157600080fd5b611f4c82611cd7565b600082516121ec818460208701611e0f565b9190910192915050565b60208082526025908201527f436f6e6365707420776974682074686973206e616d6520616c72656164792065604082015264786973747360d81b606082015260800190565b600181811c9082168061224f57607f821691505b602082108103610c2e57634e487b7160e01b600052602260045260246000fd5b601f821115610eca57600081815260208120601f850160051c810160208610156122965750805b601f850160051c820191505b818110156122b5578281556001016122a2565b505050505050565b815167ffffffffffffffff8111156122d7576122d7611ad4565b6122eb816122e5845461223b565b8461226f565b602080601f83116001811461232057600084156123085750858301515b600019600386901b1c1916600185901b1785556122b5565b600085815260208120601f198616915b8281101561234f57888601518255948401946001909101908401612330565b508582101561236d5787850151600019600388901b60f8161c191681555b5050505050600190811b01905550565b6040815260006123906040830185611e33565b82810360208401526104ff8185611e33565b6020808252601490820152731059d95b9d08191bd95cc81b9bdd08195e1a5cdd60621b604082015260600190565b60208082526016908201527510dbdb98d95c1d08191bd95cc81b9bdd08195e1a5cdd60521b604082015260600190565b6020808252601b908201527f52656c6174696f6e7368697020646f6573206e6f742065786973740000000000604082015260600190565b634e487b7160e01b600052601160045260246000fd5b808201808211156107a3576107a3612437565b600080835461246e8161223b565b60018281168015612486576001811461249b576124ca565b60ff19841687528215158302870194506124ca565b8760005260208060002060005b858110156124c15781548a8201529084019082016124a8565b50505082870194505b50929695505050505050565b818103818111156107a3576107a3612437565b8381528260208201526060604082015260006104ff6060830184611e33565b600060208083526000845461251c8161223b565b8084870152604060018084166000811461253d576001811461255757612585565b60ff1985168984015283151560051b890183019550612585565b896000528660002060005b8581101561257d5781548b8201860152908301908801612562565b8a0184019650505b50939897505050505050505056fea26469706673582212209d6f40d077b004872dc51bd26c050489d7ed182cdc97a1f80f7c127aefcc40fd64736f6c63430008140033",
  "linkReferences": {},
  "deployedLinkReferences": {}
}