{
  "_format": "hh-sol-artifact-1",
  "contractName": "CyberSecurityKG",
  "sourceName": "src/contracts/CyberSecurityKG.sol",
  "abi": [
    {
      "inputs": [
        {
          "internalType": "string",
          "name": "_description",
          "type": "string"
        }
      ],
      "stateMutability": "nonpayable",
      "type": "constructor"
    },
    {
      "anonymous": false,
      "inputs": [
        {
          "indexed": true,
          "internalType": "uint256",
          "name": "id",
          "type": "uint256"
        },
        {
          "indexed": false,
          "internalType": "string",
          "name": "name",
          "type": "string"
        },
        {
          "indexed": false,
          "internalType": "string",
          "name": "agentType",
          "type": "string"
        }
      ],
      "name": "AgentAdded",
      "type": "event"
    },
    {
      "anonymous": false,
      "inputs": [
        {
          "indexed": true,
          "internalType": "uint256",
          "name": "id",
          "type": "uint256"
        },
        {
          "indexed": false,
          "internalType": "string",
          "name": "name",
          "type": "string"
        }
      ],
      "name": "AgentUpdated",
      "type": "event"
    },
    {
      "anonymous": false,
      "inputs": [
        {
          "indexed": true,
          "internalType": "uint256",
          "name": "id",
          "type": "uint256"
        },
        {
          "indexed": false,
          "internalType": "string",
          "name": "name",
          "type": "string"
        }
      ],
      "name": "ConceptAdded",
      "type": "event"
    },
    {
      "anonymous": false,
      "inputs": [
        {
          "indexed": true,
          "internalType": "uint256",
          "name": "id",
          "type": "uint256"
        },
        {
          "indexed": false,
          "internalType": "string",
          "name": "name",
          "type": "string"
        }
      ],
      "name": "ConceptUpdated",
      "type": "event"
    },
    {
      "anonymous": false,
      "inputs": [
        {
          "indexed": true,
          "internalType": "uint256",
          "name": "id",
          "type": "uint256"
        },
        {
          "indexed": false,
          "internalType": "string",
          "name": "title",
          "type": "string"
        },
        {
          "indexed": false,
          "internalType": "string",
          "name": "impactLevel",
          "type": "string"
        }
      ],
      "name": "IncidentAdded",
      "type": "event"
    },
    {
      "anonymous": false,
      "inputs": [
        {
          "indexed": true,
          "internalType": "uint256",
          "name": "id",
          "type": "uint256"
        },
        {
          "indexed": false,
          "internalType": "string",
          "name": "title",
          "type": "string"
        }
      ],
      "name": "IncidentUpdated",
      "type": "event"
    },
    {
      "anonymous": false,
      "inputs": [
        {
          "indexed": true,
          "internalType": "address",
          "name": "previousOwner",
          "type": "address"
        },
        {
          "indexed": true,
          "internalType": "address",
          "name": "newOwner",
          "type": "address"
        }
      ],
      "name": "OwnershipTransferred",
      "type": "event"
    },
    {
      "anonymous": false,
      "inputs": [
        {
          "indexed": false,
          "internalType": "address",
          "name": "account",
          "type": "address"
        }
      ],
      "name": "Paused",
      "type": "event"
    },
    {
      "anonymous": false,
      "inputs": [
        {
          "indexed": true,
          "internalType": "uint256",
          "name": "id",
          "type": "uint256"
        },
        {
          "indexed": false,
          "internalType": "uint256",
          "name": "source",
          "type": "uint256"
        },
        {
          "indexed": false,
          "internalType": "uint256",
          "name": "target",
          "type": "uint256"
        },
        {
          "indexed": false,
          "internalType": "string",
          "name": "relationType",
          "type": "string"
        }
      ],
      "name": "RelationshipAdded",
      "type": "event"
    },
    {
      "anonymous": false,
      "inputs": [
        {
          "indexed": true,
          "internalType": "uint256",
          "name": "id",
          "type": "uint256"
        }
      ],
      "name": "RelationshipUpdated",
      "type": "event"
    },
    {
      "anonymous": false,
      "inputs": [
        {
          "indexed": false,
          "internalType": "address",
          "name": "account",
          "type": "address"
        }
      ],
      "name": "Unpaused",
      "type": "event"
    },
    {
      "anonymous": false,
      "inputs": [
        {
          "indexed": true,
          "internalType": "uint256",
          "name": "id",
          "type": "uint256"
        },
        {
          "indexed": false,
          "internalType": "string",
          "name": "name",
          "type": "string"
        },
        {
          "indexed": false,
          "internalType": "string",
          "name": "severity",
          "type": "string"
        }
      ],
      "name": "VulnerabilityAdded",
      "type": "event"
    },
    {
      "anonymous": false,
      "inputs": [
        {
          "indexed": true,
          "internalType": "uint256",
          "name": "id",
          "type": "uint256"
        },
        {
          "indexed": false,
          "internalType": "string",
          "name": "name",
          "type": "string"
        }
      ],
      "name": "VulnerabilityUpdated",
      "type": "event"
    },
    {
      "inputs": [
        {
          "internalType": "string",
          "name": "name",
          "type": "string"
        },
        {
          "internalType": "string",
          "name": "category",
          "type": "string"
        },
        {
          "internalType": "string",
          "name": "agentType",
          "type": "string"
        },
        {
          "internalType": "string",
          "name": "metadata",
          "type": "string"
        },
        {
          "internalType": "address",
          "name": "creatorWallet",
          "type": "address"
        },
        {
          "internalType": "uint256",
          "name": "transactionFee",
          "type": "uint256"
        }
      ],
      "name": "addAgent",
      "outputs": [
        {
          "internalType": "uint256",
          "name": "",
          "type": "uint256"
        }
      ],
      "stateMutability": "nonpayable",
      "type": "function"
    },
    {
      "inputs": [
        {
          "internalType": "string",
          "name": "name",
          "type": "string"
        },
        {
          "internalType": "string",
          "name": "conceptDescription",
          "type": "string"
        },
        {
          "internalType": "string[]",
          "name": "tags",
          "type": "string[]"
        },
        {
          "internalType": "string",
          "name": "metadata",
          "type": "string"
        }
      ],
      "name": "addConcept",
      "outputs": [
        {
          "internalType": "uint256",
          "name": "",
          "type": "uint256"
        }
      ],
      "stateMutability": "nonpayable",
      "type": "function"
    },
    {
      "inputs": [
        {
          "internalType": "uint256",
          "name": "source",
          "type": "uint256"
        },
        {
          "internalType": "uint256",
          "name": "target",
          "type": "uint256"
        },
        {
          "internalType": "string",
          "name": "relationType",
          "type": "string"
        },
        {
          "internalType": "uint256",
          "name": "weight",
          "type": "uint256"
        },
        {
          "internalType": "string",
          "name": "metadata",
          "type": "string"
        }
      ],
      "name": "addRelationship",
      "outputs": [
        {
          "internalType": "uint256",
          "name": "",
          "type": "uint256"
        }
      ],
      "stateMutability": "nonpayable",
      "type": "function"
    },
    {
      "inputs": [
        {
          "internalType": "string",
          "name": "title",
          "type": "string"
        },
        {
          "internalType": "string",
          "name": "description",
          "type": "string"
        },
        {
          "internalType": "uint256",
          "name": "date",
          "type": "uint256"
        },
        {
          "internalType": "string",
          "name": "impactLevel",
          "type": "string"
        },
        {
          "internalType": "uint256[]",
          "name": "relatedVulnerabilities",
          "type": "uint256[]"
        },
        {
          "internalType": "string",
          "name": "metadata",
          "type": "string"
        }
      ],
      "name": "addSecurityIncident",
      "outputs": [
        {
          "internalType": "uint256",
          "name": "",
          "type": "uint256"
        }
      ],
      "stateMutability": "nonpayable",
      "type": "function"
    },
    {
      "inputs": [
        {
          "internalType": "string",
          "name": "name",
          "type": "string"
        },
        {
          "internalType": "string",
          "name": "description",
          "type": "string"
        },
        {
          "internalType": "string",
          "name": "severity",
          "type": "string"
        },
        {
          "internalType": "string",
          "name": "cveId",
          "type": "string"
        },
        {
          "internalType": "uint256",
          "name": "discoveryDate",
          "type": "uint256"
        },
        {
          "internalType": "string",
          "name": "remediation",
          "type": "string"
        },
        {
          "internalType": "string",
          "name": "metadata",
          "type": "string"
        }
      ],
      "name": "addVulnerability",
      "outputs": [
        {
          "internalType": "uint256",
          "name": "",
          "type": "uint256"
        }
      ],
      "stateMutability": "nonpayable",
      "type": "function"
    },
    {
      "inputs": [],
      "name": "description",
      "outputs": [
        {
          "internalType": "string",
          "name": "",
          "type": "string"
        }
      ],
      "stateMutability": "view",
      "type": "function"
    },
    {
      "inputs": [],
      "name": "domain",
      "outputs": [
        {
          "internalType": "string",
          "name": "",
          "type": "string"
        }
      ],
      "stateMutability": "view",
      "type": "function"
    },
    {
      "inputs": [
        {
          "internalType": "uint256",
          "name": "agentId",
          "type": "uint256"
        }
      ],
      "name": "getAgent",
      "outputs": [
        {
          "internalType": "uint256",
          "name": "id",
          "type": "uint256"
        },
        {
          "internalType": "string",
          "name": "name",
          "type": "string"
        },
        {
          "internalType": "string",
          "name": "category",
          "type": "string"
        },
        {
          "internalType": "string",
          "name": "agentType",
          "type": "string"
        },
        {
          "internalType": "uint256",
          "name": "usageCount",
          "type": "uint256"
        },
        {
          "internalType": "uint256",
          "name": "successCount",
          "type": "uint256"
        },
        {
          "internalType": "string",
          "name": "metadata",
          "type": "string"
        },
        {
          "internalType": "address",
          "name": "creatorWallet",
          "type": "address"
        },
        {
          "internalType": "uint256",
          "name": "transactionFee",
          "type": "uint256"
        }
      ],
      "stateMutability": "view",
      "type": "function"
    },
    {
      "inputs": [],
      "name": "getAgentCount",
      "outputs": [
        {
          "internalType": "uint256",
          "name": "",
          "type": "uint256"
        }
      ],
      "stateMutability": "view",
      "type": "function"
    },
    {
      "inputs": [
        {
          "internalType": "string",
          "name": "name",
          "type": "string"
        }
      ],
      "name": "getAgentIdByName",
      "outputs": [
        {
          "internalType": "uint256",
          "name": "",
          "type": "uint256"
        }
      ],
      "stateMutability": "view",
      "type": "function"
    },
    {
      "inputs": [
        {
          "internalType": "uint256",
          "name": "conceptId",
          "type": "uint256"
        }
      ],
      "name": "getConcept",
      "outputs": [
        {
          "internalType": "uint256",
          "name": "id",
          "type": "uint256"
        },
        {
          "internalType": "string",
          "name": "name",
          "type": "string"
        },
        {
          "internalType": "string",
          "name": "description",
          "type": "string"
        },
        {
          "internalType": "string[]",
          "name": "tags",
          "type": "string[]"
        },
        {
          "internalType": "string",
          "name": "metadata",
          "type": "string"
        }
      ],
      "stateMutability": "view",
      "type": "function"
    },
    {
      "inputs": [],
      "name": "getConceptCount",
      "outputs": [
        {
          "internalType": "uint256",
          "name": "",
          "type": "uint256"
        }
      ],
      "stateMutability": "view",
      "type": "function"
    },
    {
      "inputs": [
        {
          "internalType": "string",
          "name": "name",
          "type": "string"
        }
      ],
      "name": "getConceptIdByName",
      "outputs": [
        {
          "internalType": "uint256",
          "name": "",
          "type": "uint256"
        }
      ],
      "stateMutability": "view",
      "type": "function"
    },
    {
      "inputs": [
        {
          "internalType": "uint256",
          "name": "conceptId",
          "type": "uint256"
        }
      ],
      "name": "getConceptTags",
      "outputs": [
        {
          "internalType": "string[]",
          "name": "",
          "type": "string[]"
        }
      ],
      "stateMutability": "view",
      "type": "function"
    },
    {
      "inputs": [],
      "name": "getIncidentCount",
      "outputs": [
        {
          "internalType": "uint256",
          "name": "",
          "type": "uint256"
        }
      ],
      "stateMutability": "view",
      "type": "function"
    },
    {
      "inputs": [
        {
          "internalType": "uint256",
          "name": "incidentId",
          "type": "uint256"
        }
      ],
      "name": "getIncidentRelatedVulnerabilities",
      "outputs": [
        {
          "internalType": "uint256[]",
          "name": "",
          "type": "uint256[]"
        }
      ],
      "stateMutability": "view",
      "type": "function"
    },
    {
      "inputs": [
        {
          "internalType": "uint256",
          "name": "relationshipId",
          "type": "uint256"
        }
      ],
      "name": "getRelationship",
      "outputs": [
        {
          "internalType": "uint256",
          "name": "id",
          "type": "uint256"
        },
        {
          "internalType": "uint256",
          "name": "source",
          "type": "uint256"
        },
        {
          "internalType": "uint256",
          "name": "target",
          "type": "uint256"
        },
        {
          "internalType": "string",
          "name": "relationType",
          "type": "string"
        },
        {
          "internalType": "uint256",
          "name": "weight",
          "type": "uint256"
        },
        {
          "internalType": "string",
          "name": "metadata",
          "type": "string"
        }
      ],
      "stateMutability": "view",
      "type": "function"
    },
    {
      "inputs": [],
      "name": "getRelationshipCount",
      "outputs": [
        {
          "internalType": "uint256",
          "name": "",
          "type": "uint256"
        }
      ],
      "stateMutability": "view",
      "type": "function"
    },
    {
      "inputs": [
        {
          "internalType": "uint256",
          "name": "incidentId",
          "type": "uint256"
        }
      ],
      "name": "getSecurityIncident",
      "outputs": [
        {
          "internalType": "uint256",
          "name": "id",
          "type": "uint256"
        },
        {
          "internalType": "string",
          "name": "title",
          "type": "string"
        },
        {
          "internalType": "string",
          "name": "description",
          "type": "string"
        },
        {
          "internalType": "uint256",
          "name": "date",
          "type": "uint256"
        },
        {
          "internalType": "string",
          "name": "impactLevel",
          "type": "string"
        },
        {
          "internalType": "uint256[]",
          "name": "relatedVulnerabilities",
          "type": "uint256[]"
        },
        {
          "internalType": "string",
          "name": "metadata",
          "type": "string"
        }
      ],
      "stateMutability": "view",
      "type": "function"
    },
    {
      "inputs": [
        {
          "internalType": "uint256",
          "name": "vulnerabilityId",
          "type": "uint256"
        }
      ],
      "name": "getVulnerability",
      "outputs": [
        {
          "internalType": "uint256",
          "name": "id",
          "type": "uint256"
        },
        {
          "internalType": "string",
          "name": "name",
          "type": "string"
        },
        {
          "internalType": "string",
          "name": "description",
          "type": "string"
        },
        {
          "internalType": "string",
          "name": "severity",
          "type": "string"
        },
        {
          "internalType": "string",
          "name": "cveId",
          "type": "string"
        },
        {
          "internalType": "uint256",
          "name": "discoveryDate",
          "type": "uint256"
        },
        {
          "internalType": "string",
          "name": "remediation",
          "type": "string"
        },
        {
          "internalType": "string",
          "name": "metadata",
          "type": "string"
        }
      ],
      "stateMutability": "view",
      "type": "function"
    },
    {
      "inputs": [],
      "name": "getVulnerabilityCount",
      "outputs": [
        {
          "internalType": "uint256",
          "name": "",
          "type": "uint256"
        }
      ],
      "stateMutability": "view",
      "type": "function"
    },
    {
      "inputs": [
        {
          "internalType": "string",
          "name": "cveId",
          "type": "string"
        }
      ],
      "name": "getVulnerabilityIdByCve",
      "outputs": [
        {
          "internalType": "uint256",
          "name": "",
          "type": "uint256"
        }
      ],
      "stateMutability": "view",
      "type": "function"
    },
    {
      "inputs": [
        {
          "internalType": "string",
          "name": "name",
          "type": "string"
        }
      ],
      "name": "getVulnerabilityIdByName",
      "outputs": [
        {
          "internalType": "uint256",
          "name": "",
          "type": "uint256"
        }
      ],
      "stateMutability": "view",
      "type": "function"
    },
    {
      "inputs": [],
      "name": "owner",
      "outputs": [
        {
          "internalType": "address",
          "name": "",
          "type": "address"
        }
      ],
      "stateMutability": "view",
      "type": "function"
    },
    {
      "inputs": [],
      "name": "pause",
      "outputs": [],
      "stateMutability": "nonpayable",
      "type": "function"
    },
    {
      "inputs": [],
      "name": "paused",
      "outputs": [
        {
          "internalType": "bool",
          "name": "",
          "type": "bool"
        }
      ],
      "stateMutability": "view",
      "type": "function"
    },
    {
      "inputs": [
        {
          "internalType": "uint256",
          "name": "agentId",
          "type": "uint256"
        },
        {
          "internalType": "bool",
          "name": "success",
          "type": "bool"
        }
      ],
      "name": "recordAgentUsage",
      "outputs": [],
      "stateMutability": "nonpayable",
      "type": "function"
    },
    {
      "inputs": [],
      "name": "renounceOwnership",
      "outputs": [],
      "stateMutability": "nonpayable",
      "type": "function"
    },
    {
      "inputs": [
        {
          "internalType": "address",
          "name": "newOwner",
          "type": "address"
        }
      ],
      "name": "transferOwnership",
      "outputs": [],
      "stateMutability": "nonpayable",
      "type": "function"
    },
    {
      "inputs": [],
      "name": "unpause",
      "outputs": [],
      "stateMutability": "nonpayable",
      "type": "function"
    },
    {
      "inputs": [
        {
          "internalType": "uint256",
          "name": "agentId",
          "type": "uint256"
        },
        {
          "internalType": "string",
          "name": "metadata",
          "type": "string"
        }
      ],
      "name": "updateAgentMetadata",
      "outputs": [],
      "stateMutability": "nonpayable",
      "type": "function"
    },
    {
      "inputs": [
        {
          "internalType": "uint256",
          "name": "conceptId",
          "type": "uint256"
        },
        {
          "internalType": "string",
          "name": "name",
          "type": "string"
        },
        {
          "internalType": "string",
          "name": "conceptDescription",
          "type": "string"
        },
        {
          "internalType": "string[]",
          "name": "tags",
          "type": "string[]"
        },
        {
          "internalType": "string",
          "name": "metadata",
          "type": "string"
        }
      ],
      "name": "updateConcept",
      "outputs": [],
      "stateMutability": "nonpayable",
      "type": "function"
    },
    {
      "inputs": [
        {
          "internalType": "uint256",
          "name": "incidentId",
          "type": "uint256"
        },
        {
          "internalType": "string",
          "name": "metadata",
          "type": "string"
        }
      ],
      "name": "updateIncidentMetadata",
      "outputs": [],
      "stateMutability": "nonpayable",
      "type": "function"
    },
    {
      "inputs": [
        {
          "internalType": "uint256",
          "name": "relationshipId",
          "type": "uint256"
        },
        {
          "internalType": "string",
          "name": "metadata",
          "type": "string"
        }
      ],
      "name": "updateRelationshipMetadata",
      "outputs": [],
      "stateMutability": "nonpayable",
      "type": "function"
    },
    {
      "inputs": [
        {
          "internalType": "uint256",
          "name": "relationshipId",
          "type": "uint256"
        },
        {
          "internalType": "uint256",
          "name": "weight",
          "type": "uint256"
        }
      ],
      "name": "updateRelationshipWeight",
      "outputs": [],
      "stateMutability": "nonpayable",
      "type": "function"
    },
    {
      "inputs": [
        {
          "internalType": "uint256",
          "name": "vulnerabilityId",
          "type": "uint256"
        },
        {
          "internalType": "string",
          "name": "metadata",
          "type": "string"
        }
      ],
      "name": "updateVulnerabilityMetadata",
      "outputs": [],
      "stateMutability": "nonpayable",
      "type": "function"
    },
    {
      "inputs": [
        {
          "internalType": "uint256",
          "name": "vulnerabilityId",
          "type": "uint256"
        },
        {
          "internalType": "string",
          "name": "remediation",
          "type": "string"
        }
      ],
      "name": "updateVulnerabilityRemediation",
      "outputs": [],
      "stateMutability": "nonpayable",
      "type": "function"
    }
  ],
  "bytecode": "0x60806040523480156200001157600080fd5b5060405162003ee538038062003ee5833981016040819052620000349162000143565b60408051808201909152600d81526c4379626572536563757269747960981b6020820152816200006433620000dd565b6000805460ff60a01b1916905560046200007f8382620002a7565b5060056200008e8282620002a7565b506200009e600180546001019055565b620000ad600280546001019055565b620000bc600380546001019055565b5050600b80546001019055620000d6600c80546001019055565b5062000373565b600080546001600160a01b038381166001600160a01b0319831681178455604051919092169283917f8be0079c531659141344cd1fd0a4f28419497f9722a3daafe3b4186f6b6457e09190a35050565b634e487b7160e01b600052604160045260246000fd5b600060208083850312156200015757600080fd5b82516001600160401b03808211156200016f57600080fd5b818501915085601f8301126200018457600080fd5b8151818111156200019957620001996200012d565b604051601f8201601f19908116603f01168101908382118183101715620001c457620001c46200012d565b816040528281528886848701011115620001dd57600080fd5b600093505b82841015620002015784840186015181850187015292850192620001e2565b600086848301015280965050505050505092915050565b600181811c908216806200022d57607f821691505b6020821081036200024e57634e487b7160e01b600052602260045260246000fd5b50919050565b601f821115620002a257600081815260208120601f850160051c810160208610156200027d5750805b601f850160051c820191505b818110156200029e5782815560010162000289565b5050505b505050565b81516001600160401b03811115620002c357620002c36200012d565b620002db81620002d4845462000218565b8462000254565b602080601f831160018114620003135760008415620002fa5750858301515b600019600386901b1c1916600185901b1785556200029e565b600085815260208120601f198616915b82811015620003445788860151825594840194600190910190840162000323565b5085821015620003635787850151600019600388901b60f8161c191681555b5050505050600190811b01905550565b613b6280620003836000396000f3fe608060405234801561001057600080fd5b50600436106102275760003560e01c80637f3f26af1161013057806395962692116100b8578063da76f8e61161007c578063da76f8e6146104d6578063e3eb7743146104de578063ed72e999146104f1578063ee256f6114610504578063f2fde38b1461051757600080fd5b8063959626921461048d5780639b386ffa14610495578063a9efa9cb146104a8578063c2fb26a6146104bb578063c62b079b146104c357600080fd5b80638a6ea4f6116100ff5780638a6ea4f6146104135780638b7f2483146104265780638da5cb5b1461044a57806391cab63e1461046557806394ba691b1461046d57600080fd5b80637f3f26af146103dd57806383821616146103f05780638456cb5914610403578063851c82501461040b57600080fd5b806347e62f2b116101b35780635c975abb116101825780635c975abb1461037d57806368cbcefb1461039a5780636cfa05f1146103ad578063715018a6146103c05780637284e416146103c857600080fd5b806347e62f2b1461032857806350db8da41461033057806351dd9ec414610343578063521d47e51461035657600080fd5b80632de5aaf7116101fa5780632de5aaf71461029e5780632f90a287146102c6578063322e41b5146102e657806337acc91f1461030b5780633f4ba83a1461031e57600080fd5b8063105203eb1461022c578063250f26d0146102525780632c9a1cf2146102785780632d5c15441461028b575b600080fd5b61023f61023a366004612da0565b61052a565b6040519081526020015b60405180910390f35b610265610260366004612e4c565b6106be565b6040516102499796959493929190612ef0565b61023f610286366004612f87565b610a23565b61023f61029936600461304c565b610c58565b6102b16102ac366004612e4c565b610cc4565b60405161024999989796959493929190613088565b6102d96102d4366004612e4c565b611034565b6040516102499190613162565b6102f96102f4366004612e4c565b61114f565b6040516102499695949392919061317c565b61023f61031936600461304c565b61133b565b6103266113af565b005b61023f6113c1565b61032661033e3660046131c6565b6113dd565b6103266103513660046131fb565b61147a565b610369610364366004612e4c565b61152b565b604051610249989796959493929190613241565b600054600160a01b900460ff166040519015158152602001610249565b61023f6103a836600461332f565b611970565b6103266103bb3660046131fb565b611b77565b610326611c06565b6103d0611c18565b6040516102499190613408565b6103266103eb36600461341b565b611ca6565b61023f6103fe36600461304c565b611e2b565b610326611e93565b61023f611ea3565b6103266104213660046131fb565b611eb0565b610439610434366004612e4c565b611f54565b6040516102499594939291906134d1565b6000546040516001600160a01b039091168152602001610249565b61023f612283565b61048061047b366004612e4c565b612290565b6040516102499190613524565b61023f61232a565b6103266104a3366004613537565b612337565b61023f6104b6366004613559565b6123ba565b6103d061268b565b61023f6104d136600461304c565b612698565b61023f6126ab565b61023f6104ec366004613658565b6126b8565b6103266104ff3660046131fb565b6127d5565b6103266105123660046131fb565b61287a565b6103266105253660046136be565b6128d8565b6000610534612951565b61053c6129ab565b600a8560405161054c91906136d9565b9081526020016040518091039020546000146105835760405162461bcd60e51b815260040161057a906136f5565b60405180910390fd5b600061058e60025490565b6040805160c08101825282815260208082018a81528284018a90526060830189905260808301889052600160a084018190526000868152600790935293909120825181559051939450909290918201906105e890826137bc565b50604082015160028201906105fd90826137bc565b5060608201518051610619916003840191602090910190612b30565b506080820151600482019061062e90826137bc565b5060a091909101516005909101805460ff19169115159190911790556040518190600a9061065d9089906136d9565b908152602001604051809103902081905550807f8192dd8726ce15ed826e6710fb69cf4c312432afdac621208089faefaf3416058760405161069f9190613408565b60405180910390a26106b5600280546001019055565b95945050505050565b6000818152600e602052604081206007015460609081908390829081908190889060ff166106fe5760405162461bcd60e51b815260040161057a9061387b565b6000600e60008b815260200190815260200160002060405180610100016040529081600082015481526020016001820180546107399061373a565b80601f01602080910402602001604051908101604052809291908181526020018280546107659061373a565b80156107b25780601f10610787576101008083540402835291602001916107b2565b820191906000526020600020905b81548152906001019060200180831161079557829003601f168201915b505050505081526020016002820180546107cb9061373a565b80601f01602080910402602001604051908101604052809291908181526020018280546107f79061373a565b80156108445780601f1061081957610100808354040283529160200191610844565b820191906000526020600020905b81548152906001019060200180831161082757829003601f168201915b50505050508152602001600382015481526020016004820180546108679061373a565b80601f01602080910402602001604051908101604052809291908181526020018280546108939061373a565b80156108e05780601f106108b5576101008083540402835291602001916108e0565b820191906000526020600020905b8154815290600101906020018083116108c357829003601f168201915b505050505081526020016005820180548060200260200160405190810160405280929190818152602001828054801561093857602002820191906000526020600020905b815481526020019060010190808311610924575b505050505081526020016006820180546109519061373a565b80601f016020809104026020016040519081016040528092919081815260200182805461097d9061373a565b80156109ca5780601f1061099f576101008083540402835291602001916109ca565b820191906000526020600020905b8154815290600101906020018083116109ad57829003601f168201915b50505091835250506007919091015460ff16151560209182015281519082015160408301516060840151608085015160a086015160c090960151949e50929c50909a509850965090945092505050919395979092949650565b6000610a2d612951565b610a356129ab565b600987604051610a4591906136d9565b908152602001604051809103902054600014610aaf5760405162461bcd60e51b815260206004820152602360248201527f4167656e7420776974682074686973206e616d6520616c72656164792065786960448201526273747360e81b606482015260840161057a565b6000610aba60015490565b90506040518061014001604052808281526020018981526020018881526020018781526020016000815260200160008152602001868152602001856001600160a01b031681526020018481526020016001151581525060066000838152602001908152602001600020600082015181600001556020820151816001019081610b4291906137bc565b5060408201516002820190610b5790826137bc565b5060608201516003820190610b6c90826137bc565b506080820151600482015560a0820151600582015560c08201516006820190610b9590826137bc565b5060e08201516007820180546001600160a01b0319166001600160a01b039092169190911790556101008201516008820155610120909101516009918201805460ff1916911515919091179055604051829190610bf3908b906136d9565b908152602001604051809103902081905550807f1905603be3d1c5a2793c4c68121204e9e7849a9d9a7d0a0a988f7177bb5e7f5f8988604051610c379291906138b0565b60405180910390a2610c4d600180546001019055565b979650505050505050565b600080600983604051610c6b91906136d9565b908152602001604051809103902054905080600003610cbe5760405162461bcd60e51b815260206004820152600f60248201526e1059d95b9d081b9bdd08199bdd5b99608a1b604482015260640161057a565b92915050565b60008181526006602052604081206009015460609081908190849081908390829081908a9060ff16610d085760405162461bcd60e51b815260040161057a906138d5565b6000600660008d81526020019081526020016000206040518061014001604052908160008201548152602001600182018054610d439061373a565b80601f0160208091040260200160405190810160405280929190818152602001828054610d6f9061373a565b8015610dbc5780601f10610d9157610100808354040283529160200191610dbc565b820191906000526020600020905b815481529060010190602001808311610d9f57829003601f168201915b50505050508152602001600282018054610dd59061373a565b80601f0160208091040260200160405190810160405280929190818152602001828054610e019061373a565b8015610e4e5780601f10610e2357610100808354040283529160200191610e4e565b820191906000526020600020905b815481529060010190602001808311610e3157829003601f168201915b50505050508152602001600382018054610e679061373a565b80601f0160208091040260200160405190810160405280929190818152602001828054610e939061373a565b8015610ee05780601f10610eb557610100808354040283529160200191610ee0565b820191906000526020600020905b815481529060010190602001808311610ec357829003601f168201915b505050505081526020016004820154815260200160058201548152602001600682018054610f0d9061373a565b80601f0160208091040260200160405190810160405280929190818152602001828054610f399061373a565b8015610f865780601f10610f5b57610100808354040283529160200191610f86565b820191906000526020600020905b815481529060010190602001808311610f6957829003601f168201915b505050505081526020016007820160009054906101000a90046001600160a01b03166001600160a01b03166001600160a01b03168152602001600882015481526020016009820160009054906101000a900460ff1615151515815250509050806000015181602001518260400151836060015184608001518560a001518660c001518760e001518861010001519a509a509a509a509a509a509a509a509a5050509193959799909294969850565b600081815260076020526040902060050154606090829060ff1661106a5760405162461bcd60e51b815260040161057a90613903565b600083815260076020908152604080832060030180548251818502810185019093528083529193909284015b828210156111425783829060005260206000200180546110b59061373a565b80601f01602080910402602001604051908101604052809291908181526020018280546110e19061373a565b801561112e5780601f106111035761010080835404028352916020019161112e565b820191906000526020600020905b81548152906001019060200180831161111157829003601f168201915b505050505081526020019060010190611096565b5050505091505b50919050565b6000818152600860205260408120600601548190819060609082908290879060ff1661118d5760405162461bcd60e51b815260040161057a90613933565b6000600860008a81526020019081526020016000206040518060e00160405290816000820154815260200160018201548152602001600282015481526020016003820180546111db9061373a565b80601f01602080910402602001604051908101604052809291908181526020018280546112079061373a565b80156112545780601f1061122957610100808354040283529160200191611254565b820191906000526020600020905b81548152906001019060200180831161123757829003601f168201915b50505050508152602001600482015481526020016005820180546112779061373a565b80601f01602080910402602001604051908101604052809291908181526020018280546112a39061373a565b80156112f05780601f106112c5576101008083540402835291602001916112f0565b820191906000526020600020905b8154815290600101906020018083116112d357829003601f168201915b50505091835250506006919091015460ff16151560209182015281519082015160408301516060840151608085015160a090950151939e929d50909b50995091975095509350505050565b60008060108360405161134e91906136d9565b908152602001604051809103902054905080600003610cbe5760405162461bcd60e51b815260206004820152601760248201527f56756c6e65726162696c697479206e6f7420666f756e64000000000000000000604482015260640161057a565b6113b7612951565b6113bf6129f8565b565b600060016113ce600b5490565b6113d89190613980565b905090565b6113e5612951565b6113ed6129ab565b600082815260066020526040902060090154829060ff166114205760405162461bcd60e51b815260040161057a906138d5565b6000838152600660205260408120600401805460019290611442908490613993565b9091555050811561147557600083815260066020526040812060050180546001929061146f908490613993565b90915550505b505050565b611482612951565b61148a6129ab565b6000828152600e6020526040902060070154829060ff166114bd5760405162461bcd60e51b815260040161057a9061387b565b6000838152600e602052604090206006016114d883826137bc565b50827f0ad035f53fb59354fdf72a168e68b06736726e9c5bba724a16d821a703a0368a600e600086815260200190815260200160002060010160405161151e91906139a6565b60405180910390a2505050565b6000818152600d6020526040812060080154606090819081908190859082908190899060ff1661156d5760405162461bcd60e51b815260040161057a90613a31565b6000600d60008c815260200190815260200160002060405180610120016040529081600082015481526020016001820180546115a89061373a565b80601f01602080910402602001604051908101604052809291908181526020018280546115d49061373a565b80156116215780601f106115f657610100808354040283529160200191611621565b820191906000526020600020905b81548152906001019060200180831161160457829003601f168201915b5050505050815260200160028201805461163a9061373a565b80601f01602080910402602001604051908101604052809291908181526020018280546116669061373a565b80156116b35780601f10611688576101008083540402835291602001916116b3565b820191906000526020600020905b81548152906001019060200180831161169657829003601f168201915b505050505081526020016003820180546116cc9061373a565b80601f01602080910402602001604051908101604052809291908181526020018280546116f89061373a565b80156117455780601f1061171a57610100808354040283529160200191611745565b820191906000526020600020905b81548152906001019060200180831161172857829003601f168201915b5050505050815260200160048201805461175e9061373a565b80601f016020809104026020016040519081016040528092919081815260200182805461178a9061373a565b80156117d75780601f106117ac576101008083540402835291602001916117d7565b820191906000526020600020905b8154815290600101906020018083116117ba57829003601f168201915b50505050508152602001600582015481526020016006820180546117fa9061373a565b80601f01602080910402602001604051908101604052809291908181526020018280546118269061373a565b80156118735780601f1061184857610100808354040283529160200191611873565b820191906000526020600020905b81548152906001019060200180831161185657829003601f168201915b5050505050815260200160078201805461188c9061373a565b80601f01602080910402602001604051908101604052809291908181526020018280546118b89061373a565b80156119055780601f106118da57610100808354040283529160200191611905565b820191906000526020600020905b8154815290600101906020018083116118e857829003601f168201915b505050505081526020016008820160009054906101000a900460ff1615151515815250509050806000015181602001518260400151836060015184608001518560a001518660c001518760e00151995099509950995099509950995099505050919395975091939597565b600061197a612951565b6119826129ab565b600061198d600c5490565b905060005b8451811015611a3c57600d60008683815181106119b1576119b1613a68565b60209081029190910181015182528101919091526040016000206008015460ff16611a2a5760405162461bcd60e51b8152602060048201526024808201527f52656c617465642076756c6e65726162696c69747920646f6573206e6f7420656044820152631e1a5cdd60e21b606482015260840161057a565b80611a3481613a7e565b915050611992565b5060405180610100016040528082815260200189815260200188815260200187815260200186815260200185815260200184815260200160011515815250600e6000838152602001908152602001600020600082015181600001556020820151816001019081611aac91906137bc565b5060408201516002820190611ac190826137bc565b506060820151600382015560808201516004820190611ae090826137bc565b5060a08201518051611afc916005840191602090910190612b86565b5060c08201516006820190611b1190826137bc565b5060e091909101516007909101805460ff191691151591909117905560405181907fd6dc01c69dc422719db2d0465cf516af3278d08ca69af476e087994c0e30c2c090611b61908b9089906138b0565b60405180910390a2610c4d600c80546001019055565b611b7f612951565b611b876129ab565b600082815260086020526040902060060154829060ff16611bba5760405162461bcd60e51b815260040161057a90613933565b6000838152600860205260409020600501611bd583826137bc565b5060405183907fbdd41a4bc7e629ea27b37486874394ab751fa1e56bd30e0aaa87fa5cae46e68f90600090a2505050565b611c0e612951565b6113bf6000612a4d565b60058054611c259061373a565b80601f0160208091040260200160405190810160405280929190818152602001828054611c519061373a565b8015611c9e5780601f10611c7357610100808354040283529160200191611c9e565b820191906000526020600020905b815481529060010190602001808311611c8157829003601f168201915b505050505081565b611cae612951565b611cb66129ab565b600085815260076020526040902060050154859060ff16611ce95760405162461bcd60e51b815260040161057a90613903565b600a85604051611cf991906136d9565b90815260200160405180910390205460001480611d33575085600a86604051611d2291906136d9565b908152602001604051809103902054145b611d4f5760405162461bcd60e51b815260040161057a906136f5565b6000868152600760205260408082209051909190600a90611d74906001850190613a97565b9081526040519081900360200190205560018101611d9287826137bc565b5060028101611da186826137bc565b508351611db79060038301906020870190612b30565b5060048101611dc684826137bc565b5086600a87604051611dd891906136d9565b908152602001604051809103902081905550867f197a60c3198aee82cf7936c79248a7c6ba21e2ec319b274aed0a4cce0a3c0ce987604051611e1a9190613408565b60405180910390a250505050505050565b600080600a83604051611e3e91906136d9565b908152602001604051809103902054905080600003610cbe5760405162461bcd60e51b815260206004820152601160248201527010dbdb98d95c1d081b9bdd08199bdd5b99607a1b604482015260640161057a565b611e9b612951565b6113bf612a9d565b600060016113ce60035490565b611eb8612951565b611ec06129ab565b6000828152600d6020526040902060080154829060ff16611ef35760405162461bcd60e51b815260040161057a90613a31565b6000838152600d60205260409020600701611f0e83826137bc565b50827fa57404e733ac94c5d9e8523287654332c2eaa6eeaac48c80c53a058d3ec3f67b600d600086815260200190815260200160002060010160405161151e91906139a6565b600081815260076020526040812060050154606090819081908190869060ff16611f905760405162461bcd60e51b815260040161057a90613903565b6000600760008981526020019081526020016000206040518060c001604052908160008201548152602001600182018054611fca9061373a565b80601f0160208091040260200160405190810160405280929190818152602001828054611ff69061373a565b80156120435780601f1061201857610100808354040283529160200191612043565b820191906000526020600020905b81548152906001019060200180831161202657829003601f168201915b5050505050815260200160028201805461205c9061373a565b80601f01602080910402602001604051908101604052809291908181526020018280546120889061373a565b80156120d55780601f106120aa576101008083540402835291602001916120d5565b820191906000526020600020905b8154815290600101906020018083116120b857829003601f168201915b5050505050815260200160038201805480602002602001604051908101604052809291908181526020016000905b828210156121af5783829060005260206000200180546121229061373a565b80601f016020809104026020016040519081016040528092919081815260200182805461214e9061373a565b801561219b5780601f106121705761010080835404028352916020019161219b565b820191906000526020600020905b81548152906001019060200180831161217e57829003601f168201915b505050505081526020019060010190612103565b5050505081526020016004820180546121c79061373a565b80601f01602080910402602001604051908101604052809291908181526020018280546121f39061373a565b80156122405780601f1061221557610100808354040283529160200191612240565b820191906000526020600020905b81548152906001019060200180831161222357829003601f168201915b50505091835250506005919091015460ff16151560209182015281519082015160408301516060840151608090940151929c919b50995091975095509350505050565b600060016113ce60015490565b6000818152600e6020526040902060070154606090829060ff166122c65760405162461bcd60e51b815260040161057a9061387b565b6000838152600e60209081526040918290206005018054835181840281018401909452808452909183018282801561231d57602002820191906000526020600020905b815481526020019060010190808311612309575b5050505050915050919050565b600060016113ce600c5490565b61233f612951565b6123476129ab565b600082815260086020526040902060060154829060ff1661237a5760405162461bcd60e51b815260040161057a90613933565b6000838152600860205260408082206004018490555184917fbdd41a4bc7e629ea27b37486874394ab751fa1e56bd30e0aaa87fa5cae46e68f91a2505050565b60006123c4612951565b6123cc6129ab565b600f886040516123dc91906136d9565b90815260200160405180910390205460001461244e5760405162461bcd60e51b815260206004820152602b60248201527f56756c6e65726162696c69747920776974682074686973206e616d6520616c7260448201526a656164792065786973747360a81b606482015260840161057a565b8451156124d95760108560405161246591906136d9565b9081526020016040518091039020546000146124d95760405162461bcd60e51b815260206004820152602d60248201527f56756c6e65726162696c6974792077697468207468697320435645204944206160448201526c6c72656164792065786973747360981b606482015260840161057a565b60006124e4600b5490565b90506040518061012001604052808281526020018a815260200189815260200188815260200187815260200186815260200185815260200184815260200160011515815250600d600083815260200190815260200160002060008201518160000155602082015181600101908161255b91906137bc565b506040820151600282019061257090826137bc565b506060820151600382019061258590826137bc565b506080820151600482019061259a90826137bc565b5060a0820151600582015560c082015160068201906125b990826137bc565b5060e082015160078201906125ce90826137bc565b5061010091909101516008909101805460ff19169115159190911790556040518190600f906125fe908c906136d9565b90815260405190819003602001902055855115612637578060108760405161262691906136d9565b908152604051908190036020019020555b807fabf4607348fe3aa63809621f205b444d60288112988aa57cbcda3933eb938f958a896040516126699291906138b0565b60405180910390a261267f600b80546001019055565b98975050505050505050565b60048054611c259061373a565b600080600f8360405161134e91906136d9565b600060016113ce60025490565b60006126c2612951565b6126ca6129ab565b60006126d560035490565b6040805160e08101825282815260208082018b81528284018b8152606084018b8152608085018b905260a085018a9052600160c08601819052600088815260089095529590932084518155915194820194909455925160028401555192935091600382019061274490826137bc565b506080820151600482015560a0820151600582019061276390826137bc565b5060c091909101516006909101805460ff191691151591909117905560405181907fb4d3ad7b31086d37c555aa4811459ae61647558d8d61c79b622355541112b3ba906127b5908a908a908a90613b0d565b60405180910390a26127cb600380546001019055565b9695505050505050565b6127dd612951565b6127e56129ab565b600082815260066020526040902060090154829060ff166128185760405162461bcd60e51b815260040161057a906138d5565b60008381526006602081905260409091200161283483826137bc565b50827ff0677ec077e6eec8e31d4e8be0cb20b797f3a9dc243e2ddc641532c0ff4120366006600086815260200190815260200160002060010160405161151e91906139a6565b612882612951565b61288a6129ab565b6000828152600d6020526040902060080154829060ff166128bd5760405162461bcd60e51b815260040161057a90613a31565b6000838152600d60205260409020600601611f0e83826137bc565b6128e0612951565b6001600160a01b0381166129455760405162461bcd60e51b815260206004820152602660248201527f4f776e61626c653a206e6577206f776e657220697320746865207a65726f206160448201526564647265737360d01b606482015260840161057a565b61294e81612a4d565b50565b6000546001600160a01b031633146113bf5760405162461bcd60e51b815260206004820181905260248201527f4f776e61626c653a2063616c6c6572206973206e6f7420746865206f776e6572604482015260640161057a565b600054600160a01b900460ff16156113bf5760405162461bcd60e51b815260206004820152601060248201526f14185d5cd8589b194e881c185d5cd95960821b604482015260640161057a565b612a00612ae0565b6000805460ff60a01b191690557f5db9ee0a495bf2e6ff9c91a7834c1ba4fdd244a5e8aa4e537bd38aeae4b073aa335b6040516001600160a01b03909116815260200160405180910390a1565b600080546001600160a01b038381166001600160a01b0319831681178455604051919092169283917f8be0079c531659141344cd1fd0a4f28419497f9722a3daafe3b4186f6b6457e09190a35050565b612aa56129ab565b6000805460ff60a01b1916600160a01b1790557f62e78cea01bee320cd4e420270b5ea74000d11b0c9f74754ebdbfc544b05a258612a303390565b600054600160a01b900460ff166113bf5760405162461bcd60e51b815260206004820152601460248201527314185d5cd8589b194e881b9bdd081c185d5cd95960621b604482015260640161057a565b828054828255906000526020600020908101928215612b76579160200282015b82811115612b765782518290612b6690826137bc565b5091602001919060010190612b50565b50612b82929150612bcd565b5090565b828054828255906000526020600020908101928215612bc1579160200282015b82811115612bc1578251825591602001919060010190612ba6565b50612b82929150612bea565b80821115612b82576000612be18282612bff565b50600101612bcd565b5b80821115612b825760008155600101612beb565b508054612c0b9061373a565b6000825580601f10612c1b575050565b601f01602090049060005260206000209081019061294e9190612bea565b634e487b7160e01b600052604160045260246000fd5b604051601f8201601f191681016001600160401b0381118282101715612c7757612c77612c39565b604052919050565b600082601f830112612c9057600080fd5b81356001600160401b03811115612ca957612ca9612c39565b612cbc601f8201601f1916602001612c4f565b818152846020838601011115612cd157600080fd5b816020850160208301376000918101602001919091529392505050565b60006001600160401b03821115612d0757612d07612c39565b5060051b60200190565b600082601f830112612d2257600080fd5b81356020612d37612d3283612cee565b612c4f565b82815260059290921b84018101918181019086841115612d5657600080fd5b8286015b84811015612d955780356001600160401b03811115612d795760008081fd5b612d878986838b0101612c7f565b845250918301918301612d5a565b509695505050505050565b60008060008060808587031215612db657600080fd5b84356001600160401b0380821115612dcd57600080fd5b612dd988838901612c7f565b95506020870135915080821115612def57600080fd5b612dfb88838901612c7f565b94506040870135915080821115612e1157600080fd5b612e1d88838901612d11565b93506060870135915080821115612e3357600080fd5b50612e4087828801612c7f565b91505092959194509250565b600060208284031215612e5e57600080fd5b5035919050565b60005b83811015612e80578181015183820152602001612e68565b50506000910152565b60008151808452612ea1816020860160208601612e65565b601f01601f19169290920160200192915050565b600081518084526020808501945080840160005b83811015612ee557815187529582019590820190600101612ec9565b509495945050505050565b87815260e060208201526000612f0960e0830189612e89565b8281036040840152612f1b8189612e89565b90508660608401528281036080840152612f358187612e89565b905082810360a0840152612f498186612eb5565b905082810360c0840152612f5d8185612e89565b9a9950505050505050505050565b80356001600160a01b0381168114612f8257600080fd5b919050565b60008060008060008060c08789031215612fa057600080fd5b86356001600160401b0380821115612fb757600080fd5b612fc38a838b01612c7f565b97506020890135915080821115612fd957600080fd5b612fe58a838b01612c7f565b96506040890135915080821115612ffb57600080fd5b6130078a838b01612c7f565b9550606089013591508082111561301d57600080fd5b5061302a89828a01612c7f565b93505061303960808801612f6b565b915060a087013590509295509295509295565b60006020828403121561305e57600080fd5b81356001600160401b0381111561307457600080fd5b61308084828501612c7f565b949350505050565b60006101208b83528060208401526130a28184018c612e89565b905082810360408401526130b6818b612e89565b905082810360608401526130ca818a612e89565b90508760808401528660a084015282810360c08401526130ea8187612e89565b6001600160a01b039590951660e084015250506101000152979650505050505050565b600081518084526020808501808196508360051b8101915082860160005b85811015613155578284038952613143848351612e89565b9885019893509084019060010161312b565b5091979650505050505050565b602081526000613175602083018461310d565b9392505050565b86815285602082015284604082015260c0606082015260006131a160c0830186612e89565b84608084015282810360a08401526131b98185612e89565b9998505050505050505050565b600080604083850312156131d957600080fd5b82359150602083013580151581146131f057600080fd5b809150509250929050565b6000806040838503121561320e57600080fd5b8235915060208301356001600160401b0381111561322b57600080fd5b61323785828601612c7f565b9150509250929050565b60006101008a835280602084015261325b8184018b612e89565b9050828103604084015261326f818a612e89565b905082810360608401526132838189612e89565b905082810360808401526132978188612e89565b90508560a084015282810360c08401526132b18186612e89565b905082810360e08401526132c58185612e89565b9b9a5050505050505050505050565b600082601f8301126132e557600080fd5b813560206132f5612d3283612cee565b82815260059290921b8401810191818101908684111561331457600080fd5b8286015b84811015612d955780358352918301918301613318565b60008060008060008060c0878903121561334857600080fd5b86356001600160401b038082111561335f57600080fd5b61336b8a838b01612c7f565b9750602089013591508082111561338157600080fd5b61338d8a838b01612c7f565b96506040890135955060608901359150808211156133aa57600080fd5b6133b68a838b01612c7f565b945060808901359150808211156133cc57600080fd5b6133d88a838b016132d4565b935060a08901359150808211156133ee57600080fd5b506133fb89828a01612c7f565b9150509295509295509295565b6020815260006131756020830184612e89565b600080600080600060a0868803121561343357600080fd5b8535945060208601356001600160401b038082111561345157600080fd5b61345d89838a01612c7f565b9550604088013591508082111561347357600080fd5b61347f89838a01612c7f565b9450606088013591508082111561349557600080fd5b6134a189838a01612d11565b935060808801359150808211156134b757600080fd5b506134c488828901612c7f565b9150509295509295909350565b85815260a0602082015260006134ea60a0830187612e89565b82810360408401526134fc8187612e89565b90508281036060840152613510818661310d565b9050828103608084015261267f8185612e89565b6020815260006131756020830184612eb5565b6000806040838503121561354a57600080fd5b50508035926020909101359150565b600080600080600080600060e0888a03121561357457600080fd5b87356001600160401b038082111561358b57600080fd5b6135978b838c01612c7f565b985060208a01359150808211156135ad57600080fd5b6135b98b838c01612c7f565b975060408a01359150808211156135cf57600080fd5b6135db8b838c01612c7f565b965060608a01359150808211156135f157600080fd5b6135fd8b838c01612c7f565b955060808a0135945060a08a013591508082111561361a57600080fd5b6136268b838c01612c7f565b935060c08a013591508082111561363c57600080fd5b506136498a828b01612c7f565b91505092959891949750929550565b600080600080600060a0868803121561367057600080fd5b853594506020860135935060408601356001600160401b038082111561369557600080fd5b6136a189838a01612c7f565b94506060880135935060808801359150808211156134b757600080fd5b6000602082840312156136d057600080fd5b61317582612f6b565b600082516136eb818460208701612e65565b9190910192915050565b60208082526025908201527f436f6e6365707420776974682074686973206e616d6520616c72656164792065604082015264786973747360d81b606082015260800190565b600181811c9082168061374e57607f821691505b60208210810361114957634e487b7160e01b600052602260045260246000fd5b601f82111561147557600081815260208120601f850160051c810160208610156137955750805b601f850160051c820191505b818110156137b4578281556001016137a1565b505050505050565b81516001600160401b038111156137d5576137d5612c39565b6137e9816137e3845461373a565b8461376e565b602080601f83116001811461381e57600084156138065750858301515b600019600386901b1c1916600185901b1785556137b4565b600085815260208120601f198616915b8281101561384d5788860151825594840194600190910190840161382e565b508582101561386b5787850151600019600388901b60f8161c191681555b5050505050600190811b01905550565b6020808252818101527f536563757269747920696e636964656e7420646f6573206e6f74206578697374604082015260600190565b6040815260006138c36040830185612e89565b82810360208401526106b58185612e89565b6020808252601490820152731059d95b9d08191bd95cc81b9bdd08195e1a5cdd60621b604082015260600190565b60208082526016908201527510dbdb98d95c1d08191bd95cc81b9bdd08195e1a5cdd60521b604082015260600190565b6020808252601b908201527f52656c6174696f6e7368697020646f6573206e6f742065786973740000000000604082015260600190565b634e487b7160e01b600052601160045260246000fd5b81810381811115610cbe57610cbe61396a565b80820180821115610cbe57610cbe61396a565b60006020808352600084546139ba8161373a565b808487015260406001808416600081146139db57600181146139f557613a23565b60ff1985168984015283151560051b890183019550613a23565b896000528660002060005b85811015613a1b5781548b8201860152908301908801613a00565b8a0184019650505b509398975050505050505050565b6020808252601c908201527f56756c6e65726162696c69747920646f6573206e6f7420657869737400000000604082015260600190565b634e487b7160e01b600052603260045260246000fd5b600060018201613a9057613a9061396a565b5060010190565b6000808354613aa58161373a565b60018281168015613abd5760018114613ad257613b01565b60ff1984168752821515830287019450613b01565b8760005260208060002060005b85811015613af85781548a820152908401908201613adf565b50505082870194505b50929695505050505050565b8381528260208201526060604082015260006106b56060830184612e8956fea2646970667358221220816d7fc8f1e40a2b16972d808ec639c53aed70f0bd1e9445029673e8aa64f3a564736f6c63430008140033",
  "linkReferences": {},
  "deployedLinkReferences": {}
}