{
  "_format": "hh-sol-artifact-1",
  "contractName": "EthicsKG",
  "sourceName": "src/contracts/EthicsKG.sol",
  "abi": [
    {
      "inputs": [],
      "stateMutability": "nonpayable",
      "type": "constructor"
    },
    {
      "anonymous": false,
      "inputs": [
        {
          "indexed": true,
          "internalType": "uint256",
          "name": "id",
          "type": "uint256"
        },
        {
          "indexed": false,
          "internalType": "string",
          "name": "name",
          "type": "string"
        },
        {
          "indexed": false,
          "internalType": "string",
          "name": "agentType",
          "type": "string"
        }
      ],
      "name": "AgentAdded",
      "type": "event"
    },
    {
      "anonymous": false,
      "inputs": [
        {
          "indexed": true,
          "internalType": "uint256",
          "name": "id",
          "type": "uint256"
        },
        {
          "indexed": false,
          "internalType": "string",
          "name": "status",
          "type": "string"
        },
        {
          "indexed": false,
          "internalType": "uint256",
          "name": "ethicalScore",
          "type": "uint256"
        }
      ],
      "name": "AgentStatusUpdated",
      "type": "event"
    },
    {
      "anonymous": false,
      "inputs": [
        {
          "indexed": true,
          "internalType": "address",
          "name": "previousOwner",
          "type": "address"
        },
        {
          "indexed": true,
          "internalType": "address",
          "name": "newOwner",
          "type": "address"
        }
      ],
      "name": "OwnershipTransferred",
      "type": "event"
    },
    {
      "anonymous": false,
      "inputs": [
        {
          "indexed": false,
          "internalType": "address",
          "name": "account",
          "type": "address"
        }
      ],
      "name": "Paused",
      "type": "event"
    },
    {
      "anonymous": false,
      "inputs": [
        {
          "indexed": true,
          "internalType": "uint256",
          "name": "id",
          "type": "uint256"
        },
        {
          "indexed": false,
          "internalType": "string",
          "name": "name",
          "type": "string"
        },
        {
          "indexed": false,
          "internalType": "uint256",
          "name": "weight",
          "type": "uint256"
        }
      ],
      "name": "PrincipleAdded",
      "type": "event"
    },
    {
      "anonymous": false,
      "inputs": [
        {
          "indexed": true,
          "internalType": "uint256",
          "name": "id",
          "type": "uint256"
        },
        {
          "indexed": false,
          "internalType": "uint256",
          "name": "source",
          "type": "uint256"
        },
        {
          "indexed": false,
          "internalType": "uint256",
          "name": "target",
          "type": "uint256"
        },
        {
          "indexed": false,
          "internalType": "string",
          "name": "relationType",
          "type": "string"
        }
      ],
      "name": "RelationshipAdded",
      "type": "event"
    },
    {
      "anonymous": false,
      "inputs": [
        {
          "indexed": false,
          "internalType": "address",
          "name": "account",
          "type": "address"
        }
      ],
      "name": "Unpaused",
      "type": "event"
    },
    {
      "inputs": [
        {
          "internalType": "string",
          "name": "name",
          "type": "string"
        },
        {
          "internalType": "string",
          "name": "agentType",
          "type": "string"
        },
        {
          "internalType": "string",
          "name": "metadata",
          "type": "string"
        }
      ],
      "name": "addAgent",
      "outputs": [
        {
          "internalType": "uint256",
          "name": "",
          "type": "uint256"
        }
      ],
      "stateMutability": "nonpayable",
      "type": "function"
    },
    {
      "inputs": [
        {
          "internalType": "string",
          "name": "name",
          "type": "string"
        },
        {
          "internalType": "string",
          "name": "description",
          "type": "string"
        },
        {
          "internalType": "uint256",
          "name": "weight",
          "type": "uint256"
        },
        {
          "internalType": "string",
          "name": "metadata",
          "type": "string"
        }
      ],
      "name": "addPrinciple",
      "outputs": [
        {
          "internalType": "uint256",
          "name": "",
          "type": "uint256"
        }
      ],
      "stateMutability": "nonpayable",
      "type": "function"
    },
    {
      "inputs": [
        {
          "internalType": "uint256",
          "name": "source",
          "type": "uint256"
        },
        {
          "internalType": "uint256",
          "name": "target",
          "type": "uint256"
        },
        {
          "internalType": "string",
          "name": "relationType",
          "type": "string"
        },
        {
          "internalType": "uint256",
          "name": "strength",
          "type": "uint256"
        },
        {
          "internalType": "string",
          "name": "metadata",
          "type": "string"
        }
      ],
      "name": "addRelationship",
      "outputs": [
        {
          "internalType": "uint256",
          "name": "",
          "type": "uint256"
        }
      ],
      "stateMutability": "nonpayable",
      "type": "function"
    },
    {
      "inputs": [
        {
          "internalType": "uint256",
          "name": "agentId",
          "type": "uint256"
        }
      ],
      "name": "evaluateAgent",
      "outputs": [
        {
          "internalType": "uint256",
          "name": "score",
          "type": "uint256"
        },
        {
          "internalType": "string",
          "name": "status",
          "type": "string"
        },
        {
          "internalType": "string",
          "name": "details",
          "type": "string"
        }
      ],
      "stateMutability": "view",
      "type": "function"
    },
    {
      "inputs": [
        {
          "internalType": "uint256",
          "name": "agentId",
          "type": "uint256"
        }
      ],
      "name": "getAgent",
      "outputs": [
        {
          "internalType": "uint256",
          "name": "id",
          "type": "uint256"
        },
        {
          "internalType": "string",
          "name": "name",
          "type": "string"
        },
        {
          "internalType": "string",
          "name": "agentType",
          "type": "string"
        },
        {
          "internalType": "string",
          "name": "status",
          "type": "string"
        },
        {
          "internalType": "uint256",
          "name": "ethicalScore",
          "type": "uint256"
        },
        {
          "internalType": "string",
          "name": "metadata",
          "type": "string"
        }
      ],
      "stateMutability": "view",
      "type": "function"
    },
    {
      "inputs": [],
      "name": "getAgentCount",
      "outputs": [
        {
          "internalType": "uint256",
          "name": "",
          "type": "uint256"
        }
      ],
      "stateMutability": "view",
      "type": "function"
    },
    {
      "inputs": [
        {
          "internalType": "uint256",
          "name": "principleId",
          "type": "uint256"
        }
      ],
      "name": "getPrinciple",
      "outputs": [
        {
          "internalType": "uint256",
          "name": "id",
          "type": "uint256"
        },
        {
          "internalType": "string",
          "name": "name",
          "type": "string"
        },
        {
          "internalType": "string",
          "name": "description",
          "type": "string"
        },
        {
          "internalType": "uint256",
          "name": "weight",
          "type": "uint256"
        },
        {
          "internalType": "string",
          "name": "metadata",
          "type": "string"
        }
      ],
      "stateMutability": "view",
      "type": "function"
    },
    {
      "inputs": [],
      "name": "getPrincipleCount",
      "outputs": [
        {
          "internalType": "uint256",
          "name": "",
          "type": "uint256"
        }
      ],
      "stateMutability": "view",
      "type": "function"
    },
    {
      "inputs": [
        {
          "internalType": "uint256",
          "name": "relationshipId",
          "type": "uint256"
        }
      ],
      "name": "getRelationship",
      "outputs": [
        {
          "internalType": "uint256",
          "name": "id",
          "type": "uint256"
        },
        {
          "internalType": "uint256",
          "name": "source",
          "type": "uint256"
        },
        {
          "internalType": "uint256",
          "name": "target",
          "type": "uint256"
        },
        {
          "internalType": "string",
          "name": "relationType",
          "type": "string"
        },
        {
          "internalType": "uint256",
          "name": "strength",
          "type": "uint256"
        },
        {
          "internalType": "string",
          "name": "metadata",
          "type": "string"
        }
      ],
      "stateMutability": "view",
      "type": "function"
    },
    {
      "inputs": [],
      "name": "getRelationshipCount",
      "outputs": [
        {
          "internalType": "uint256",
          "name": "",
          "type": "uint256"
        }
      ],
      "stateMutability": "view",
      "type": "function"
    },
    {
      "inputs": [],
      "name": "owner",
      "outputs": [
        {
          "internalType": "address",
          "name": "",
          "type": "address"
        }
      ],
      "stateMutability": "view",
      "type": "function"
    },
    {
      "inputs": [],
      "name": "pause",
      "outputs": [],
      "stateMutability": "nonpayable",
      "type": "function"
    },
    {
      "inputs": [],
      "name": "paused",
      "outputs": [
        {
          "internalType": "bool",
          "name": "",
          "type": "bool"
        }
      ],
      "stateMutability": "view",
      "type": "function"
    },
    {
      "inputs": [],
      "name": "renounceOwnership",
      "outputs": [],
      "stateMutability": "nonpayable",
      "type": "function"
    },
    {
      "inputs": [
        {
          "internalType": "address",
          "name": "newOwner",
          "type": "address"
        }
      ],
      "name": "transferOwnership",
      "outputs": [],
      "stateMutability": "nonpayable",
      "type": "function"
    },
    {
      "inputs": [],
      "name": "unpause",
      "outputs": [],
      "stateMutability": "nonpayable",
      "type": "function"
    },
    {
      "inputs": [
        {
          "internalType": "uint256",
          "name": "agentId",
          "type": "uint256"
        },
        {
          "internalType": "string",
          "name": "status",
          "type": "string"
        },
        {
          "internalType": "uint256",
          "name": "ethicalScore",
          "type": "uint256"
        }
      ],
      "name": "updateAgentStatus",
      "outputs": [],
      "stateMutability": "nonpayable",
      "type": "function"
    }
  ],
  "bytecode": "0x608060405234801561001057600080fd5b5061001a33610056565b6000805460ff60a01b19169055610035600180546001019055565b610043600280546001019055565b610051600380546001019055565b6100a6565b600080546001600160a01b038381166001600160a01b0319831681178455604051919092169283917f8be0079c531659141344cd1fd0a4f28419497f9722a3daafe3b4186f6b6457e09190a35050565b611ab4806100b56000396000f3fe608060405234801561001057600080fd5b506004361061010b5760003560e01c80638456cb59116100a257806391cab63e1161007157806391cab63e1461022c578063c606e11414610234578063e21d605114610247578063e3eb77431461025a578063f2fde38b1461026d57600080fd5b80638456cb59146101eb578063851c8250146101f35780638770bf4b146102095780638da5cb5b1461021157600080fd5b806362483af3116100de57806362483af31461018a578063715018a61461019d578063834910fa146101a5578063843545be146101c757600080fd5b80632de5aaf714610110578063322e41b51461013e5780633f4ba83a146101635780635c975abb1461016d575b600080fd5b61012361011e366004611434565b610280565b60405161013596959493929190611493565b60405180910390f35b61015161014c366004611434565b610585565b604051610135969594939291906114f9565b61016b61079e565b005b600054600160a01b900460ff166040519015158152602001610135565b61016b6101983660046115d9565b6107b0565b61016b61085a565b6101b86101b3366004611434565b61086c565b60405161013593929190611629565b6101da6101d5366004611434565b610b4f565b60405161013595949392919061165e565b61016b610ddf565b6101fb610def565b604051908152602001610135565b6101fb610e0b565b6000546040516001600160a01b039091168152602001610135565b6101fb610e18565b6101fb6102423660046116af565b610e25565b6101fb610255366004611741565b610f3f565b6101fb6102683660046117c9565b61108b565b61016b61027b36600461184a565b6111dc565b6000818152600460205260408120600601546060908190819084908290879060ff166102c75760405162461bcd60e51b81526004016102be9061187a565b60405180910390fd5b6000600460008a81526020019081526020016000206040518060e001604052908160008201548152602001600182018054610301906118a8565b80601f016020809104026020016040519081016040528092919081815260200182805461032d906118a8565b801561037a5780601f1061034f5761010080835404028352916020019161037a565b820191906000526020600020905b81548152906001019060200180831161035d57829003601f168201915b50505050508152602001600282018054610393906118a8565b80601f01602080910402602001604051908101604052809291908181526020018280546103bf906118a8565b801561040c5780601f106103e15761010080835404028352916020019161040c565b820191906000526020600020905b8154815290600101906020018083116103ef57829003601f168201915b50505050508152602001600382018054610425906118a8565b80601f0160208091040260200160405190810160405280929190818152602001828054610451906118a8565b801561049e5780601f106104735761010080835404028352916020019161049e565b820191906000526020600020905b81548152906001019060200180831161048157829003601f168201915b50505050508152602001600482015481526020016005820180546104c1906118a8565b80601f01602080910402602001604051908101604052809291908181526020018280546104ed906118a8565b801561053a5780601f1061050f5761010080835404028352916020019161053a565b820191906000526020600020905b81548152906001019060200180831161051d57829003601f168201915b50505091835250506006919091015460ff16151560209182015281519082015160408301516060840151608085015160a090950151939e929d50909b50995091975095509350505050565b600081815260066020819052604082200154819081906060908290829060ff166105f15760405162461bcd60e51b815260206004820152601b60248201527f52656c6174696f6e7368697020646f6573206e6f74206578697374000000000060448201526064016102be565b6000600660008981526020019081526020016000206040518060e001604052908160008201548152602001600182015481526020016002820154815260200160038201805461063f906118a8565b80601f016020809104026020016040519081016040528092919081815260200182805461066b906118a8565b80156106b85780601f1061068d576101008083540402835291602001916106b8565b820191906000526020600020905b81548152906001019060200180831161069b57829003601f168201915b50505050508152602001600482015481526020016005820180546106db906118a8565b80601f0160208091040260200160405190810160405280929190818152602001828054610707906118a8565b80156107545780601f1061072957610100808354040283529160200191610754565b820191906000526020600020905b81548152906001019060200180831161073757829003601f168201915b50505091835250506006919091015460ff16151560209182015281519082015160408301516060840151608085015160a090950151939d929c50909a509850919650945092505050565b6107a6611255565b6107ae6112af565b565b6107b8611255565b6107c0611304565b600083815260046020526040902060060154839060ff166107f35760405162461bcd60e51b81526004016102be9061187a565b60008481526004602052604090206003810161080f8582611931565b50828160040181905550847ffcdc0028db6a88740714496374115b72557620e9625c46949d60744857adad8e858560405161084b9291906119f1565b60405180910390a25050505050565b610862611255565b6107ae6000611351565b6000818152600460205260408120600601546060908190849060ff166108a45760405162461bcd60e51b81526004016102be9061187a565b6000600460008781526020019081526020016000206040518060e0016040529081600082015481526020016001820180546108de906118a8565b80601f016020809104026020016040519081016040528092919081815260200182805461090a906118a8565b80156109575780601f1061092c57610100808354040283529160200191610957565b820191906000526020600020905b81548152906001019060200180831161093a57829003601f168201915b50505050508152602001600282018054610970906118a8565b80601f016020809104026020016040519081016040528092919081815260200182805461099c906118a8565b80156109e95780601f106109be576101008083540402835291602001916109e9565b820191906000526020600020905b8154815290600101906020018083116109cc57829003601f168201915b50505050508152602001600382018054610a02906118a8565b80601f0160208091040260200160405190810160405280929190818152602001828054610a2e906118a8565b8015610a7b5780601f10610a5057610100808354040283529160200191610a7b565b820191906000526020600020905b815481529060010190602001808311610a5e57829003601f168201915b5050505050815260200160048201548152602001600582018054610a9e906118a8565b80601f0160208091040260200160405190810160405280929190818152602001828054610aca906118a8565b8015610b175780601f10610aec57610100808354040283529160200191610b17565b820191906000526020600020905b815481529060010190602001808311610afa57829003601f168201915b50505091835250506006919091015460ff1615156020909101526080810151606082015160a090920151909891975095509350505050565b600081815260056020819052604082200154606090819083908290869060ff16610bbb5760405162461bcd60e51b815260206004820152601860248201527f5072696e6369706c6520646f6573206e6f74206578697374000000000000000060448201526064016102be565b6000600560008981526020019081526020016000206040518060c001604052908160008201548152602001600182018054610bf5906118a8565b80601f0160208091040260200160405190810160405280929190818152602001828054610c21906118a8565b8015610c6e5780601f10610c4357610100808354040283529160200191610c6e565b820191906000526020600020905b815481529060010190602001808311610c5157829003601f168201915b50505050508152602001600282018054610c87906118a8565b80601f0160208091040260200160405190810160405280929190818152602001828054610cb3906118a8565b8015610d005780601f10610cd557610100808354040283529160200191610d00565b820191906000526020600020905b815481529060010190602001808311610ce357829003601f168201915b5050505050815260200160038201548152602001600482018054610d23906118a8565b80601f0160208091040260200160405190810160405280929190818152602001828054610d4f906118a8565b8015610d9c5780601f10610d7157610100808354040283529160200191610d9c565b820191906000526020600020905b815481529060010190602001808311610d7f57829003601f168201915b50505091835250506005919091015460ff16151560209182015281519082015160408301516060840151608090940151929c919b50995091975095509350505050565b610de7611255565b6107ae6113a1565b60006001610dfc60035490565b610e069190611a13565b905090565b60006001610dfc60025490565b60006001610dfc60015490565b6000610e2f611255565b610e37611304565b6000610e4260025490565b6040805160c08101825282815260208082018a81528284018a90526060830189905260808301889052600160a08401819052600086815260059093529390912082518155905193945090929091820190610e9c9082611931565b5060408201516002820190610eb19082611931565b506060820151600382015560808201516004820190610ed09082611931565b5060a091909101516005909101805460ff191691151591909117905560405181907fcb8d5d030399852a03f9e4c8c08d5ee90fd293297b1490cfcedff6eb4721160290610f2090899088906119f1565b60405180910390a2610f36600280546001019055565b95945050505050565b6000610f49611255565b610f51611304565b6000610f5c60015490565b6040805160e081018252828152602080820189815282840189905283518085018552600781526650454e44494e4760c81b81840152606084015260006080840181905260a08401899052600160c08501819052868252600490935293909320825181559251939450909290820190610fd49082611931565b5060408201516002820190610fe99082611931565b5060608201516003820190610ffe9082611931565b506080820151600482015560a0820151600582019061101d9082611931565b5060c091909101516006909101805460ff191691151591909117905560405181907f1905603be3d1c5a2793c4c68121204e9e7849a9d9a7d0a0a988f7177bb5e7f5f9061106d9088908890611a3a565b60405180910390a2611083600180546001019055565b949350505050565b6000611095611255565b61109d611304565b600086815260046020526040902060060154869060ff166110d05760405162461bcd60e51b81526004016102be9061187a565b60006110db60035490565b6040805160e08101825282815260208082018c81528284018c8152606084018c8152608085018c905260a085018b9052600160c08601819052600088815260069095529590932084518155915194820194909455925160028401555192935091600382019061114a9082611931565b506080820151600482015560a082015160058201906111699082611931565b5060c091909101516006909101805460ff191691151591909117905560405181907fb4d3ad7b31086d37c555aa4811459ae61647558d8d61c79b622355541112b3ba906111bb908b908b908b90611a5f565b60405180910390a26111d1600380546001019055565b979650505050505050565b6111e4611255565b6001600160a01b0381166112495760405162461bcd60e51b815260206004820152602660248201527f4f776e61626c653a206e6577206f776e657220697320746865207a65726f206160448201526564647265737360d01b60648201526084016102be565b61125281611351565b50565b6000546001600160a01b031633146107ae5760405162461bcd60e51b815260206004820181905260248201527f4f776e61626c653a2063616c6c6572206973206e6f7420746865206f776e657260448201526064016102be565b6112b76113e4565b6000805460ff60a01b191690557f5db9ee0a495bf2e6ff9c91a7834c1ba4fdd244a5e8aa4e537bd38aeae4b073aa335b6040516001600160a01b03909116815260200160405180910390a1565b600054600160a01b900460ff16156107ae5760405162461bcd60e51b815260206004820152601060248201526f14185d5cd8589b194e881c185d5cd95960821b60448201526064016102be565b600080546001600160a01b038381166001600160a01b0319831681178455604051919092169283917f8be0079c531659141344cd1fd0a4f28419497f9722a3daafe3b4186f6b6457e09190a35050565b6113a9611304565b6000805460ff60a01b1916600160a01b1790557f62e78cea01bee320cd4e420270b5ea74000d11b0c9f74754ebdbfc544b05a2586112e73390565b600054600160a01b900460ff166107ae5760405162461bcd60e51b815260206004820152601460248201527314185d5cd8589b194e881b9bdd081c185d5cd95960621b60448201526064016102be565b60006020828403121561144657600080fd5b5035919050565b6000815180845260005b8181101561147357602081850181015186830182015201611457565b506000602082860101526020601f19601f83011685010191505092915050565b86815260c0602082015260006114ac60c083018861144d565b82810360408401526114be818861144d565b905082810360608401526114d2818761144d565b905084608084015282810360a08401526114ec818561144d565b9998505050505050505050565b86815285602082015284604082015260c06060820152600061151e60c083018661144d565b84608084015282810360a08401526114ec818561144d565b634e487b7160e01b600052604160045260246000fd5b600082601f83011261155d57600080fd5b813567ffffffffffffffff8082111561157857611578611536565b604051601f8301601f19908116603f011681019082821181831017156115a0576115a0611536565b816040528381528660208588010111156115b957600080fd5b836020870160208301376000602085830101528094505050505092915050565b6000806000606084860312156115ee57600080fd5b83359250602084013567ffffffffffffffff81111561160c57600080fd5b6116188682870161154c565b925050604084013590509250925092565b838152606060208201526000611642606083018561144d565b8281036040840152611654818561144d565b9695505050505050565b85815260a06020820152600061167760a083018761144d565b8281036040840152611689818761144d565b905084606084015282810360808401526116a3818561144d565b98975050505050505050565b600080600080608085870312156116c557600080fd5b843567ffffffffffffffff808211156116dd57600080fd5b6116e98883890161154c565b955060208701359150808211156116ff57600080fd5b61170b8883890161154c565b945060408701359350606087013591508082111561172857600080fd5b506117358782880161154c565b91505092959194509250565b60008060006060848603121561175657600080fd5b833567ffffffffffffffff8082111561176e57600080fd5b61177a8783880161154c565b9450602086013591508082111561179057600080fd5b61179c8783880161154c565b935060408601359150808211156117b257600080fd5b506117bf8682870161154c565b9150509250925092565b600080600080600060a086880312156117e157600080fd5b8535945060208601359350604086013567ffffffffffffffff8082111561180757600080fd5b61181389838a0161154c565b945060608801359350608088013591508082111561183057600080fd5b5061183d8882890161154c565b9150509295509295909350565b60006020828403121561185c57600080fd5b81356001600160a01b038116811461187357600080fd5b9392505050565b6020808252601490820152731059d95b9d08191bd95cc81b9bdd08195e1a5cdd60621b604082015260600190565b600181811c908216806118bc57607f821691505b6020821081036118dc57634e487b7160e01b600052602260045260246000fd5b50919050565b601f82111561192c57600081815260208120601f850160051c810160208610156119095750805b601f850160051c820191505b8181101561192857828155600101611915565b5050505b505050565b815167ffffffffffffffff81111561194b5761194b611536565b61195f8161195984546118a8565b846118e2565b602080601f831160018114611994576000841561197c5750858301515b600019600386901b1c1916600185901b178555611928565b600085815260208120601f198616915b828110156119c3578886015182559484019460019091019084016119a4565b50858210156119e15787850151600019600388901b60f8161c191681555b5050505050600190811b01905550565b604081526000611a04604083018561144d565b90508260208301529392505050565b81810381811115611a3457634e487b7160e01b600052601160045260246000fd5b92915050565b604081526000611a4d604083018561144d565b8281036020840152610f36818561144d565b838152826020820152606060408201526000610f36606083018461144d56fea2646970667358221220cc570b44bf93a878df3f8c67686ff96dca86fe3795ac39f000ceffd2a146659d64736f6c63430008140033",
  "linkReferences": {},
  "deployedLinkReferences": {}
}