{
  "_format": "hh-sol-artifact-1",
  "contractName": "FreePressContract",
  "sourceName": "src/contracts/FreePressContract.sol",
  "abi": [
    {
      "inputs": [],
      "stateMutability": "nonpayable",
      "type": "constructor"
    },
    {
      "anonymous": false,
      "inputs": [
        {
          "indexed": true,
          "internalType": "address",
          "name": "owner",
          "type": "address"
        },
        {
          "indexed": true,
          "internalType": "address",
          "name": "approved",
          "type": "address"
        },
        {
          "indexed": true,
          "internalType": "uint256",
          "name": "tokenId",
          "type": "uint256"
        }
      ],
      "name": "Approval",
      "type": "event"
    },
    {
      "anonymous": false,
      "inputs": [
        {
          "indexed": true,
          "internalType": "address",
          "name": "owner",
          "type": "address"
        },
        {
          "indexed": true,
          "internalType": "address",
          "name": "operator",
          "type": "address"
        },
        {
          "indexed": false,
          "internalType": "bool",
          "name": "approved",
          "type": "bool"
        }
      ],
      "name": "ApprovalForAll",
      "type": "event"
    },
    {
      "anonymous": false,
      "inputs": [
        {
          "indexed": true,
          "internalType": "uint256",
          "name": "articleId",
          "type": "uint256"
        },
        {
          "indexed": true,
          "internalType": "address",
          "name": "publisher",
          "type": "address"
        },
        {
          "indexed": false,
          "internalType": "string",
          "name": "ipfsHash",
          "type": "string"
        }
      ],
      "name": "ArticlePublished",
      "type": "event"
    },
    {
      "anonymous": false,
      "inputs": [
        {
          "indexed": true,
          "internalType": "uint256",
          "name": "articleId",
          "type": "uint256"
        },
        {
          "indexed": false,
          "internalType": "string",
          "name": "newIpfsHash",
          "type": "string"
        }
      ],
      "name": "ArticleUpdated",
      "type": "event"
    },
    {
      "anonymous": false,
      "inputs": [
        {
          "indexed": true,
          "internalType": "uint256",
          "name": "articleId",
          "type": "uint256"
        },
        {
          "indexed": true,
          "internalType": "address",
          "name": "licensee",
          "type": "address"
        }
      ],
      "name": "LicensePurchased",
      "type": "event"
    },
    {
      "anonymous": false,
      "inputs": [
        {
          "indexed": true,
          "internalType": "address",
          "name": "previousOwner",
          "type": "address"
        },
        {
          "indexed": true,
          "internalType": "address",
          "name": "newOwner",
          "type": "address"
        }
      ],
      "name": "OwnershipTransferred",
      "type": "event"
    },
    {
      "anonymous": false,
      "inputs": [
        {
          "indexed": true,
          "internalType": "address",
          "name": "publisher",
          "type": "address"
        },
        {
          "indexed": false,
          "internalType": "string",
          "name": "name",
          "type": "string"
        }
      ],
      "name": "PublisherRegistered",
      "type": "event"
    },
    {
      "anonymous": false,
      "inputs": [
        {
          "indexed": true,
          "internalType": "address",
          "name": "publisher",
          "type": "address"
        },
        {
          "indexed": false,
          "internalType": "uint256",
          "name": "newReputation",
          "type": "uint256"
        }
      ],
      "name": "ReputationUpdated",
      "type": "event"
    },
    {
      "anonymous": false,
      "inputs": [
        {
          "indexed": true,
          "internalType": "address",
          "name": "from",
          "type": "address"
        },
        {
          "indexed": true,
          "internalType": "address",
          "name": "to",
          "type": "address"
        },
        {
          "indexed": true,
          "internalType": "uint256",
          "name": "tokenId",
          "type": "uint256"
        }
      ],
      "name": "Transfer",
      "type": "event"
    },
    {
      "inputs": [
        {
          "internalType": "address",
          "name": "to",
          "type": "address"
        },
        {
          "internalType": "uint256",
          "name": "tokenId",
          "type": "uint256"
        }
      ],
      "name": "approve",
      "outputs": [],
      "stateMutability": "nonpayable",
      "type": "function"
    },
    {
      "inputs": [
        {
          "internalType": "uint256",
          "name": "",
          "type": "uint256"
        }
      ],
      "name": "articles",
      "outputs": [
        {
          "internalType": "string",
          "name": "ipfsHash",
          "type": "string"
        },
        {
          "internalType": "address",
          "name": "publisher",
          "type": "address"
        },
        {
          "internalType": "uint256",
          "name": "price",
          "type": "uint256"
        },
        {
          "internalType": "uint256",
          "name": "timestamp",
          "type": "uint256"
        },
        {
          "internalType": "bool",
          "name": "isActive",
          "type": "bool"
        },
        {
          "internalType": "string",
          "name": "title",
          "type": "string"
        }
      ],
      "stateMutability": "view",
      "type": "function"
    },
    {
      "inputs": [
        {
          "internalType": "address",
          "name": "owner",
          "type": "address"
        }
      ],
      "name": "balanceOf",
      "outputs": [
        {
          "internalType": "uint256",
          "name": "",
          "type": "uint256"
        }
      ],
      "stateMutability": "view",
      "type": "function"
    },
    {
      "inputs": [
        {
          "internalType": "uint256",
          "name": "tokenId",
          "type": "uint256"
        }
      ],
      "name": "getApproved",
      "outputs": [
        {
          "internalType": "address",
          "name": "",
          "type": "address"
        }
      ],
      "stateMutability": "view",
      "type": "function"
    },
    {
      "inputs": [
        {
          "internalType": "address",
          "name": "publisher",
          "type": "address"
        }
      ],
      "name": "getPublisherArticles",
      "outputs": [
        {
          "internalType": "uint256[]",
          "name": "",
          "type": "uint256[]"
        }
      ],
      "stateMutability": "view",
      "type": "function"
    },
    {
      "inputs": [
        {
          "internalType": "address",
          "name": "user",
          "type": "address"
        }
      ],
      "name": "getUserLicenses",
      "outputs": [
        {
          "internalType": "uint256[]",
          "name": "",
          "type": "uint256[]"
        }
      ],
      "stateMutability": "view",
      "type": "function"
    },
    {
      "inputs": [
        {
          "internalType": "address",
          "name": "owner",
          "type": "address"
        },
        {
          "internalType": "address",
          "name": "operator",
          "type": "address"
        }
      ],
      "name": "isApprovedForAll",
      "outputs": [
        {
          "internalType": "bool",
          "name": "",
          "type": "bool"
        }
      ],
      "stateMutability": "view",
      "type": "function"
    },
    {
      "inputs": [
        {
          "internalType": "uint256",
          "name": "",
          "type": "uint256"
        },
        {
          "internalType": "address",
          "name": "",
          "type": "address"
        }
      ],
      "name": "licenses",
      "outputs": [
        {
          "internalType": "uint256",
          "name": "articleId",
          "type": "uint256"
        },
        {
          "internalType": "address",
          "name": "licensee",
          "type": "address"
        },
        {
          "internalType": "uint256",
          "name": "timestamp",
          "type": "uint256"
        },
        {
          "internalType": "bool",
          "name": "isActive",
          "type": "bool"
        }
      ],
      "stateMutability": "view",
      "type": "function"
    },
    {
      "inputs": [],
      "name": "name",
      "outputs": [
        {
          "internalType": "string",
          "name": "",
          "type": "string"
        }
      ],
      "stateMutability": "view",
      "type": "function"
    },
    {
      "inputs": [],
      "name": "owner",
      "outputs": [
        {
          "internalType": "address",
          "name": "",
          "type": "address"
        }
      ],
      "stateMutability": "view",
      "type": "function"
    },
    {
      "inputs": [
        {
          "internalType": "uint256",
          "name": "tokenId",
          "type": "uint256"
        }
      ],
      "name": "ownerOf",
      "outputs": [
        {
          "internalType": "address",
          "name": "",
          "type": "address"
        }
      ],
      "stateMutability": "view",
      "type": "function"
    },
    {
      "inputs": [],
      "name": "platformFee",
      "outputs": [
        {
          "internalType": "uint256",
          "name": "",
          "type": "uint256"
        }
      ],
      "stateMutability": "view",
      "type": "function"
    },
    {
      "inputs": [
        {
          "internalType": "string",
          "name": "ipfsHash",
          "type": "string"
        },
        {
          "internalType": "uint256",
          "name": "price",
          "type": "uint256"
        },
        {
          "internalType": "string",
          "name": "title",
          "type": "string"
        },
        {
          "internalType": "string[]",
          "name": "tags",
          "type": "string[]"
        }
      ],
      "name": "publishArticle",
      "outputs": [
        {
          "internalType": "uint256",
          "name": "",
          "type": "uint256"
        }
      ],
      "stateMutability": "nonpayable",
      "type": "function"
    },
    {
      "inputs": [
        {
          "internalType": "address",
          "name": "",
          "type": "address"
        },
        {
          "internalType": "uint256",
          "name": "",
          "type": "uint256"
        }
      ],
      "name": "publisherArticles",
      "outputs": [
        {
          "internalType": "uint256",
          "name": "",
          "type": "uint256"
        }
      ],
      "stateMutability": "view",
      "type": "function"
    },
    {
      "inputs": [
        {
          "internalType": "address",
          "name": "",
          "type": "address"
        }
      ],
      "name": "publishers",
      "outputs": [
        {
          "internalType": "string",
          "name": "name",
          "type": "string"
        },
        {
          "internalType": "uint256",
          "name": "reputation",
          "type": "uint256"
        },
        {
          "internalType": "bool",
          "name": "isRegistered",
          "type": "bool"
        },
        {
          "internalType": "uint256",
          "name": "totalEarnings",
          "type": "uint256"
        }
      ],
      "stateMutability": "view",
      "type": "function"
    },
    {
      "inputs": [
        {
          "internalType": "uint256",
          "name": "articleId",
          "type": "uint256"
        }
      ],
      "name": "purchaseLicense",
      "outputs": [],
      "stateMutability": "payable",
      "type": "function"
    },
    {
      "inputs": [
        {
          "internalType": "string",
          "name": "name",
          "type": "string"
        }
      ],
      "name": "registerPublisher",
      "outputs": [],
      "stateMutability": "nonpayable",
      "type": "function"
    },
    {
      "inputs": [],
      "name": "renounceOwnership",
      "outputs": [],
      "stateMutability": "nonpayable",
      "type": "function"
    },
    {
      "inputs": [
        {
          "internalType": "address",
          "name": "from",
          "type": "address"
        },
        {
          "internalType": "address",
          "name": "to",
          "type": "address"
        },
        {
          "internalType": "uint256",
          "name": "tokenId",
          "type": "uint256"
        }
      ],
      "name": "safeTransferFrom",
      "outputs": [],
      "stateMutability": "nonpayable",
      "type": "function"
    },
    {
      "inputs": [
        {
          "internalType": "address",
          "name": "from",
          "type": "address"
        },
        {
          "internalType": "address",
          "name": "to",
          "type": "address"
        },
        {
          "internalType": "uint256",
          "name": "tokenId",
          "type": "uint256"
        },
        {
          "internalType": "bytes",
          "name": "data",
          "type": "bytes"
        }
      ],
      "name": "safeTransferFrom",
      "outputs": [],
      "stateMutability": "nonpayable",
      "type": "function"
    },
    {
      "inputs": [
        {
          "internalType": "address",
          "name": "operator",
          "type": "address"
        },
        {
          "internalType": "bool",
          "name": "approved",
          "type": "bool"
        }
      ],
      "name": "setApprovalForAll",
      "outputs": [],
      "stateMutability": "nonpayable",
      "type": "function"
    },
    {
      "inputs": [
        {
          "internalType": "uint256",
          "name": "newFee",
          "type": "uint256"
        }
      ],
      "name": "setPlatformFee",
      "outputs": [],
      "stateMutability": "nonpayable",
      "type": "function"
    },
    {
      "inputs": [
        {
          "internalType": "bytes4",
          "name": "interfaceId",
          "type": "bytes4"
        }
      ],
      "name": "supportsInterface",
      "outputs": [
        {
          "internalType": "bool",
          "name": "",
          "type": "bool"
        }
      ],
      "stateMutability": "view",
      "type": "function"
    },
    {
      "inputs": [],
      "name": "symbol",
      "outputs": [
        {
          "internalType": "string",
          "name": "",
          "type": "string"
        }
      ],
      "stateMutability": "view",
      "type": "function"
    },
    {
      "inputs": [
        {
          "internalType": "uint256",
          "name": "tokenId",
          "type": "uint256"
        }
      ],
      "name": "tokenURI",
      "outputs": [
        {
          "internalType": "string",
          "name": "",
          "type": "string"
        }
      ],
      "stateMutability": "view",
      "type": "function"
    },
    {
      "inputs": [
        {
          "internalType": "address",
          "name": "from",
          "type": "address"
        },
        {
          "internalType": "address",
          "name": "to",
          "type": "address"
        },
        {
          "internalType": "uint256",
          "name": "tokenId",
          "type": "uint256"
        }
      ],
      "name": "transferFrom",
      "outputs": [],
      "stateMutability": "nonpayable",
      "type": "function"
    },
    {
      "inputs": [
        {
          "internalType": "address",
          "name": "newOwner",
          "type": "address"
        }
      ],
      "name": "transferOwnership",
      "outputs": [],
      "stateMutability": "nonpayable",
      "type": "function"
    },
    {
      "inputs": [
        {
          "internalType": "uint256",
          "name": "articleId",
          "type": "uint256"
        },
        {
          "internalType": "string",
          "name": "newIpfsHash",
          "type": "string"
        }
      ],
      "name": "updateArticle",
      "outputs": [],
      "stateMutability": "nonpayable",
      "type": "function"
    },
    {
      "inputs": [
        {
          "internalType": "address",
          "name": "publisher",
          "type": "address"
        },
        {
          "internalType": "uint256",
          "name": "newReputation",
          "type": "uint256"
        }
      ],
      "name": "updateReputation",
      "outputs": [],
      "stateMutability": "nonpayable",
      "type": "function"
    },
    {
      "inputs": [
        {
          "internalType": "address",
          "name": "",
          "type": "address"
        },
        {
          "internalType": "uint256",
          "name": "",
          "type": "uint256"
        }
      ],
      "name": "userLicenses",
      "outputs": [
        {
          "internalType": "uint256",
          "name": "",
          "type": "uint256"
        }
      ],
      "stateMutability": "view",
      "type": "function"
    },
    {
      "inputs": [],
      "name": "withdrawPlatformFees",
      "outputs": [],
      "stateMutability": "nonpayable",
      "type": "function"
    }
  ],
  "bytecode": "0x60806040526005600e553480156200001657600080fd5b506040518060400160405280600981526020016846726565507265737360b81b815250604051806040016040528060048152602001634e45575360e01b815250816000908162000067919062000186565b50600162000076828262000186565b505060016006555062000089336200008f565b62000252565b600780546001600160a01b038381166001600160a01b0319831681179093556040519116919082907f8be0079c531659141344cd1fd0a4f28419497f9722a3daafe3b4186f6b6457e090600090a35050565b634e487b7160e01b600052604160045260246000fd5b600181811c908216806200010c57607f821691505b6020821081036200012d57634e487b7160e01b600052602260045260246000fd5b50919050565b601f8211156200018157600081815260208120601f850160051c810160208610156200015c5750805b601f850160051c820191505b818110156200017d5782815560010162000168565b5050505b505050565b81516001600160401b03811115620001a257620001a2620000e1565b620001ba81620001b38454620000f7565b8462000133565b602080601f831160018114620001f25760008415620001d95750858301515b600019600386901b1c1916600185901b1785556200017d565b600085815260208120601f198616915b82811015620002235788860151825594840194600190910190840162000202565b5085821015620002425787850151600019600388901b60f8161c191681555b5050505050600190811b01905550565b6128b380620002626000396000f3fe6080604052600436106101d85760003560e01c80638120abed11610102578063c8a028a811610095578063edcfafe611610064578063edcfafe61461055f578063f2fde38b14610591578063f5c91a08146105b1578063f8f37167146105d157600080fd5b8063c8a028a8146104f7578063d0b7830b1461050a578063d98fabc11461051f578063e985e9c51461053f57600080fd5b8063a22cb465116100d1578063a22cb46514610477578063b88d4fde14610497578063bcfe7da2146104b7578063c87b56dd146104d757600080fd5b80638120abed146104045780638da5cb5b146104245780638f9db8571461044257806395d89b411461046257600080fd5b806326232a2e1161017a5780636352211e116101495780636352211e1461038257806370a08231146103a2578063715018a6146103c257806375a106c3146103d757600080fd5b806326232a2e146102fe57806342842e0e14610322578063454c1d31146103425780635bbc59801461036257600080fd5b8063095ea7b3116101b6578063095ea7b31461026c5780630a4d85cd1461028e57806312e8e2c3146102be57806323b872dd146102de57600080fd5b806301ffc9a7146101dd57806306fdde0314610212578063081812fc14610234575b600080fd5b3480156101e957600080fd5b506101fd6101f8366004611ff8565b610655565b60405190151581526020015b60405180910390f35b34801561021e57600080fd5b506102276106a7565b6040516102099190612065565b34801561024057600080fd5b5061025461024f366004612078565b610739565b6040516001600160a01b039091168152602001610209565b34801561027857600080fd5b5061028c6102873660046120ad565b610760565b005b34801561029a57600080fd5b506102ae6102a93660046120d7565b61087a565b60405161020994939291906120f2565b3480156102ca57600080fd5b5061028c6102d9366004612078565b610930565b3480156102ea57600080fd5b5061028c6102f9366004612121565b61098e565b34801561030a57600080fd5b50610314600e5481565b604051908152602001610209565b34801561032e57600080fd5b5061028c61033d366004612121565b6109bf565b34801561034e57600080fd5b5061031461035d3660046120ad565b6109da565b34801561036e57600080fd5b5061028c61037d36600461221c565b610a0b565b34801561038e57600080fd5b5061025461039d366004612078565b610b16565b3480156103ae57600080fd5b506103146103bd3660046120d7565b610b76565b3480156103ce57600080fd5b5061028c610bfc565b3480156103e357600080fd5b506103f76103f23660046120d7565b610c10565b6040516102099190612251565b34801561041057600080fd5b5061028c61041f366004612295565b610c7c565b34801561043057600080fd5b506007546001600160a01b0316610254565b34801561044e57600080fd5b506103f761045d3660046120d7565b610d44565b34801561046e57600080fd5b50610227610dae565b34801561048357600080fd5b5061028c6104923660046122dc565b610dbd565b3480156104a357600080fd5b5061028c6104b2366004612318565b610dcc565b3480156104c357600080fd5b506103146104d2366004612394565b610e04565b3480156104e357600080fd5b506102276104f2366004612078565b610ff1565b61028c610505366004612078565b611065565b34801561051657600080fd5b5061028c611335565b34801561052b57600080fd5b5061031461053a3660046120ad565b611376565b34801561054b57600080fd5b506101fd61055a3660046124a6565b611392565b34801561056b57600080fd5b5061057f61057a366004612078565b6113c0565b604051610209969594939291906124d9565b34801561059d57600080fd5b5061028c6105ac3660046120d7565b611516565b3480156105bd57600080fd5b5061028c6105cc3660046120ad565b61158c565b3480156105dd57600080fd5b5061062b6105ec366004612530565b600b602090815260009283526040808420909152908252902080546001820154600283015460039093015491926001600160a01b039091169160ff1684565b604080519485526001600160a01b0390931660208501529183015215156060820152608001610209565b60006001600160e01b031982166380ac58cd60e01b148061068657506001600160e01b03198216635b5e139f60e01b145b806106a157506301ffc9a760e01b6001600160e01b03198316145b92915050565b6060600080546106b690612553565b80601f01602080910402602001604051908101604052809291908181526020018280546106e290612553565b801561072f5780601f106107045761010080835404028352916020019161072f565b820191906000526020600020905b81548152906001019060200180831161071257829003601f168201915b5050505050905090565b60006107448261164f565b506000908152600460205260409020546001600160a01b031690565b600061076b82610b16565b9050806001600160a01b0316836001600160a01b0316036107dd5760405162461bcd60e51b815260206004820152602160248201527f4552433732313a20617070726f76616c20746f2063757272656e74206f776e656044820152603960f91b60648201526084015b60405180910390fd5b336001600160a01b03821614806107f957506107f98133611392565b61086b5760405162461bcd60e51b815260206004820152603d60248201527f4552433732313a20617070726f76652063616c6c6572206973206e6f7420746f60448201527f6b656e206f776e6572206f7220617070726f76656420666f7220616c6c00000060648201526084016107d4565b61087583836116ae565b505050565b600a6020526000908152604090208054819061089590612553565b80601f01602080910402602001604051908101604052809291908181526020018280546108c190612553565b801561090e5780601f106108e35761010080835404028352916020019161090e565b820191906000526020600020905b8154815290600101906020018083116108f157829003601f168201915b50505050600183015460028401546003909401549293909260ff909116915084565b61093861171c565b60148111156109895760405162461bcd60e51b815260206004820152601e60248201527f506c6174666f726d206665652063616e6e6f742065786365656420323025000060448201526064016107d4565b600e55565b6109983382611776565b6109b45760405162461bcd60e51b81526004016107d49061258d565b6108758383836117d4565b61087583838360405180602001604052806000815250610dcc565b600d60205281600052604060002081815481106109f657600080fd5b90600052602060002001600091509150505481565b336000908152600a602052604090206002015460ff1615610a6e5760405162461bcd60e51b815260206004820152601c60248201527f5075626c697368657220616c726561647920726567697374657265640000000060448201526064016107d4565b604080516080810182528281526000602080830182905260018385015260608301829052338252600a90529190912081518190610aab9082612628565b506020820151600182015560408083015160028301805460ff19169115159190911790556060909201516003909101555133907f510e160a1de76ff46261790883732c012d8ad69daae326ccc6aaa711fe3d56dc90610b0b908490612065565b60405180910390a250565b6000818152600260205260408120546001600160a01b0316806106a15760405162461bcd60e51b8152602060048201526018602482015277115490cdcc8c4e881a5b9d985b1a59081d1bdad95b88125160421b60448201526064016107d4565b60006001600160a01b038216610be05760405162461bcd60e51b815260206004820152602960248201527f4552433732313a2061646472657373207a65726f206973206e6f7420612076616044820152683634b21037bbb732b960b91b60648201526084016107d4565b506001600160a01b031660009081526003602052604090205490565b610c0461171c565b610c0e6000611938565b565b6001600160a01b0381166000908152600d6020908152604091829020805483518184028101840190945280845260609392830182828015610c7057602002820191906000526020600020905b815481526020019060010190808311610c5c575b50505050509050919050565b6000828152600960205260409020600101546001600160a01b03163314610cef5760405162461bcd60e51b815260206004820152602160248201527f4f6e6c792061727469636c65207075626c69736865722063616e2075706461746044820152606560f81b60648201526084016107d4565b6000828152600960205260409020610d078282612628565b50817f21e244568cb3847c3bfed38ee469d7695cb26cfe4aa31b16925f71b1bd69f63082604051610d389190612065565b60405180910390a25050565b6001600160a01b0381166000908152600c6020908152604091829020805483518184028101840190945280845260609392830182828015610c705760200282019190600052602060002090815481526020019060010190808311610c5c5750505050509050919050565b6060600180546106b690612553565b610dc833838361198a565b5050565b610dd63383611776565b610df25760405162461bcd60e51b81526004016107d49061258d565b610dfe84848484611a58565b50505050565b336000908152600a602052604081206002015460ff16610e805760405162461bcd60e51b815260206004820152603160248201527f4f6e6c792072656769737465726564207075626c6973686572732063616e206360448201527030b636103a3434b990333ab731ba34b7b760791b60648201526084016107d4565b610e8e600880546001019055565b6000610e9960085490565b6040805160e081018252888152336020808301919091528183018990524260608301526001608083015260a0820188905260c082018790526000848152600990915291909120815192935090918190610ef29082612628565b5060208201516001820180546001600160a01b0319166001600160a01b039092169190911790556040820151600282015560608201516003820155608082015160048201805460ff191691151591909117905560a08201516005820190610f599082612628565b5060c08201518051610f75916006840191602090910190611f25565b5050336000818152600c6020908152604082208054600181018255908352912001839055610fa4915082611a8b565b336001600160a01b0316817fe093c6077bb5700c64e69276f3ee442638cebb6f053c60369185d95a454dffec88604051610fde9190612065565b60405180910390a390505b949350505050565b6060610ffc8261164f565b600061101360408051602081019091526000815290565b90506000815111611033576040518060200160405280600081525061105e565b8061103d84611aa5565b60405160200161104e9291906126e8565b6040516020818303038152906040525b9392505050565b61106d611b38565b6000818152600960205260409020600481015460ff166110c75760405162461bcd60e51b815260206004820152601560248201527441727469636c65206973206e6f742061637469766560581b60448201526064016107d4565b80600201543410156111125760405162461bcd60e51b8152602060048201526014602482015273125b9cdd59999a58da595b9d081c185e5b595b9d60621b60448201526064016107d4565b6000828152600b6020908152604080832033845290915290206003015460ff161561117f5760405162461bcd60e51b815260206004820152601960248201527f4c6963656e736520616c7265616479207075726368617365640000000000000060448201526064016107d4565b60006064600e5434611191919061272d565b61119b9190612744565b905060006111a98234612766565b90506111bd6007546001600160a01b031690565b6001600160a01b03166108fc839081150290604051600060405180830381858888f193505050501580156111f5573d6000803e3d6000fd5b5060018301546040516001600160a01b039091169082156108fc029083906000818181858888f19350505050158015611232573d6000803e3d6000fd5b5060018301546001600160a01b03166000908152600a602052604081206003018054839290611262908490612779565b9091555050604080516080810182528581523360208083018281524284860190815260016060860181815260008c8152600b8652888120878252865288812097518855935187830180546001600160a01b0319166001600160a01b039092169190911790559151600287015590516003909501805460ff191695151595909517909455600d8252848120805494850181558152908120909201879055915186917f7bd6e0f5e3d3b30939a4c2216a0efdbe29c8a469dcb594846598aa78b023b84a91a35050506113326001600655565b50565b61133d61171c565b6007546040516001600160a01b03909116904780156108fc02916000818181858888f19350505050158015611332573d6000803e3d6000fd5b600c60205281600052604060002081815481106109f657600080fd5b6001600160a01b03918216600090815260056020908152604080832093909416825291909152205460ff1690565b6009602052600090815260409020805481906113db90612553565b80601f016020809104026020016040519081016040528092919081815260200182805461140790612553565b80156114545780601f1061142957610100808354040283529160200191611454565b820191906000526020600020905b81548152906001019060200180831161143757829003601f168201915b505050600184015460028501546003860154600487015460058801805497986001600160a01b039095169793965091945060ff16929161149390612553565b80601f01602080910402602001604051908101604052809291908181526020018280546114bf90612553565b801561150c5780601f106114e15761010080835404028352916020019161150c565b820191906000526020600020905b8154815290600101906020018083116114ef57829003601f168201915b5050505050905086565b61151e61171c565b6001600160a01b0381166115835760405162461bcd60e51b815260206004820152602660248201527f4f776e61626c653a206e6577206f776e657220697320746865207a65726f206160448201526564647265737360d01b60648201526084016107d4565b61133281611938565b61159461171c565b6001600160a01b0382166000908152600a602052604090206002015460ff166115ff5760405162461bcd60e51b815260206004820152601860248201527f5075626c6973686572206e6f742072656769737465726564000000000000000060448201526064016107d4565b6001600160a01b0382166000818152600a602052604090819020600101839055517ffc577563f1b9a0461e24abef1e1fcc0d33d3d881f20b5df6dda59de4aae2c82190610d389084815260200190565b6000818152600260205260409020546001600160a01b03166113325760405162461bcd60e51b8152602060048201526018602482015277115490cdcc8c4e881a5b9d985b1a59081d1bdad95b88125160421b60448201526064016107d4565b600081815260046020526040902080546001600160a01b0319166001600160a01b03841690811790915581906116e382610b16565b6001600160a01b03167f8c5be1e5ebec7d5bd14f71427d1e84f3dd0314c0f7b2291e5b200ac8c7c3b92560405160405180910390a45050565b6007546001600160a01b03163314610c0e5760405162461bcd60e51b815260206004820181905260248201527f4f776e61626c653a2063616c6c6572206973206e6f7420746865206f776e657260448201526064016107d4565b60008061178283610b16565b9050806001600160a01b0316846001600160a01b031614806117a957506117a98185611392565b80610fe95750836001600160a01b03166117c284610739565b6001600160a01b031614949350505050565b826001600160a01b03166117e782610b16565b6001600160a01b03161461180d5760405162461bcd60e51b81526004016107d49061278c565b6001600160a01b03821661186f5760405162461bcd60e51b8152602060048201526024808201527f4552433732313a207472616e7366657220746f20746865207a65726f206164646044820152637265737360e01b60648201526084016107d4565b826001600160a01b031661188282610b16565b6001600160a01b0316146118a85760405162461bcd60e51b81526004016107d49061278c565b600081815260046020908152604080832080546001600160a01b03199081169091556001600160a01b0387811680865260038552838620805460001901905590871680865283862080546001019055868652600290945282852080549092168417909155905184937fddf252ad1be2c89b69c2b068fc378daa952ba7f163c4a11628f55a4df523b3ef91a4505050565b600780546001600160a01b038381166001600160a01b0319831681179093556040519116919082907f8be0079c531659141344cd1fd0a4f28419497f9722a3daafe3b4186f6b6457e090600090a35050565b816001600160a01b0316836001600160a01b0316036119eb5760405162461bcd60e51b815260206004820152601960248201527f4552433732313a20617070726f766520746f2063616c6c65720000000000000060448201526064016107d4565b6001600160a01b03838116600081815260056020908152604080832094871680845294825291829020805460ff191686151590811790915591519182527f17307eab39ab6107e8899845ad3d59bd9653f200f220920489ca2b5937696c31910160405180910390a3505050565b611a638484846117d4565b611a6f84848484611b91565b610dfe5760405162461bcd60e51b81526004016107d4906127d1565b610dc8828260405180602001604052806000815250611c8f565b60606000611ab283611cc2565b600101905060008167ffffffffffffffff811115611ad257611ad261215d565b6040519080825280601f01601f191660200182016040528015611afc576020820181803683370190505b5090508181016020015b600019016f181899199a1a9b1b9c1cb0b131b232b360811b600a86061a8153600a8504945084611b0657509392505050565b600260065403611b8a5760405162461bcd60e51b815260206004820152601f60248201527f5265656e7472616e637947756172643a207265656e7472616e742063616c6c0060448201526064016107d4565b6002600655565b60006001600160a01b0384163b15611c8757604051630a85bd0160e11b81526001600160a01b0385169063150b7a0290611bd5903390899088908890600401612823565b6020604051808303816000875af1925050508015611c10575060408051601f3d908101601f19168201909252611c0d91810190612860565b60015b611c6d573d808015611c3e576040519150601f19603f3d011682016040523d82523d6000602084013e611c43565b606091505b508051600003611c655760405162461bcd60e51b81526004016107d4906127d1565b805181602001fd5b6001600160e01b031916630a85bd0160e11b149050610fe9565b506001610fe9565b611c998383611d9a565b611ca66000848484611b91565b6108755760405162461bcd60e51b81526004016107d4906127d1565b60008072184f03e93ff9f4daa797ed6e38ed64bf6a1f0160401b8310611d015772184f03e93ff9f4daa797ed6e38ed64bf6a1f0160401b830492506040015b6d04ee2d6d415b85acef81000000008310611d2d576d04ee2d6d415b85acef8100000000830492506020015b662386f26fc100008310611d4b57662386f26fc10000830492506010015b6305f5e1008310611d63576305f5e100830492506008015b6127108310611d7757612710830492506004015b60648310611d89576064830492506002015b600a83106106a15760010192915050565b6001600160a01b038216611df05760405162461bcd60e51b815260206004820181905260248201527f4552433732313a206d696e7420746f20746865207a65726f206164647265737360448201526064016107d4565b6000818152600260205260409020546001600160a01b031615611e555760405162461bcd60e51b815260206004820152601c60248201527f4552433732313a20746f6b656e20616c7265616479206d696e7465640000000060448201526064016107d4565b6000818152600260205260409020546001600160a01b031615611eba5760405162461bcd60e51b815260206004820152601c60248201527f4552433732313a20746f6b656e20616c7265616479206d696e7465640000000060448201526064016107d4565b6001600160a01b038216600081815260036020908152604080832080546001019055848352600290915280822080546001600160a01b0319168417905551839291907fddf252ad1be2c89b69c2b068fc378daa952ba7f163c4a11628f55a4df523b3ef908290a45050565b828054828255906000526020600020908101928215611f6b579160200282015b82811115611f6b5782518290611f5b9082612628565b5091602001919060010190611f45565b50611f77929150611f7b565b5090565b80821115611f77576000611f8f8282611f98565b50600101611f7b565b508054611fa490612553565b6000825580601f10611fb4575050565b601f01602090049060005260206000209081019061133291905b80821115611f775760008155600101611fce565b6001600160e01b03198116811461133257600080fd5b60006020828403121561200a57600080fd5b813561105e81611fe2565b60005b83811015612030578181015183820152602001612018565b50506000910152565b60008151808452612051816020860160208601612015565b601f01601f19169290920160200192915050565b60208152600061105e6020830184612039565b60006020828403121561208a57600080fd5b5035919050565b80356001600160a01b03811681146120a857600080fd5b919050565b600080604083850312156120c057600080fd5b6120c983612091565b946020939093013593505050565b6000602082840312156120e957600080fd5b61105e82612091565b6080815260006121056080830187612039565b6020830195909552509115156040830152606090910152919050565b60008060006060848603121561213657600080fd5b61213f84612091565b925061214d60208501612091565b9150604084013590509250925092565b634e487b7160e01b600052604160045260246000fd5b604051601f8201601f1916810167ffffffffffffffff8111828210171561219c5761219c61215d565b604052919050565b600067ffffffffffffffff8311156121be576121be61215d565b6121d1601f8401601f1916602001612173565b90508281528383830111156121e557600080fd5b828260208301376000602084830101529392505050565b600082601f83011261220d57600080fd5b61105e838335602085016121a4565b60006020828403121561222e57600080fd5b813567ffffffffffffffff81111561224557600080fd5b610fe9848285016121fc565b6020808252825182820181905260009190848201906040850190845b818110156122895783518352928401929184019160010161226d565b50909695505050505050565b600080604083850312156122a857600080fd5b82359150602083013567ffffffffffffffff8111156122c657600080fd5b6122d2858286016121fc565b9150509250929050565b600080604083850312156122ef57600080fd5b6122f883612091565b91506020830135801515811461230d57600080fd5b809150509250929050565b6000806000806080858703121561232e57600080fd5b61233785612091565b935061234560208601612091565b925060408501359150606085013567ffffffffffffffff81111561236857600080fd5b8501601f8101871361237957600080fd5b612388878235602084016121a4565b91505092959194509250565b600080600080608085870312156123aa57600080fd5b843567ffffffffffffffff808211156123c257600080fd5b6123ce888389016121fc565b9550602091508187013594506040870135818111156123ec57600080fd5b6123f889828a016121fc565b94505060608701358181111561240d57600080fd5b8701601f8101891361241e57600080fd5b8035828111156124305761243061215d565b8060051b61243f858201612173565b918252828101850191858101908c84111561245957600080fd5b86850192505b83831015612495578235868111156124775760008081fd5b6124858e89838901016121fc565b835250918601919086019061245f565b999c989b5096995050505050505050565b600080604083850312156124b957600080fd5b6124c283612091565b91506124d060208401612091565b90509250929050565b60c0815260006124ec60c0830189612039565b6001600160a01b03881660208401526040830187905260608301869052841515608084015282810360a08401526125238185612039565b9998505050505050505050565b6000806040838503121561254357600080fd5b823591506124d060208401612091565b600181811c9082168061256757607f821691505b60208210810361258757634e487b7160e01b600052602260045260246000fd5b50919050565b6020808252602d908201527f4552433732313a2063616c6c6572206973206e6f7420746f6b656e206f776e6560408201526c1c881bdc88185c1c1c9bdd9959609a1b606082015260800190565b601f82111561087557600081815260208120601f850160051c810160208610156126015750805b601f850160051c820191505b818110156126205782815560010161260d565b505050505050565b815167ffffffffffffffff8111156126425761264261215d565b612656816126508454612553565b846125da565b602080601f83116001811461268b57600084156126735750858301515b600019600386901b1c1916600185901b178555612620565b600085815260208120601f198616915b828110156126ba5788860151825594840194600190910190840161269b565b50858210156126d85787850151600019600388901b60f8161c191681555b5050505050600190811b01905550565b600083516126fa818460208801612015565b83519083019061270e818360208801612015565b01949350505050565b634e487b7160e01b600052601160045260246000fd5b80820281158282048414176106a1576106a1612717565b60008261276157634e487b7160e01b600052601260045260246000fd5b500490565b818103818111156106a1576106a1612717565b808201808211156106a1576106a1612717565b60208082526025908201527f4552433732313a207472616e736665722066726f6d20696e636f72726563742060408201526437bbb732b960d91b606082015260800190565b60208082526032908201527f4552433732313a207472616e7366657220746f206e6f6e20455243373231526560408201527131b2b4bb32b91034b6b83632b6b2b73a32b960711b606082015260800190565b6001600160a01b038581168252841660208201526040810183905260806060820181905260009061285690830184612039565b9695505050505050565b60006020828403121561287257600080fd5b815161105e81611fe256fea26469706673582212200ec46a024547dd76fe38e6681b3e70bca74fe9502aec8607683e6e14d7aa454c64736f6c63430008140033",
  "linkReferences": {},
  "deployedLinkReferences": {}
}