{
  "_format": "hh-sol-artifact-1",
  "contractName": "MathKG",
  "sourceName": "src/contracts/MathKG.sol",
  "abi": [
    {
      "inputs": [
        {
          "internalType": "string",
          "name": "_description",
          "type": "string"
        }
      ],
      "stateMutability": "nonpayable",
      "type": "constructor"
    },
    {
      "anonymous": false,
      "inputs": [
        {
          "indexed": true,
          "internalType": "uint256",
          "name": "id",
          "type": "uint256"
        },
        {
          "indexed": false,
          "internalType": "string",
          "name": "name",
          "type": "string"
        },
        {
          "indexed": false,
          "internalType": "string",
          "name": "agentType",
          "type": "string"
        }
      ],
      "name": "AgentAdded",
      "type": "event"
    },
    {
      "anonymous": false,
      "inputs": [
        {
          "indexed": true,
          "internalType": "uint256",
          "name": "id",
          "type": "uint256"
        },
        {
          "indexed": false,
          "internalType": "string",
          "name": "name",
          "type": "string"
        }
      ],
      "name": "AgentUpdated",
      "type": "event"
    },
    {
      "anonymous": false,
      "inputs": [
        {
          "indexed": true,
          "internalType": "uint256",
          "name": "id",
          "type": "uint256"
        },
        {
          "indexed": false,
          "internalType": "string",
          "name": "name",
          "type": "string"
        }
      ],
      "name": "ConceptAdded",
      "type": "event"
    },
    {
      "anonymous": false,
      "inputs": [
        {
          "indexed": true,
          "internalType": "uint256",
          "name": "id",
          "type": "uint256"
        },
        {
          "indexed": false,
          "internalType": "string",
          "name": "name",
          "type": "string"
        }
      ],
      "name": "ConceptUpdated",
      "type": "event"
    },
    {
      "anonymous": false,
      "inputs": [
        {
          "indexed": true,
          "internalType": "uint256",
          "name": "id",
          "type": "uint256"
        },
        {
          "indexed": false,
          "internalType": "string",
          "name": "name",
          "type": "string"
        },
        {
          "indexed": false,
          "internalType": "string",
          "name": "category",
          "type": "string"
        }
      ],
      "name": "MathConceptAdded",
      "type": "event"
    },
    {
      "anonymous": false,
      "inputs": [
        {
          "indexed": true,
          "internalType": "uint256",
          "name": "id",
          "type": "uint256"
        },
        {
          "indexed": false,
          "internalType": "string",
          "name": "name",
          "type": "string"
        }
      ],
      "name": "MathConceptUpdated",
      "type": "event"
    },
    {
      "anonymous": false,
      "inputs": [
        {
          "indexed": true,
          "internalType": "uint256",
          "name": "id",
          "type": "uint256"
        },
        {
          "indexed": false,
          "internalType": "string",
          "name": "title",
          "type": "string"
        },
        {
          "indexed": false,
          "internalType": "string",
          "name": "difficulty",
          "type": "string"
        }
      ],
      "name": "MathProblemAdded",
      "type": "event"
    },
    {
      "anonymous": false,
      "inputs": [
        {
          "indexed": true,
          "internalType": "uint256",
          "name": "id",
          "type": "uint256"
        },
        {
          "indexed": false,
          "internalType": "string",
          "name": "title",
          "type": "string"
        }
      ],
      "name": "MathProblemUpdated",
      "type": "event"
    },
    {
      "anonymous": false,
      "inputs": [
        {
          "indexed": true,
          "internalType": "uint256",
          "name": "id",
          "type": "uint256"
        },
        {
          "indexed": false,
          "internalType": "string",
          "name": "title",
          "type": "string"
        }
      ],
      "name": "MathProofAdded",
      "type": "event"
    },
    {
      "anonymous": false,
      "inputs": [
        {
          "indexed": true,
          "internalType": "uint256",
          "name": "id",
          "type": "uint256"
        },
        {
          "indexed": false,
          "internalType": "string",
          "name": "title",
          "type": "string"
        }
      ],
      "name": "MathProofUpdated",
      "type": "event"
    },
    {
      "anonymous": false,
      "inputs": [
        {
          "indexed": true,
          "internalType": "address",
          "name": "previousOwner",
          "type": "address"
        },
        {
          "indexed": true,
          "internalType": "address",
          "name": "newOwner",
          "type": "address"
        }
      ],
      "name": "OwnershipTransferred",
      "type": "event"
    },
    {
      "anonymous": false,
      "inputs": [
        {
          "indexed": false,
          "internalType": "address",
          "name": "account",
          "type": "address"
        }
      ],
      "name": "Paused",
      "type": "event"
    },
    {
      "anonymous": false,
      "inputs": [
        {
          "indexed": true,
          "internalType": "uint256",
          "name": "id",
          "type": "uint256"
        },
        {
          "indexed": false,
          "internalType": "uint256",
          "name": "source",
          "type": "uint256"
        },
        {
          "indexed": false,
          "internalType": "uint256",
          "name": "target",
          "type": "uint256"
        },
        {
          "indexed": false,
          "internalType": "string",
          "name": "relationType",
          "type": "string"
        }
      ],
      "name": "RelationshipAdded",
      "type": "event"
    },
    {
      "anonymous": false,
      "inputs": [
        {
          "indexed": true,
          "internalType": "uint256",
          "name": "id",
          "type": "uint256"
        }
      ],
      "name": "RelationshipUpdated",
      "type": "event"
    },
    {
      "anonymous": false,
      "inputs": [
        {
          "indexed": false,
          "internalType": "address",
          "name": "account",
          "type": "address"
        }
      ],
      "name": "Unpaused",
      "type": "event"
    },
    {
      "inputs": [
        {
          "internalType": "string",
          "name": "name",
          "type": "string"
        },
        {
          "internalType": "string",
          "name": "category",
          "type": "string"
        },
        {
          "internalType": "string",
          "name": "agentType",
          "type": "string"
        },
        {
          "internalType": "string",
          "name": "metadata",
          "type": "string"
        },
        {
          "internalType": "address",
          "name": "creatorWallet",
          "type": "address"
        },
        {
          "internalType": "uint256",
          "name": "transactionFee",
          "type": "uint256"
        }
      ],
      "name": "addAgent",
      "outputs": [
        {
          "internalType": "uint256",
          "name": "",
          "type": "uint256"
        }
      ],
      "stateMutability": "nonpayable",
      "type": "function"
    },
    {
      "inputs": [
        {
          "internalType": "string",
          "name": "name",
          "type": "string"
        },
        {
          "internalType": "string",
          "name": "conceptDescription",
          "type": "string"
        },
        {
          "internalType": "string[]",
          "name": "tags",
          "type": "string[]"
        },
        {
          "internalType": "string",
          "name": "metadata",
          "type": "string"
        }
      ],
      "name": "addConcept",
      "outputs": [
        {
          "internalType": "uint256",
          "name": "",
          "type": "uint256"
        }
      ],
      "stateMutability": "nonpayable",
      "type": "function"
    },
    {
      "inputs": [
        {
          "internalType": "string",
          "name": "name",
          "type": "string"
        },
        {
          "internalType": "string",
          "name": "description",
          "type": "string"
        },
        {
          "internalType": "string",
          "name": "category",
          "type": "string"
        },
        {
          "internalType": "string[]",
          "name": "prerequisites",
          "type": "string[]"
        },
        {
          "internalType": "string",
          "name": "notation",
          "type": "string"
        },
        {
          "internalType": "string",
          "name": "formalDefinition",
          "type": "string"
        },
        {
          "internalType": "string",
          "name": "metadata",
          "type": "string"
        }
      ],
      "name": "addMathConcept",
      "outputs": [
        {
          "internalType": "uint256",
          "name": "",
          "type": "uint256"
        }
      ],
      "stateMutability": "nonpayable",
      "type": "function"
    },
    {
      "inputs": [
        {
          "internalType": "string",
          "name": "title",
          "type": "string"
        },
        {
          "internalType": "string",
          "name": "description",
          "type": "string"
        },
        {
          "internalType": "string",
          "name": "difficulty",
          "type": "string"
        },
        {
          "internalType": "string",
          "name": "solution",
          "type": "string"
        },
        {
          "internalType": "uint256[]",
          "name": "relatedConcepts",
          "type": "uint256[]"
        },
        {
          "internalType": "string",
          "name": "metadata",
          "type": "string"
        }
      ],
      "name": "addMathProblem",
      "outputs": [
        {
          "internalType": "uint256",
          "name": "",
          "type": "uint256"
        }
      ],
      "stateMutability": "nonpayable",
      "type": "function"
    },
    {
      "inputs": [
        {
          "internalType": "string",
          "name": "title",
          "type": "string"
        },
        {
          "internalType": "string",
          "name": "description",
          "type": "string"
        },
        {
          "internalType": "string",
          "name": "proofSteps",
          "type": "string"
        },
        {
          "internalType": "uint256[]",
          "name": "relatedConcepts",
          "type": "uint256[]"
        },
        {
          "internalType": "string",
          "name": "metadata",
          "type": "string"
        }
      ],
      "name": "addMathProof",
      "outputs": [
        {
          "internalType": "uint256",
          "name": "",
          "type": "uint256"
        }
      ],
      "stateMutability": "nonpayable",
      "type": "function"
    },
    {
      "inputs": [
        {
          "internalType": "uint256",
          "name": "source",
          "type": "uint256"
        },
        {
          "internalType": "uint256",
          "name": "target",
          "type": "uint256"
        },
        {
          "internalType": "string",
          "name": "relationType",
          "type": "string"
        },
        {
          "internalType": "uint256",
          "name": "weight",
          "type": "uint256"
        },
        {
          "internalType": "string",
          "name": "metadata",
          "type": "string"
        }
      ],
      "name": "addRelationship",
      "outputs": [
        {
          "internalType": "uint256",
          "name": "",
          "type": "uint256"
        }
      ],
      "stateMutability": "nonpayable",
      "type": "function"
    },
    {
      "inputs": [],
      "name": "description",
      "outputs": [
        {
          "internalType": "string",
          "name": "",
          "type": "string"
        }
      ],
      "stateMutability": "view",
      "type": "function"
    },
    {
      "inputs": [],
      "name": "domain",
      "outputs": [
        {
          "internalType": "string",
          "name": "",
          "type": "string"
        }
      ],
      "stateMutability": "view",
      "type": "function"
    },
    {
      "inputs": [
        {
          "internalType": "uint256",
          "name": "agentId",
          "type": "uint256"
        }
      ],
      "name": "getAgent",
      "outputs": [
        {
          "internalType": "uint256",
          "name": "id",
          "type": "uint256"
        },
        {
          "internalType": "string",
          "name": "name",
          "type": "string"
        },
        {
          "internalType": "string",
          "name": "category",
          "type": "string"
        },
        {
          "internalType": "string",
          "name": "agentType",
          "type": "string"
        },
        {
          "internalType": "uint256",
          "name": "usageCount",
          "type": "uint256"
        },
        {
          "internalType": "uint256",
          "name": "successCount",
          "type": "uint256"
        },
        {
          "internalType": "string",
          "name": "metadata",
          "type": "string"
        },
        {
          "internalType": "address",
          "name": "creatorWallet",
          "type": "address"
        },
        {
          "internalType": "uint256",
          "name": "transactionFee",
          "type": "uint256"
        }
      ],
      "stateMutability": "view",
      "type": "function"
    },
    {
      "inputs": [],
      "name": "getAgentCount",
      "outputs": [
        {
          "internalType": "uint256",
          "name": "",
          "type": "uint256"
        }
      ],
      "stateMutability": "view",
      "type": "function"
    },
    {
      "inputs": [
        {
          "internalType": "string",
          "name": "name",
          "type": "string"
        }
      ],
      "name": "getAgentIdByName",
      "outputs": [
        {
          "internalType": "uint256",
          "name": "",
          "type": "uint256"
        }
      ],
      "stateMutability": "view",
      "type": "function"
    },
    {
      "inputs": [
        {
          "internalType": "uint256",
          "name": "conceptId",
          "type": "uint256"
        }
      ],
      "name": "getConcept",
      "outputs": [
        {
          "internalType": "uint256",
          "name": "id",
          "type": "uint256"
        },
        {
          "internalType": "string",
          "name": "name",
          "type": "string"
        },
        {
          "internalType": "string",
          "name": "description",
          "type": "string"
        },
        {
          "internalType": "string[]",
          "name": "tags",
          "type": "string[]"
        },
        {
          "internalType": "string",
          "name": "metadata",
          "type": "string"
        }
      ],
      "stateMutability": "view",
      "type": "function"
    },
    {
      "inputs": [],
      "name": "getConceptCount",
      "outputs": [
        {
          "internalType": "uint256",
          "name": "",
          "type": "uint256"
        }
      ],
      "stateMutability": "view",
      "type": "function"
    },
    {
      "inputs": [
        {
          "internalType": "string",
          "name": "name",
          "type": "string"
        }
      ],
      "name": "getConceptIdByName",
      "outputs": [
        {
          "internalType": "uint256",
          "name": "",
          "type": "uint256"
        }
      ],
      "stateMutability": "view",
      "type": "function"
    },
    {
      "inputs": [
        {
          "internalType": "uint256",
          "name": "conceptId",
          "type": "uint256"
        }
      ],
      "name": "getConceptTags",
      "outputs": [
        {
          "internalType": "string[]",
          "name": "",
          "type": "string[]"
        }
      ],
      "stateMutability": "view",
      "type": "function"
    },
    {
      "inputs": [
        {
          "internalType": "uint256",
          "name": "conceptId",
          "type": "uint256"
        }
      ],
      "name": "getMathConcept",
      "outputs": [
        {
          "internalType": "uint256",
          "name": "id",
          "type": "uint256"
        },
        {
          "internalType": "string",
          "name": "name",
          "type": "string"
        },
        {
          "internalType": "string",
          "name": "description",
          "type": "string"
        },
        {
          "internalType": "string",
          "name": "category",
          "type": "string"
        },
        {
          "internalType": "string",
          "name": "notation",
          "type": "string"
        },
        {
          "internalType": "string",
          "name": "formalDefinition",
          "type": "string"
        },
        {
          "internalType": "string",
          "name": "metadata",
          "type": "string"
        }
      ],
      "stateMutability": "view",
      "type": "function"
    },
    {
      "inputs": [],
      "name": "getMathConceptCount",
      "outputs": [
        {
          "internalType": "uint256",
          "name": "",
          "type": "uint256"
        }
      ],
      "stateMutability": "view",
      "type": "function"
    },
    {
      "inputs": [
        {
          "internalType": "string",
          "name": "name",
          "type": "string"
        }
      ],
      "name": "getMathConceptIdByName",
      "outputs": [
        {
          "internalType": "uint256",
          "name": "",
          "type": "uint256"
        }
      ],
      "stateMutability": "view",
      "type": "function"
    },
    {
      "inputs": [
        {
          "internalType": "uint256",
          "name": "conceptId",
          "type": "uint256"
        }
      ],
      "name": "getMathConceptPrerequisites",
      "outputs": [
        {
          "internalType": "string[]",
          "name": "",
          "type": "string[]"
        }
      ],
      "stateMutability": "view",
      "type": "function"
    },
    {
      "inputs": [
        {
          "internalType": "uint256",
          "name": "problemId",
          "type": "uint256"
        }
      ],
      "name": "getMathProblem",
      "outputs": [
        {
          "internalType": "uint256",
          "name": "id",
          "type": "uint256"
        },
        {
          "internalType": "string",
          "name": "title",
          "type": "string"
        },
        {
          "internalType": "string",
          "name": "description",
          "type": "string"
        },
        {
          "internalType": "string",
          "name": "difficulty",
          "type": "string"
        },
        {
          "internalType": "string",
          "name": "solution",
          "type": "string"
        },
        {
          "internalType": "uint256[]",
          "name": "relatedConcepts",
          "type": "uint256[]"
        },
        {
          "internalType": "string",
          "name": "metadata",
          "type": "string"
        }
      ],
      "stateMutability": "view",
      "type": "function"
    },
    {
      "inputs": [],
      "name": "getMathProblemCount",
      "outputs": [
        {
          "internalType": "uint256",
          "name": "",
          "type": "uint256"
        }
      ],
      "stateMutability": "view",
      "type": "function"
    },
    {
      "inputs": [
        {
          "internalType": "uint256",
          "name": "problemId",
          "type": "uint256"
        }
      ],
      "name": "getMathProblemRelatedConcepts",
      "outputs": [
        {
          "internalType": "uint256[]",
          "name": "",
          "type": "uint256[]"
        }
      ],
      "stateMutability": "view",
      "type": "function"
    },
    {
      "inputs": [
        {
          "internalType": "uint256",
          "name": "proofId",
          "type": "uint256"
        }
      ],
      "name": "getMathProof",
      "outputs": [
        {
          "internalType": "uint256",
          "name": "id",
          "type": "uint256"
        },
        {
          "internalType": "string",
          "name": "title",
          "type": "string"
        },
        {
          "internalType": "string",
          "name": "description",
          "type": "string"
        },
        {
          "internalType": "string",
          "name": "proofSteps",
          "type": "string"
        },
        {
          "internalType": "string",
          "name": "metadata",
          "type": "string"
        }
      ],
      "stateMutability": "view",
      "type": "function"
    },
    {
      "inputs": [],
      "name": "getMathProofCount",
      "outputs": [
        {
          "internalType": "uint256",
          "name": "",
          "type": "uint256"
        }
      ],
      "stateMutability": "view",
      "type": "function"
    },
    {
      "inputs": [
        {
          "internalType": "uint256",
          "name": "proofId",
          "type": "uint256"
        }
      ],
      "name": "getMathProofRelatedConcepts",
      "outputs": [
        {
          "internalType": "uint256[]",
          "name": "",
          "type": "uint256[]"
        }
      ],
      "stateMutability": "view",
      "type": "function"
    },
    {
      "inputs": [
        {
          "internalType": "uint256",
          "name": "relationshipId",
          "type": "uint256"
        }
      ],
      "name": "getRelationship",
      "outputs": [
        {
          "internalType": "uint256",
          "name": "id",
          "type": "uint256"
        },
        {
          "internalType": "uint256",
          "name": "source",
          "type": "uint256"
        },
        {
          "internalType": "uint256",
          "name": "target",
          "type": "uint256"
        },
        {
          "internalType": "string",
          "name": "relationType",
          "type": "string"
        },
        {
          "internalType": "uint256",
          "name": "weight",
          "type": "uint256"
        },
        {
          "internalType": "string",
          "name": "metadata",
          "type": "string"
        }
      ],
      "stateMutability": "view",
      "type": "function"
    },
    {
      "inputs": [],
      "name": "getRelationshipCount",
      "outputs": [
        {
          "internalType": "uint256",
          "name": "",
          "type": "uint256"
        }
      ],
      "stateMutability": "view",
      "type": "function"
    },
    {
      "inputs": [],
      "name": "owner",
      "outputs": [
        {
          "internalType": "address",
          "name": "",
          "type": "address"
        }
      ],
      "stateMutability": "view",
      "type": "function"
    },
    {
      "inputs": [],
      "name": "pause",
      "outputs": [],
      "stateMutability": "nonpayable",
      "type": "function"
    },
    {
      "inputs": [],
      "name": "paused",
      "outputs": [
        {
          "internalType": "bool",
          "name": "",
          "type": "bool"
        }
      ],
      "stateMutability": "view",
      "type": "function"
    },
    {
      "inputs": [
        {
          "internalType": "uint256",
          "name": "agentId",
          "type": "uint256"
        },
        {
          "internalType": "bool",
          "name": "success",
          "type": "bool"
        }
      ],
      "name": "recordAgentUsage",
      "outputs": [],
      "stateMutability": "nonpayable",
      "type": "function"
    },
    {
      "inputs": [],
      "name": "renounceOwnership",
      "outputs": [],
      "stateMutability": "nonpayable",
      "type": "function"
    },
    {
      "inputs": [
        {
          "internalType": "address",
          "name": "newOwner",
          "type": "address"
        }
      ],
      "name": "transferOwnership",
      "outputs": [],
      "stateMutability": "nonpayable",
      "type": "function"
    },
    {
      "inputs": [],
      "name": "unpause",
      "outputs": [],
      "stateMutability": "nonpayable",
      "type": "function"
    },
    {
      "inputs": [
        {
          "internalType": "uint256",
          "name": "agentId",
          "type": "uint256"
        },
        {
          "internalType": "string",
          "name": "metadata",
          "type": "string"
        }
      ],
      "name": "updateAgentMetadata",
      "outputs": [],
      "stateMutability": "nonpayable",
      "type": "function"
    },
    {
      "inputs": [
        {
          "internalType": "uint256",
          "name": "conceptId",
          "type": "uint256"
        },
        {
          "internalType": "string",
          "name": "name",
          "type": "string"
        },
        {
          "internalType": "string",
          "name": "conceptDescription",
          "type": "string"
        },
        {
          "internalType": "string[]",
          "name": "tags",
          "type": "string[]"
        },
        {
          "internalType": "string",
          "name": "metadata",
          "type": "string"
        }
      ],
      "name": "updateConcept",
      "outputs": [],
      "stateMutability": "nonpayable",
      "type": "function"
    },
    {
      "inputs": [
        {
          "internalType": "uint256",
          "name": "conceptId",
          "type": "uint256"
        },
        {
          "internalType": "string",
          "name": "metadata",
          "type": "string"
        }
      ],
      "name": "updateMathConceptMetadata",
      "outputs": [],
      "stateMutability": "nonpayable",
      "type": "function"
    },
    {
      "inputs": [
        {
          "internalType": "uint256",
          "name": "problemId",
          "type": "uint256"
        },
        {
          "internalType": "string",
          "name": "metadata",
          "type": "string"
        }
      ],
      "name": "updateMathProblemMetadata",
      "outputs": [],
      "stateMutability": "nonpayable",
      "type": "function"
    },
    {
      "inputs": [
        {
          "internalType": "uint256",
          "name": "proofId",
          "type": "uint256"
        },
        {
          "internalType": "string",
          "name": "metadata",
          "type": "string"
        }
      ],
      "name": "updateMathProofMetadata",
      "outputs": [],
      "stateMutability": "nonpayable",
      "type": "function"
    },
    {
      "inputs": [
        {
          "internalType": "uint256",
          "name": "relationshipId",
          "type": "uint256"
        },
        {
          "internalType": "string",
          "name": "metadata",
          "type": "string"
        }
      ],
      "name": "updateRelationshipMetadata",
      "outputs": [],
      "stateMutability": "nonpayable",
      "type": "function"
    },
    {
      "inputs": [
        {
          "internalType": "uint256",
          "name": "relationshipId",
          "type": "uint256"
        },
        {
          "internalType": "uint256",
          "name": "weight",
          "type": "uint256"
        }
      ],
      "name": "updateRelationshipWeight",
      "outputs": [],
      "stateMutability": "nonpayable",
      "type": "function"
    }
  ],
  "bytecode": "0x60806040523480156200001157600080fd5b506040516200484b3803806200484b833981016040819052620000349162000150565b60408051808201909152600b81526a4d617468656d617469637360a81b6020820152816200006233620000ea565b6000805460ff60a01b1916905560046200007d8382620002b4565b5060056200008c8282620002b4565b506200009c600180546001019055565b620000ab600280546001019055565b620000ba600380546001019055565b5050600b80546001019055620000d4600c80546001019055565b620000e3600d80546001019055565b5062000380565b600080546001600160a01b038381166001600160a01b0319831681178455604051919092169283917f8be0079c531659141344cd1fd0a4f28419497f9722a3daafe3b4186f6b6457e09190a35050565b634e487b7160e01b600052604160045260246000fd5b600060208083850312156200016457600080fd5b82516001600160401b03808211156200017c57600080fd5b818501915085601f8301126200019157600080fd5b815181811115620001a657620001a66200013a565b604051601f8201601f19908116603f01168101908382118183101715620001d157620001d16200013a565b816040528281528886848701011115620001ea57600080fd5b600093505b828410156200020e5784840186015181850187015292850192620001ef565b600086848301015280965050505050505092915050565b600181811c908216806200023a57607f821691505b6020821081036200025b57634e487b7160e01b600052602260045260246000fd5b50919050565b601f821115620002af57600081815260208120601f850160051c810160208610156200028a5750805b601f850160051c820191505b81811015620002ab5782815560010162000296565b5050505b505050565b81516001600160401b03811115620002d057620002d06200013a565b620002e881620002e1845462000225565b8462000261565b602080601f831160018114620003205760008415620003075750858301515b600019600386901b1c1916600185901b178555620002ab565b600085815260208120601f198616915b82811015620003515788860151825594840194600190910190840162000330565b5085821015620003705787850151600019600388901b60f8161c191681555b5050505050600190811b01905550565b6144bb80620003906000396000f3fe608060405234801561001057600080fd5b50600436106102525760003560e01c80638456cb5911610146578063bd56b82a116100c3578063f2fde38b11610087578063f2fde38b14610527578063f6462bdf1461053a578063faccf3681461054d578063fc6095f914610560578063fc71d24a14610584578063ff66fa2f1461059757600080fd5b8063bd56b82a146104d1578063c2fb26a6146104f1578063da76f8e6146104f9578063e3eb774314610501578063ed72e9991461051457600080fd5b80639162f43c1161010a5780639162f43c1461049357806391cab63e1461049b5780639b386ffa146104a3578063b0294f8a146104b6578063b76100e6146104c957600080fd5b80638456cb5914610431578063851c8250146104395780638577bb15146104415780638b7f2483146104545780638da5cb5b1461047857600080fd5b806368e06359116101d4578063767a324b11610198578063767a324b146103ca57806379e728ee146103dd5780637e7fc64c146104035780637f3f26af1461040b578063838216161461041e57600080fd5b806368e06359146103745780636cfa05f114610387578063715018a61461039a57806371eb37f6146103a25780637284e416146103b557600080fd5b80632f90a2871161021b5780632f90a287146102f5578063322e41b5146103155780633f4ba83a1461033a57806350db8da4146103445780635c975abb1461035757600080fd5b80622e907114610257578063105203eb146102865780632c9a1cf2146102a75780632d5c1544146102ba5780632de5aaf7146102cd575b600080fd5b61026a610265366004613461565b6105aa565b60405161027d9796959493929190613505565b60405180910390f35b6102996102943660046136f5565b6109a0565b60405190815260200161027d565b6102996102b53660046137bd565b610b2b565b6102996102c8366004613882565b610d60565b6102e06102db366004613461565b610dcc565b60405161027d999897969594939291906138be565b610308610303366004613461565b61113c565b60405161027d9190613998565b610328610323366004613461565b611257565b60405161027d969594939291906139b2565b610342611443565b005b6103426103523660046139fc565b611455565b600054600160a01b900460ff16604051901515815260200161027d565b610299610382366004613882565b6114f2565b610342610395366004613a31565b61155f565b6103426115ee565b6102996103b0366004613ad2565b611600565b6103bd611806565b60405161027d9190613bc6565b6103086103d8366004613461565b611894565b6103f06103eb366004613461565b6119a2565b60405161027d9796959493929190613bd9565b610299611ea2565b610342610419366004613c40565b611ebe565b61029961042c366004613882565b612043565b6103426120ab565b6102996120bb565b61029961044f366004613cf6565b6120c8565b610467610462366004613461565b6122f8565b60405161027d959493929190613e10565b6000546040516001600160a01b03909116815260200161027d565b610299612627565b610299612634565b6103426104b1366004613e63565b612641565b6103426104c4366004613a31565b6126c4565b610299612775565b6104e46104df366004613461565b612782565b60405161027d9190613e85565b6103bd61281c565b610299612829565b61029961050f366004613e98565b612836565b610342610522366004613a31565b612953565b610342610535366004613efe565b6129f8565b610299610548366004613f19565b612a71565b61034261055b366004613a31565b612c59565b61057361056e366004613461565b612cfd565b60405161027d959493929190613fba565b610342610592366004613a31565b61303d565b6104e46105a5366004613461565b6130e1565b6000818152600f602052604081206007015460609081908190819081908190889060ff166105f35760405162461bcd60e51b81526004016105ea90613ff9565b60405180910390fd5b6000600f60008b8152602001908152602001600020604051806101000160405290816000820154815260200160018201805461062e90614030565b80601f016020809104026020016040519081016040528092919081815260200182805461065a90614030565b80156106a75780601f1061067c576101008083540402835291602001916106a7565b820191906000526020600020905b81548152906001019060200180831161068a57829003601f168201915b505050505081526020016002820180546106c090614030565b80601f01602080910402602001604051908101604052809291908181526020018280546106ec90614030565b80156107395780601f1061070e57610100808354040283529160200191610739565b820191906000526020600020905b81548152906001019060200180831161071c57829003601f168201915b5050505050815260200160038201805461075290614030565b80601f016020809104026020016040519081016040528092919081815260200182805461077e90614030565b80156107cb5780601f106107a0576101008083540402835291602001916107cb565b820191906000526020600020905b8154815290600101906020018083116107ae57829003601f168201915b505050505081526020016004820180546107e490614030565b80601f016020809104026020016040519081016040528092919081815260200182805461081090614030565b801561085d5780601f106108325761010080835404028352916020019161085d565b820191906000526020600020905b81548152906001019060200180831161084057829003601f168201915b50505050508152602001600582018054806020026020016040519081016040528092919081815260200182805480156108b557602002820191906000526020600020905b8154815260200190600101908083116108a1575b505050505081526020016006820180546108ce90614030565b80601f01602080910402602001604051908101604052809291908181526020018280546108fa90614030565b80156109475780601f1061091c57610100808354040283529160200191610947565b820191906000526020600020905b81548152906001019060200180831161092a57829003601f168201915b50505091835250506007919091015460ff16151560209182015281519082015160408301516060840151608085015160a086015160c090960151949e50929c50909a509850965090945092505050919395979092949650565b60006109aa613179565b6109b26131d3565b600a856040516109c29190614064565b9081526020016040518091039020546000146109f05760405162461bcd60e51b81526004016105ea90614080565b60006109fb60025490565b6040805160c08101825282815260208082018a81528284018a90526060830189905260808301889052600160a08401819052600086815260079093529390912082518155905193945090929091820190610a559082614113565b5060408201516002820190610a6a9082614113565b5060608201518051610a86916003840191602090910190613358565b5060808201516004820190610a9b9082614113565b5060a091909101516005909101805460ff19169115159190911790556040518190600a90610aca908990614064565b908152602001604051809103902081905550807f8192dd8726ce15ed826e6710fb69cf4c312432afdac621208089faefaf34160587604051610b0c9190613bc6565b60405180910390a2610b22600280546001019055565b95945050505050565b6000610b35613179565b610b3d6131d3565b600987604051610b4d9190614064565b908152602001604051809103902054600014610bb75760405162461bcd60e51b815260206004820152602360248201527f4167656e7420776974682074686973206e616d6520616c72656164792065786960448201526273747360e81b60648201526084016105ea565b6000610bc260015490565b90506040518061014001604052808281526020018981526020018881526020018781526020016000815260200160008152602001868152602001856001600160a01b031681526020018481526020016001151581525060066000838152602001908152602001600020600082015181600001556020820151816001019081610c4a9190614113565b5060408201516002820190610c5f9082614113565b5060608201516003820190610c749082614113565b506080820151600482015560a0820151600582015560c08201516006820190610c9d9082614113565b5060e08201516007820180546001600160a01b0319166001600160a01b039092169190911790556101008201516008820155610120909101516009918201805460ff1916911515919091179055604051829190610cfb908b90614064565b908152602001604051809103902081905550807f1905603be3d1c5a2793c4c68121204e9e7849a9d9a7d0a0a988f7177bb5e7f5f8988604051610d3f9291906141d2565b60405180910390a2610d55600180546001019055565b979650505050505050565b600080600983604051610d739190614064565b908152602001604051809103902054905080600003610dc65760405162461bcd60e51b815260206004820152600f60248201526e1059d95b9d081b9bdd08199bdd5b99608a1b60448201526064016105ea565b92915050565b60008181526006602052604081206009015460609081908190849081908390829081908a9060ff16610e105760405162461bcd60e51b81526004016105ea906141f7565b6000600660008d81526020019081526020016000206040518061014001604052908160008201548152602001600182018054610e4b90614030565b80601f0160208091040260200160405190810160405280929190818152602001828054610e7790614030565b8015610ec45780601f10610e9957610100808354040283529160200191610ec4565b820191906000526020600020905b815481529060010190602001808311610ea757829003601f168201915b50505050508152602001600282018054610edd90614030565b80601f0160208091040260200160405190810160405280929190818152602001828054610f0990614030565b8015610f565780601f10610f2b57610100808354040283529160200191610f56565b820191906000526020600020905b815481529060010190602001808311610f3957829003601f168201915b50505050508152602001600382018054610f6f90614030565b80601f0160208091040260200160405190810160405280929190818152602001828054610f9b90614030565b8015610fe85780601f10610fbd57610100808354040283529160200191610fe8565b820191906000526020600020905b815481529060010190602001808311610fcb57829003601f168201915b50505050508152602001600482015481526020016005820154815260200160068201805461101590614030565b80601f016020809104026020016040519081016040528092919081815260200182805461104190614030565b801561108e5780601f106110635761010080835404028352916020019161108e565b820191906000526020600020905b81548152906001019060200180831161107157829003601f168201915b505050505081526020016007820160009054906101000a90046001600160a01b03166001600160a01b03166001600160a01b03168152602001600882015481526020016009820160009054906101000a900460ff1615151515815250509050806000015181602001518260400151836060015184608001518560a001518660c001518760e001518861010001519a509a509a509a509a509a509a509a509a5050509193959799909294969850565b600081815260076020526040902060050154606090829060ff166111725760405162461bcd60e51b81526004016105ea90614225565b600083815260076020908152604080832060030180548251818502810185019093528083529193909284015b8282101561124a5783829060005260206000200180546111bd90614030565b80601f01602080910402602001604051908101604052809291908181526020018280546111e990614030565b80156112365780601f1061120b57610100808354040283529160200191611236565b820191906000526020600020905b81548152906001019060200180831161121957829003601f168201915b50505050508152602001906001019061119e565b5050505091505b50919050565b6000818152600860205260408120600601548190819060609082908290879060ff166112955760405162461bcd60e51b81526004016105ea90614255565b6000600860008a81526020019081526020016000206040518060e00160405290816000820154815260200160018201548152602001600282015481526020016003820180546112e390614030565b80601f016020809104026020016040519081016040528092919081815260200182805461130f90614030565b801561135c5780601f106113315761010080835404028352916020019161135c565b820191906000526020600020905b81548152906001019060200180831161133f57829003601f168201915b505050505081526020016004820154815260200160058201805461137f90614030565b80601f01602080910402602001604051908101604052809291908181526020018280546113ab90614030565b80156113f85780601f106113cd576101008083540402835291602001916113f8565b820191906000526020600020905b8154815290600101906020018083116113db57829003601f168201915b50505091835250506006919091015460ff16151560209182015281519082015160408301516060840151608085015160a090950151939e929d50909b50995091975095509350505050565b61144b613179565b611453613220565b565b61145d613179565b6114656131d3565b600082815260066020526040902060090154829060ff166114985760405162461bcd60e51b81526004016105ea906141f7565b60008381526006602052604081206004018054600192906114ba9084906142a2565b909155505081156114ed5760008381526006602052604081206005018054600192906114e79084906142a2565b90915550505b505050565b6000806011836040516115059190614064565b908152602001604051809103902054905080600003610dc65760405162461bcd60e51b815260206004820152601660248201527513585d1a0818dbdb98d95c1d081b9bdd08199bdd5b9960521b60448201526064016105ea565b611567613179565b61156f6131d3565b600082815260086020526040902060060154829060ff166115a25760405162461bcd60e51b81526004016105ea90614255565b60008381526008602052604090206005016115bd8382614113565b5060405183907fbdd41a4bc7e629ea27b37486874394ab751fa1e56bd30e0aaa87fa5cae46e68f90600090a2505050565b6115f6613179565b6114536000613275565b600061160a613179565b6116126131d3565b600061161d600c5490565b905060005b84518110156116c057600e6000868381518110611641576116416142b5565b60209081029190910181015182528101919091526040016000206008015460ff166116ae5760405162461bcd60e51b815260206004820152601e60248201527f52656c6174656420636f6e6365707420646f6573206e6f74206578697374000060448201526064016105ea565b806116b8816142cb565b915050611622565b5060405180610100016040528082815260200189815260200188815260200187815260200186815260200185815260200184815260200160011515815250600f60008381526020019081526020016000206000820151816000015560208201518160010190816117309190614113565b50604082015160028201906117459082614113565b506060820151600382019061175a9082614113565b506080820151600482019061176f9082614113565b5060a0820151805161178b9160058401916020909101906133ae565b5060c082015160068201906117a09082614113565b5060e091909101516007909101805460ff191691151591909117905560405181907f689b750eb1565ad3bf871abc34e847560c2f1dc4bf61a8e900eb887fa9d914af906117f0908b908a906141d2565b60405180910390a2610d55600c80546001019055565b6005805461181390614030565b80601f016020809104026020016040519081016040528092919081815260200182805461183f90614030565b801561188c5780601f106118615761010080835404028352916020019161188c565b820191906000526020600020905b81548152906001019060200180831161186f57829003601f168201915b505050505081565b6000818152600e6020526040902060080154606090829060ff166118ca5760405162461bcd60e51b81526004016105ea906142e4565b6000838152600e6020908152604080832060040180548251818502810185019093528083529193909284015b8282101561124a57838290600052602060002001805461191590614030565b80601f016020809104026020016040519081016040528092919081815260200182805461194190614030565b801561198e5780601f106119635761010080835404028352916020019161198e565b820191906000526020600020905b81548152906001019060200180831161197157829003601f168201915b5050505050815260200190600101906118f6565b6000818152600e602052604081206008015460609081908190819081908190889060ff166119e25760405162461bcd60e51b81526004016105ea906142e4565b6000600e60008b81526020019081526020016000206040518061012001604052908160008201548152602001600182018054611a1d90614030565b80601f0160208091040260200160405190810160405280929190818152602001828054611a4990614030565b8015611a965780601f10611a6b57610100808354040283529160200191611a96565b820191906000526020600020905b815481529060010190602001808311611a7957829003601f168201915b50505050508152602001600282018054611aaf90614030565b80601f0160208091040260200160405190810160405280929190818152602001828054611adb90614030565b8015611b285780601f10611afd57610100808354040283529160200191611b28565b820191906000526020600020905b815481529060010190602001808311611b0b57829003601f168201915b50505050508152602001600382018054611b4190614030565b80601f0160208091040260200160405190810160405280929190818152602001828054611b6d90614030565b8015611bba5780601f10611b8f57610100808354040283529160200191611bba565b820191906000526020600020905b815481529060010190602001808311611b9d57829003601f168201915b5050505050815260200160048201805480602002602001604051908101604052809291908181526020016000905b82821015611c94578382906000526020600020018054611c0790614030565b80601f0160208091040260200160405190810160405280929190818152602001828054611c3390614030565b8015611c805780601f10611c5557610100808354040283529160200191611c80565b820191906000526020600020905b815481529060010190602001808311611c6357829003601f168201915b505050505081526020019060010190611be8565b505050508152602001600582018054611cac90614030565b80601f0160208091040260200160405190810160405280929190818152602001828054611cd890614030565b8015611d255780601f10611cfa57610100808354040283529160200191611d25565b820191906000526020600020905b815481529060010190602001808311611d0857829003601f168201915b50505050508152602001600682018054611d3e90614030565b80601f0160208091040260200160405190810160405280929190818152602001828054611d6a90614030565b8015611db75780601f10611d8c57610100808354040283529160200191611db7565b820191906000526020600020905b815481529060010190602001808311611d9a57829003601f168201915b50505050508152602001600782018054611dd090614030565b80601f0160208091040260200160405190810160405280929190818152602001828054611dfc90614030565b8015611e495780601f10611e1e57610100808354040283529160200191611e49565b820191906000526020600020905b815481529060010190602001808311611e2c57829003601f168201915b50505091835250506008919091015460ff1615156020918201528151908201516040830151606084015160a085015160c086015160e090960151949e50929c50909a509850965090945092505050919395979092949650565b60006001611eaf600c5490565b611eb9919061431b565b905090565b611ec6613179565b611ece6131d3565b600085815260076020526040902060050154859060ff16611f015760405162461bcd60e51b81526004016105ea90614225565b600a85604051611f119190614064565b90815260200160405180910390205460001480611f4b575085600a86604051611f3a9190614064565b908152602001604051809103902054145b611f675760405162461bcd60e51b81526004016105ea90614080565b6000868152600760205260408082209051909190600a90611f8c90600185019061432e565b9081526040519081900360200190205560018101611faa8782614113565b5060028101611fb98682614113565b508351611fcf9060038301906020870190613358565b5060048101611fde8482614113565b5086600a87604051611ff09190614064565b908152602001604051809103902081905550867f197a60c3198aee82cf7936c79248a7c6ba21e2ec319b274aed0a4cce0a3c0ce9876040516120329190613bc6565b60405180910390a250505050505050565b600080600a836040516120569190614064565b908152602001604051809103902054905080600003610dc65760405162461bcd60e51b815260206004820152601160248201527010dbdb98d95c1d081b9bdd08199bdd5b99607a1b60448201526064016105ea565b6120b3613179565b6114536132c5565b60006001611eaf60035490565b60006120d2613179565b6120da6131d3565b6011886040516120ea9190614064565b90815260200160405180910390205460001461215b5760405162461bcd60e51b815260206004820152602a60248201527f4d61746820636f6e6365707420776974682074686973206e616d6520616c72656044820152696164792065786973747360b01b60648201526084016105ea565b6000612166600b5490565b90506040518061012001604052808281526020018a815260200189815260200188815260200187815260200186815260200185815260200184815260200160011515815250600e60008381526020019081526020016000206000820151816000015560208201518160010190816121dd9190614113565b50604082015160028201906121f29082614113565b50606082015160038201906122079082614113565b5060808201518051612223916004840191602090910190613358565b5060a082015160058201906122389082614113565b5060c0820151600682019061224d9082614113565b5060e082015160078201906122629082614113565b5061010091909101516008909101805460ff19169115159190911790556040518190601190612292908c90614064565b908152602001604051809103902081905550807f224d00bfa0e61394903f583b79ffd877e5ff472482cd82ef167392713a487d178a896040516122d69291906141d2565b60405180910390a26122ec600b80546001019055565b98975050505050505050565b600081815260076020526040812060050154606090819081908190869060ff166123345760405162461bcd60e51b81526004016105ea90614225565b6000600760008981526020019081526020016000206040518060c00160405290816000820154815260200160018201805461236e90614030565b80601f016020809104026020016040519081016040528092919081815260200182805461239a90614030565b80156123e75780601f106123bc576101008083540402835291602001916123e7565b820191906000526020600020905b8154815290600101906020018083116123ca57829003601f168201915b5050505050815260200160028201805461240090614030565b80601f016020809104026020016040519081016040528092919081815260200182805461242c90614030565b80156124795780601f1061244e57610100808354040283529160200191612479565b820191906000526020600020905b81548152906001019060200180831161245c57829003601f168201915b5050505050815260200160038201805480602002602001604051908101604052809291908181526020016000905b828210156125535783829060005260206000200180546124c690614030565b80601f01602080910402602001604051908101604052809291908181526020018280546124f290614030565b801561253f5780601f106125145761010080835404028352916020019161253f565b820191906000526020600020905b81548152906001019060200180831161252257829003601f168201915b5050505050815260200190600101906124a7565b50505050815260200160048201805461256b90614030565b80601f016020809104026020016040519081016040528092919081815260200182805461259790614030565b80156125e45780601f106125b9576101008083540402835291602001916125e4565b820191906000526020600020905b8154815290600101906020018083116125c757829003601f168201915b50505091835250506005919091015460ff16151560209182015281519082015160408301516060840151608090940151929c919b50995091975095509350505050565b60006001611eaf600b5490565b60006001611eaf60015490565b612649613179565b6126516131d3565b600082815260086020526040902060060154829060ff166126845760405162461bcd60e51b81526004016105ea90614255565b6000838152600860205260408082206004018490555184917fbdd41a4bc7e629ea27b37486874394ab751fa1e56bd30e0aaa87fa5cae46e68f91a2505050565b6126cc613179565b6126d46131d3565b6000828152600f6020526040902060070154829060ff166127075760405162461bcd60e51b81526004016105ea90613ff9565b6000838152600f602052604090206006016127228382614113565b50827f240b862106f4acb1539209861cfc9890b3b77f14d37c48680170efc9defc9b6f600f600086815260200190815260200160002060010160405161276891906143a4565b60405180910390a2505050565b60006001611eaf600d5490565b600081815260106020526040902060060154606090829060ff166127b85760405162461bcd60e51b81526004016105ea9061442f565b6000838152601060209081526040918290206004018054835181840281018401909452808452909183018282801561280f57602002820191906000526020600020905b8154815260200190600101908083116127fb575b5050505050915050919050565b6004805461181390614030565b60006001611eaf60025490565b6000612840613179565b6128486131d3565b600061285360035490565b6040805160e08101825282815260208082018b81528284018b8152606084018b8152608085018b905260a085018a9052600160c0860181905260008881526008909552959093208451815591519482019490945592516002840155519293509160038201906128c29082614113565b506080820151600482015560a082015160058201906128e19082614113565b5060c091909101516006909101805460ff191691151591909117905560405181907fb4d3ad7b31086d37c555aa4811459ae61647558d8d61c79b622355541112b3ba90612933908a908a908a90614466565b60405180910390a2612949600380546001019055565b9695505050505050565b61295b613179565b6129636131d3565b600082815260066020526040902060090154829060ff166129965760405162461bcd60e51b81526004016105ea906141f7565b6000838152600660208190526040909120016129b28382614113565b50827ff0677ec077e6eec8e31d4e8be0cb20b797f3a9dc243e2ddc641532c0ff4120366006600086815260200190815260200160002060010160405161276891906143a4565b612a00613179565b6001600160a01b038116612a655760405162461bcd60e51b815260206004820152602660248201527f4f776e61626c653a206e6577206f776e657220697320746865207a65726f206160448201526564647265737360d01b60648201526084016105ea565b612a6e81613275565b50565b6000612a7b613179565b612a836131d3565b6000612a8e600d5490565b905060005b8451811015612b3157600e6000868381518110612ab257612ab26142b5565b60209081029190910181015182528101919091526040016000206008015460ff16612b1f5760405162461bcd60e51b815260206004820152601e60248201527f52656c6174656420636f6e6365707420646f6573206e6f74206578697374000060448201526064016105ea565b80612b29816142cb565b915050612a93565b506040518060e001604052808281526020018881526020018781526020018681526020018581526020018481526020016001151581525060106000838152602001908152602001600020600082015181600001556020820151816001019081612b9a9190614113565b5060408201516002820190612baf9082614113565b5060608201516003820190612bc49082614113565b5060808201518051612be09160048401916020909101906133ae565b5060a08201516005820190612bf59082614113565b5060c091909101516006909101805460ff191691151591909117905560405181907f4edace3e44d3b69692c5d65cf3e7a72de9657f1d1d873ba8ac480ac510874c9390612c43908a90613bc6565b60405180910390a2612949600d80546001019055565b612c61613179565b612c696131d3565b6000828152600e6020526040902060080154829060ff16612c9c5760405162461bcd60e51b81526004016105ea906142e4565b6000838152600e60205260409020600701612cb78382614113565b50827f1a4da700cf320a9a2167fd3de3ffa9439a7ac6b3375473869bb6e358109339c6600e600086815260200190815260200160002060010160405161276891906143a4565b600081815260106020526040812060060154606090819081908190869060ff16612d395760405162461bcd60e51b81526004016105ea9061442f565b6000601060008981526020019081526020016000206040518060e001604052908160008201548152602001600182018054612d7390614030565b80601f0160208091040260200160405190810160405280929190818152602001828054612d9f90614030565b8015612dec5780601f10612dc157610100808354040283529160200191612dec565b820191906000526020600020905b815481529060010190602001808311612dcf57829003601f168201915b50505050508152602001600282018054612e0590614030565b80601f0160208091040260200160405190810160405280929190818152602001828054612e3190614030565b8015612e7e5780601f10612e5357610100808354040283529160200191612e7e565b820191906000526020600020905b815481529060010190602001808311612e6157829003601f168201915b50505050508152602001600382018054612e9790614030565b80601f0160208091040260200160405190810160405280929190818152602001828054612ec390614030565b8015612f105780601f10612ee557610100808354040283529160200191612f10565b820191906000526020600020905b815481529060010190602001808311612ef357829003601f168201915b5050505050815260200160048201805480602002602001604051908101604052809291908181526020018280548015612f6857602002820191906000526020600020905b815481526020019060010190808311612f54575b50505050508152602001600582018054612f8190614030565b80601f0160208091040260200160405190810160405280929190818152602001828054612fad90614030565b8015612ffa5780601f10612fcf57610100808354040283529160200191612ffa565b820191906000526020600020905b815481529060010190602001808311612fdd57829003601f168201915b50505091835250506006919091015460ff1615156020918201528151908201516040830151606084015160a090940151929c919b50995091975095509350505050565b613045613179565b61304d6131d3565b600082815260106020526040902060060154829060ff166130805760405162461bcd60e51b81526004016105ea9061442f565b600083815260106020526040902060050161309b8382614113565b50827f11270518097c2d242092e1a61599ba9ca6baff78a318a6cd5b66d72e9572c4176010600086815260200190815260200160002060010160405161276891906143a4565b6000818152600f6020526040902060070154606090829060ff166131175760405162461bcd60e51b81526004016105ea90613ff9565b6000838152600f60209081526040918290206005018054835181840281018401909452808452909183018282801561280f57602002820191906000526020600020908154815260200190600101908083116127fb575050505050915050919050565b6000546001600160a01b031633146114535760405162461bcd60e51b815260206004820181905260248201527f4f776e61626c653a2063616c6c6572206973206e6f7420746865206f776e657260448201526064016105ea565b600054600160a01b900460ff16156114535760405162461bcd60e51b815260206004820152601060248201526f14185d5cd8589b194e881c185d5cd95960821b60448201526064016105ea565b613228613308565b6000805460ff60a01b191690557f5db9ee0a495bf2e6ff9c91a7834c1ba4fdd244a5e8aa4e537bd38aeae4b073aa335b6040516001600160a01b03909116815260200160405180910390a1565b600080546001600160a01b038381166001600160a01b0319831681178455604051919092169283917f8be0079c531659141344cd1fd0a4f28419497f9722a3daafe3b4186f6b6457e09190a35050565b6132cd6131d3565b6000805460ff60a01b1916600160a01b1790557f62e78cea01bee320cd4e420270b5ea74000d11b0c9f74754ebdbfc544b05a2586132583390565b600054600160a01b900460ff166114535760405162461bcd60e51b815260206004820152601460248201527314185d5cd8589b194e881b9bdd081c185d5cd95960621b60448201526064016105ea565b82805482825590600052602060002090810192821561339e579160200282015b8281111561339e578251829061338e9082614113565b5091602001919060010190613378565b506133aa9291506133f5565b5090565b8280548282559060005260206000209081019282156133e9579160200282015b828111156133e95782518255916020019190600101906133ce565b506133aa929150613412565b808211156133aa5760006134098282613427565b506001016133f5565b5b808211156133aa5760008155600101613413565b50805461343390614030565b6000825580601f10613443575050565b601f016020900490600052602060002090810190612a6e9190613412565b60006020828403121561347357600080fd5b5035919050565b60005b8381101561349557818101518382015260200161347d565b50506000910152565b600081518084526134b681602086016020860161347a565b601f01601f19169290920160200192915050565b600081518084526020808501945080840160005b838110156134fa578151875295820195908201906001016134de565b509495945050505050565b87815260e06020820152600061351e60e083018961349e565b8281036040840152613530818961349e565b90508281036060840152613544818861349e565b90508281036080840152613558818761349e565b905082810360a084015261356c81866134ca565b905082810360c0840152613580818561349e565b9a9950505050505050505050565b634e487b7160e01b600052604160045260246000fd5b604051601f8201601f191681016001600160401b03811182821017156135cc576135cc61358e565b604052919050565b600082601f8301126135e557600080fd5b81356001600160401b038111156135fe576135fe61358e565b613611601f8201601f19166020016135a4565b81815284602083860101111561362657600080fd5b816020850160208301376000918101602001919091529392505050565b60006001600160401b0382111561365c5761365c61358e565b5060051b60200190565b600082601f83011261367757600080fd5b8135602061368c61368783613643565b6135a4565b82815260059290921b840181019181810190868411156136ab57600080fd5b8286015b848110156136ea5780356001600160401b038111156136ce5760008081fd5b6136dc8986838b01016135d4565b8452509183019183016136af565b509695505050505050565b6000806000806080858703121561370b57600080fd5b84356001600160401b038082111561372257600080fd5b61372e888389016135d4565b9550602087013591508082111561374457600080fd5b613750888389016135d4565b9450604087013591508082111561376657600080fd5b61377288838901613666565b9350606087013591508082111561378857600080fd5b50613795878288016135d4565b91505092959194509250565b80356001600160a01b03811681146137b857600080fd5b919050565b60008060008060008060c087890312156137d657600080fd5b86356001600160401b03808211156137ed57600080fd5b6137f98a838b016135d4565b9750602089013591508082111561380f57600080fd5b61381b8a838b016135d4565b9650604089013591508082111561383157600080fd5b61383d8a838b016135d4565b9550606089013591508082111561385357600080fd5b5061386089828a016135d4565b93505061386f608088016137a1565b915060a087013590509295509295509295565b60006020828403121561389457600080fd5b81356001600160401b038111156138aa57600080fd5b6138b6848285016135d4565b949350505050565b60006101208b83528060208401526138d88184018c61349e565b905082810360408401526138ec818b61349e565b90508281036060840152613900818a61349e565b90508760808401528660a084015282810360c0840152613920818761349e565b6001600160a01b039590951660e084015250506101000152979650505050505050565b600081518084526020808501808196508360051b8101915082860160005b8581101561398b57828403895261397984835161349e565b98850198935090840190600101613961565b5091979650505050505050565b6020815260006139ab6020830184613943565b9392505050565b86815285602082015284604082015260c0606082015260006139d760c083018661349e565b84608084015282810360a08401526139ef818561349e565b9998505050505050505050565b60008060408385031215613a0f57600080fd5b8235915060208301358015158114613a2657600080fd5b809150509250929050565b60008060408385031215613a4457600080fd5b8235915060208301356001600160401b03811115613a6157600080fd5b613a6d858286016135d4565b9150509250929050565b600082601f830112613a8857600080fd5b81356020613a9861368783613643565b82815260059290921b84018101918181019086841115613ab757600080fd5b8286015b848110156136ea5780358352918301918301613abb565b60008060008060008060c08789031215613aeb57600080fd5b86356001600160401b0380821115613b0257600080fd5b613b0e8a838b016135d4565b97506020890135915080821115613b2457600080fd5b613b308a838b016135d4565b96506040890135915080821115613b4657600080fd5b613b528a838b016135d4565b95506060890135915080821115613b6857600080fd5b613b748a838b016135d4565b94506080890135915080821115613b8a57600080fd5b613b968a838b01613a77565b935060a0890135915080821115613bac57600080fd5b50613bb989828a016135d4565b9150509295509295509295565b6020815260006139ab602083018461349e565b87815260e060208201526000613bf260e083018961349e565b8281036040840152613c04818961349e565b90508281036060840152613c18818861349e565b90508281036080840152613c2c818761349e565b905082810360a084015261356c818661349e565b600080600080600060a08688031215613c5857600080fd5b8535945060208601356001600160401b0380821115613c7657600080fd5b613c8289838a016135d4565b95506040880135915080821115613c9857600080fd5b613ca489838a016135d4565b94506060880135915080821115613cba57600080fd5b613cc689838a01613666565b93506080880135915080821115613cdc57600080fd5b50613ce9888289016135d4565b9150509295509295909350565b600080600080600080600060e0888a031215613d1157600080fd5b87356001600160401b0380821115613d2857600080fd5b613d348b838c016135d4565b985060208a0135915080821115613d4a57600080fd5b613d568b838c016135d4565b975060408a0135915080821115613d6c57600080fd5b613d788b838c016135d4565b965060608a0135915080821115613d8e57600080fd5b613d9a8b838c01613666565b955060808a0135915080821115613db057600080fd5b613dbc8b838c016135d4565b945060a08a0135915080821115613dd257600080fd5b613dde8b838c016135d4565b935060c08a0135915080821115613df457600080fd5b50613e018a828b016135d4565b91505092959891949750929550565b85815260a060208201526000613e2960a083018761349e565b8281036040840152613e3b818761349e565b90508281036060840152613e4f8186613943565b905082810360808401526122ec818561349e565b60008060408385031215613e7657600080fd5b50508035926020909101359150565b6020815260006139ab60208301846134ca565b600080600080600060a08688031215613eb057600080fd5b853594506020860135935060408601356001600160401b0380821115613ed557600080fd5b613ee189838a016135d4565b9450606088013593506080880135915080821115613cdc57600080fd5b600060208284031215613f1057600080fd5b6139ab826137a1565b600080600080600060a08688031215613f3157600080fd5b85356001600160401b0380821115613f4857600080fd5b613f5489838a016135d4565b96506020880135915080821115613f6a57600080fd5b613f7689838a016135d4565b95506040880135915080821115613f8c57600080fd5b613f9889838a016135d4565b94506060880135915080821115613fae57600080fd5b613cc689838a01613a77565b85815260a060208201526000613fd360a083018761349e565b8281036040840152613fe5818761349e565b90508281036060840152613e4f818661349e565b6020808252601b908201527f4d6174682070726f626c656d20646f6573206e6f742065786973740000000000604082015260600190565b600181811c9082168061404457607f821691505b60208210810361125157634e487b7160e01b600052602260045260246000fd5b6000825161407681846020870161347a565b9190910192915050565b60208082526025908201527f436f6e6365707420776974682074686973206e616d6520616c72656164792065604082015264786973747360d81b606082015260800190565b601f8211156114ed57600081815260208120601f850160051c810160208610156140ec5750805b601f850160051c820191505b8181101561410b578281556001016140f8565b505050505050565b81516001600160401b0381111561412c5761412c61358e565b6141408161413a8454614030565b846140c5565b602080601f831160018114614175576000841561415d5750858301515b600019600386901b1c1916600185901b17855561410b565b600085815260208120601f198616915b828110156141a457888601518255948401946001909101908401614185565b50858210156141c25787850151600019600388901b60f8161c191681555b5050505050600190811b01905550565b6040815260006141e5604083018561349e565b8281036020840152610b22818561349e565b6020808252601490820152731059d95b9d08191bd95cc81b9bdd08195e1a5cdd60621b604082015260600190565b60208082526016908201527510dbdb98d95c1d08191bd95cc81b9bdd08195e1a5cdd60521b604082015260600190565b6020808252601b908201527f52656c6174696f6e7368697020646f6573206e6f742065786973740000000000604082015260600190565b634e487b7160e01b600052601160045260246000fd5b80820180821115610dc657610dc661428c565b634e487b7160e01b600052603260045260246000fd5b6000600182016142dd576142dd61428c565b5060010190565b6020808252601b908201527f4d61746820636f6e6365707420646f6573206e6f742065786973740000000000604082015260600190565b81810381811115610dc657610dc661428c565b600080835461433c81614030565b60018281168015614354576001811461436957614398565b60ff1984168752821515830287019450614398565b8760005260208060002060005b8581101561438f5781548a820152908401908201614376565b50505082870194505b50929695505050505050565b60006020808352600084546143b881614030565b808487015260406001808416600081146143d957600181146143f357614421565b60ff1985168984015283151560051b890183019550614421565b896000528660002060005b858110156144195781548b82018601529083019088016143fe565b8a0184019650505b509398975050505050505050565b60208082526019908201527f4d6174682070726f6f6620646f6573206e6f7420657869737400000000000000604082015260600190565b838152826020820152606060408201526000610b22606083018461349e56fea264697066735822122076f0042a500e19356fa1628804bf5bd6327804f06e09c095e6cfcf30c320f0e364736f6c63430008140033",
  "linkReferences": {},
  "deployedLinkReferences": {}
}